:020000040000FA
:06000000020AC10201C466
:030013000201E700
:03002B0002090CBB
:0300330002074B76
:03003B0002023C82
:030053000200F5B3
:03006B0002073158
:100083000201590101FF01010503010F10FEFF5D8C
:10009300135D135D135D1313120D125D13721F00B5
:1000A3000000003620000000000C0000000C0001DE
:1000B300FFFF01030000000000000201010100B086
:1000C300050000002506E80364006400B80102028D
:1000D30000000002050207051E02051E020A0A03AC
:1000E300B80B02803E0102F1FF0114965118000281
:1000F3000206C0E074F2120489A2AFE433FED2AF69
:10010300E5A7FFE5A1F5085F54106006121A3B75D9
:10011300A1EFE5085F54086008121A4175A1F78042
:100123002BEFA2E0C0D0E508A2E092F01209E81597
:100133008182F05017906198E0F89007FAE0C39835
:10014300A2D265D0335002E8F075A1FEEEA2E09290
:10015300AF7F01020540C0E074F2120489A2AFE44C
:1001630033FED2AF9061A4E0F8759B00E59158543B
:100173000860087591F7121A89802AE5915854107E
:1001830060087591EF121A8F801BE8A2E0C0D0E5DA
:1001930091A2E092F01209E8158182F05007E0C2C3
:1001A300E0F0121BD39061A3E0F8E5E95854046032
:1001B3000E121BA975E9FB906193E0A2E640F28061
:1001C3008BC0E074F2120489A2AFE433FED2AF9085
:1001D30061A5E0F8E5BF585404600675BFFB121B28
:1001E300EB02014FC0E0C0D0E8C0E0E9C0E0C0824C
:1001F300C083E5C1C0E0900766E0F874E528F582A6
:1002030074063400F583D0E0F0900765E0F8A3E0CE
:10021300687006E595900768F0900766E004F0C300
:1002230094804002E4F0A374C6F0D083D082D0E07F
:10023300F9D0E0F8D0D0D0E032C0E074F1120489F4
:100243009007E9E0F8A3E0687015539AFBA37401E3
:10025300F07ADC7B0512168D438640C287802C53CF
:1002630086BFD287C2E99007E9E0F5087401250843
:10027300F074692508F58274073400F583E0F5C14D
:100283009007E9E0C394804002E4F07F0202054056
:10029300C3E498F8E499F91202D48026C3E49AFAE5
:1002A300E49BFBE920E7E91202D4E498F8E499F926
:1002B30022C3E498F8E499F91202D4E498F8E49993
:1002C300F9C3E49AFAE49BFB22EB20E7CFE920E7AA
:1002D300E0B90010BB0008E88AF084F8AAF022E431
:1002E300FBC8FA22EB70227B10C833C8C933C93369
:1002F3005007C39AC3DBF280069A50012ADBEAC88F
:1003030033F4C8C933F4C9FA2275F008E4C833C812
:10031300C933C933C99AC99B5004C92AC93BD5F00B
:10032300ECFBC833F4C8E4C9FA22080808EAC0E0C1
:10033300EBC0E086F0E7A4FA180986F0E7A42AFAEE
:10034300180986F0E7A42AFA180986F0E7A42AFA1E
:100353001986F0E7A4FBE5F02AFA190886F0E7A46A
:100363002BFBE5F03AFA190886F0E7A42BFBE5F03E
:100373003AFA18180986F0E7A4C5F02BFBE43AFA19
:100383001908E7C5F0C6A426F6E5F03BFBE43AFA04
:100393001886F0E7A4F6E5F00826F6E43B08F6E451
:1003A3003A08F6D0E0FBD0E0FA22E4CFC0E0E4CE96
:1003B300C0E0E4CDC0E0E4CCC0E075F020C3E63398
:1003C300F608E633F608E633F608E633F6181818A7
:1003D300EC33FCED33FDEE33FEEF33FFC3EC970953
:1003E300ED9709EE9709EF97191919400FFFEC974D
:1003F300FC09ED97FD09EE97FE191906D5F0BEEC41
:10040300F709EDF709EEF709EFF7191919D0E0FC31
:10041300D0E0FDD0E0FED0E0FF222518C582C0E089
:10042300E51934FFC583C0E0E518C3958224F810AD
:10043300AF088583198582188008858319858218FA
:10044300D2AFCEF0A3E520F0A37808E608F0A3DE50
:10045300FAEFF0A3E58124FAF8E608F0A3E608F042
:10046300A3E608F0A30808E608F0A3E608F0A3153E
:10047300811581D0E0FED0E0F8158115811581E862
:10048300C0E0EEC0E022C0D02518C582C0E0E51967
:1004930034FFC583C0E0E518C3958224F310AF0889
:1004A3008583198582188008858319858218D2AFC0
:1004B300C8F0A3E9F0A3EAF0A3EBF0A37908E709F6
:1004C300F0A3D8FAECF0A3EDF0A3EEF0A3EFF0A3C2
:1004D300D0E0F0A3D0E0F0A3D0E0F0A3E520F0A3B8
:1004E300E5F0F0A322120B23B9000302052AE490DE
:1004F300030178C1790B8002F0A3D8FCD9FA900DDF
:10050300C1AA82AB83900086787079018015E49349
:10051300A3AC82AD838A828B83F0A3AA82AB838C44
:10052300828D83D8E9D9E77582E27583CC7403128F
:10053300088475827975831E740012088485198373
:10054300851882E0C0E0A3E0F9A3E0FAA3E0FBA3EF
:100553007808E0F608A3DFFAE0FCA3E0FDA3E0FEE1
:10056300A3E0FFA3E0C0E0A3E0C0E0A3E0F5D0A3D5
:10057300E0F520A3E0A3F5F010AF08858319858289
:10058300188008858319858218D2AFD082D083D092
:10059300E0F8D0E03275F0108E1A8F1B85821F852C
:1005A300831E851882851983E0CEA3E0CF851F8241
:1005B300851E83EBC9EAC8EDCBECCAC3E833C8E9AF
:1005C30033C9EA33CAEB33CBC3EA9EF51DEB9FF580
:1005D3001CB35004AB1CAA1DEC33CCED33CDD5F0CA
:1005E300DAAE1AAF1B22D083D082ECC0E0EDC0E0BC
:1005F300E493A3FCE493A3FDED4C600D1206C1EC60
:1006030024FFFCED34FFFD80EFE493A3FCE493A30C
:10061300FDED4C600D12078FEC24FFFCED34FFFD64
:1006230080EFD0E0FDD0E0FCE493A3C0E0E493C00E
:10063300E022D083D082E9C0E0E493A3C386F0C56F
:10064300F095F0F908E493A386F0C5F095F0700BEC
:10065300E493A3C3994005E9048002A3E475F0027F
:10066300A42582F582E5F03583F583D0E0F9E493A0
:10067300A3C0E0E493C0E022851983851882E0A338
:10068300FEE0A3F5207808E0A3F608DFFAE0A3FF75
:10069300E0A3C0E0E0A3C0E0E0A3C0E0E0A3C0E0CB
:1006A300E0A3C0E010AF0885821885831980088510
:1006B3008218858319D2AFD083D08202088AC0E022
:1006C300C3E49396087401939618400FE4936670FD
:1006D3000808740193661870007019A3A3C3E49308
:1006E30096087401939618A3A3400DD0E0D0E0D0F0
:1006F300E0020625A3A3A3A3A3A3D0E0227404804E
:100703000474028000CCC0E0EDC0E0E518C39CCCCB
:10071300AD1950011D10AF068C188D1980068C1869
:100723008D19D2AF120806D0E0FDD0E0FC22C0E064
:1007330074F2120489E589A2E150031219577589ED
:1007430000C2C57F01020540C0E074F2120489E5CE
:100753008BA2E05003121957758B00C2E880E47432
:10076300028000CCC0E0EDC0E0E518C39CCCAD191D
:1007730050011D10AF068C188D1980068C188D1929
:10078300D2AF1207E4D0E0FDD0E0FC22C0E0C0F01D
:1007930088F0E4936670080874019366187000A8E3
:1007A300F0A3A3700BD0F0D0E0D0E0D0E002062598
:1007B300A3A3D0F0D0E022D083D082CCC0E0E493D6
:1007C300A360061208461470FAE493A360061209A4
:1007D300561470FAD0E0FCE493A3C0E0E493C0E0C5
:1007E30022CAC0E0E493A3C582CCC582C583CDC52C
:1007F30083F0A3C582CCC582C583CDC583DAE5D09A
:10080300E0CA22CAC0E0E0A3C582CCC582C583CDBD
:10081300C583F0A3C582CCC582C583CDC583DAE683
:10082300D0E0CA227009080808226016181818C6F2
:10083300C333C608C633C608C633C608C633C6D5CF
:10084300E0EA22C0E0E493A3D39C5010E493A3C353
:100853009C400AD0E0D0E0D0E00207D7A3A3A3D006
:10086300E022C008C3E096F50808A3E09642080812
:10087300A3E096420808A3E09645087001D3D00888
:1008830022C09FF59FE473D09F22D083D082C09F64
:10089300E493C0E0740193C0E0740293F59F2225B2
:1008A30018F58210AF08F518400215198008F518DD
:1008B30040021519D2AF851983227404800A740388
:1008C3008006740280027401C0E0F4041208A2D00E
:1008D300E0120AFE22BB0102E722C082C0838982A2
:1008E3008A83BB0003E08002E493D083D08222C0DA
:1008F300D0251810AF08F518500205198008F5180F
:1009030050020519D2AFD0D022C0E0C0D0E8C0E079
:10091300E5A8D2AFC2C7A2E792AFD0E0F8D0D0D05B
:10092300E0326016080808C6C313C618C613C618F3
:10093300C613C618C613C6D5E0EA22C3E0C696F6A8
:1009430008A3E0C696F608A3E0C696F608A3E0C699
:1009530096F622C0E0E493A36C7009D0E0D0E0D017
:10096300E00207D7A3A3D0E022251810AF08F5189B
:10097300400215198008F51840021519D2AF22E07C
:1009830066701008A3E066700A08A3E066700408A6
:10099300A3E06622C3E09608A3E09608A3E09608C6
:1009A300A3E096A2D265D03322E76670100809E768
:1009B30066700A0809E76670040809E76622C3E05F
:1009C30096F008A3E096F008A3E096F008A3E0965B
:1009D300F022E026F008A3E036F008A3E036F008A2
:1009E300A3E036F022C0E0E8C0E0E58124FCF8E6AD
:1009F300A2E7D0E0F8D0E022E647F60809E647F69A
:100A03000809E647F60809E647F622E026F608A3B2
:100A1300E036F608A3E036F608A3E036F622E6272A
:100A2300F60809E637F60809E637F60809E637F661
:100A330022E657F60809E657F60809E657F60809C5
:100A4300E657F622E056F608A3E056F608A3E0566A
:100A5300F608A3E056F622E056F008A3E056F008A5
:100A6300A3E056F008A3E056F022700422600D18AC
:100A7300C6C333C608C633C6D5E0F41822E4C3960A
:100A8300F608E496F608E496F608E496F622C6F429
:100A9300C608C6F4C608C6F4C608C6F4C622C3E729
:100AA300960809E7960809E7960809E79622C3E03E
:100AB3009608A3E09608A3E09608A3E0962275D0D3
:100AC30000758140751801751903000204E8E0F60A
:100AD30008A3E0F608A3E0F608A3E0F622600C08FA
:100AE300C6C313C618C613C6D5E0F422E6F008A39E
:100AF300E6F008A3E6F008A3E6F022CAC0E0E6F0B9
:100B0300A308DAFAD0E0FA22E0FAA3E0FBA3E0FCC0
:100B1300A3E0FD22EAF0A3EBF0A3ECF0A3EDF022B7
:100B2300E5C754F84401F5C77901222518F582E495
:100B33003519F58322C2AF75D69F02000022120831
:100B43008D0CE40212088D2AE40212088D8622001D
:100B530012088D98220012088DEA220012088D4B8C
:100B6300230012088DD5230012088D792400120862
:100B73008DCD240012088DE6240012088D0C25006B
:100B830012088D47250012088D8B250012088DB29F
:100B9300250012088D03260012088DB326001208C3
:100BA3008D6B270012088D33280012088DF328005F
:100BB30012088D37290012088D5C290012088D9FB9
:100BC300290012088DEC290012088D442B0012080D
:100BD3008DCA2B0012088DE82B0012088D122C00F1
:100BE30012088D2C2C0012088D3B2C0012088D4608
:100BF3002C0012088D062D0012088D5F2D0012089F
:100C03008D212E0012088D292E0012088DED2E0045
:100C130012088D592F0012088D84300012088D950B
:100C2300300012088D0B310012088D9D310012081F
:100C33008DF5310012088DB5320012088DDC3200BB
:100C430012088DEE320012088D41330012088D7E9A
:100C5300330012088D8B330012088D0E35001208F5
:100C63008D63360012088D95360012088D283700E3
:100C730012088D61370012088DAD370012088DC937
:100C8300380012088D123B0012088D1D3B0012081C
:100C93008D283B0012088D323B0012088D3D3B002E
:100CA30012088D573B0012088D613B0012088D6BB3
:100CB3003B0012088D763B0012088D9E3B00120804
:100CC3008DF93B0012088D1D3C0012088D413C003C
:100CD30012088D9F3C0012088DE33C0012088DFF23
:100CE3003C0012088D763D0012088DAE3D001208BF
:100CF3008DFA3D0012088D573E0012088D113F00FA
:100D030012088DF5400012088D4E410012088D7EA9
:100D1300420012088DA4420012088D2D44001208CF
:100D23008DA9470012088D7B490012088D444B00A2
:100D330012088DF14B0012088D5C4D0012088DFBDB
:100D43004D0012088D404E0012088DAA4E00120865
:100D53008DB94E0012088D40510012088DF25200D9
:100D630012088D5F530012088D3E540012088D57F0
:100D7300550012088DD4560012088DF35600120840
:100D83008D48570012088D4D580012088D75580074
:100D930012088DCD580012088DAC590012088DF041
:100DA300590012088D3B5A0012088DA65A001208EA
:100DB3008DE75B0012088D4B5C0012088D995D0076
:100DC30012088DF95F0012088D2A600012088DE267
:100DD300610012088D37620012088D3B6300120810
:100DE3008DD8630012088D31640012088DE464000D
:100DF30012088D86650012088D26660012088DCBB9
:100E0300660012088D66800112088DA58001120804
:100E13008DEC820112088D36830112088D518401F5
:100E230012088DC1840112088DF6840112088D6A9F
:100E3300860112088DED880112088D168A011208A9
:100E43008DAC8A0112088DB4930112088D49940167
:100E530012088D30970112088D23980112088D8492
:100E6300980112088DA0990112088D859B01120823
:100E73008D969D0112088D009E0112088DD29E0150
:100E830012088D899F0112088D939F0112088DC14D
:100E93009F0112088D7EA00112088D55A101120831
:100EA3008D1CA20112088DCEA20112088DF7A2019A
:100EB30012088D19A30112088D6FA50112088D4721
:100EC300A60112088D8BA60112088DF3A601120844
:100ED3008DABA70112088DDDA70112088D21A80192
:100EE30012088D57A80112088DA3A80112088DF8C6
:100EF300A80112088DFDA80112088D50A90112083E
:100F03008D75A90112088D84AA0112088DE8AA0122
:100F130012088D58AB0112088DE4AB0112088DB194
:100F2300AE0112088D95AF0112088D18B101120898
:100F33008D4EB30112088DFCB30112088DACB401C0
:100F430012088DEDB60112088D90B70112088DD7E6
:100F5300B70112088D83B90112088D97B9011208E0
:100F63008DA1B90112088DC9B90112088DD5B90136
:100F730012088DF4B90112088DD9BB0112088D1026
:100F8300BC0112088D1ABC0112088D50BC01120855
:100F93008D9FBD0112088DE3BD0112088D8BBE012B
:100FA30012088D6EBF0112088D19C00112088D65DC
:100FB300C10112088D63C20112088D09C301120811
:100FC3008D99C30112088DB0C30112088DE7C301C7
:100FD30012088DF1C30112088DFCC30112088D1A8A
:100FE300C40112088D5EC40112088DBBC40112082E
:100FF3008DE0C40112088DFAC40112088D86C50163
:1010030012088DA3C60112088D10C70112088DF7AF
:10101300C70112088D1EC80112088D92C80112085B
:101023008D0DC90112088D11CA0112088D07CB015C
:1010330012088DB6CB0112088DC9CC0112088D653B
:10104300CD0112088DF2CD0112088DD0CE01120808
:101053008D08CF0112088D60CF0112088D29D001B0
:1010630012088D4AD00112088DD1D00112088DF5D6
:10107300D00112088D17D10112088D60D101120819
:101083008D76D30112088D5DD40112088D0ED50122
:1010930012088D44D70112088D94D70112088DD4FC
:1010A300D70112088D16D80112088D72D8011208C3
:1010B3008DA0D80112088DC4D80112088D17D9014B
:1010C30012088D45D90112088D7ED90112088DD3DE
:1010D300D90112088D39DA0112088D8DDB0112084E
:1010E3008DB0DD0112088D1DDE0112088D46DE0173
:1010F30012088DD1DE0112088D38DF0112088D83AD
:10110300DF0112088DA7DF0112088DCBDF01120862
:101113008D26E00112088D41E00112088DFAE001ED
:1011230012088D30DD0312088D6FDD0312088D78F0
:10113300800212088DBE800212088D9E8102120861
:101143008DA0820212088DA3830212088D2F8502BF
:1011530012088D8D850212088D4A860212088D6849
:10116300870212088DD9870212088D15880212088A
:101173008D63880212088D6D880212088DB1880272
:1011830012088D0D890212088DA8890212088D2577
:101193008A0212088DF48A0212088D8D8B021208BE
:1011A3008DAD8B0212088DE38B0212088D148C0215
:1011B30012088DD58C0212088DE58C0212088D3928
:1011C3008D0212088D548D0212088D668D0212084D
:1011D3008D6F8D0212088DC98D0212088D258E0226
:1011E30012088D718E0212088D8C8E0212088DBD2D
:1011F3008E0212088DDA8E0212088DE68E02120814
:101203008D5A900212088D73900212088DDA9002A3
:1012130012088DED900212088DFB900212088DAF1B
:10122300910212088D93920212088D99930212086B
:101233008D23940212088D2D940212088D9A940224
:1012430012088DB1940212088DE3940212088D1CCA
:10125300950212088D46950212088DA79502120871
:101263008DC7950212088DE5950212088D2B960203
:1012730012088D51970212088D9E970212088DCD88
:10128300970212088D43980212088D6B9802120878
:101293008DA4980212088DB2980212088D0A990241
:1012A30012088D59990212088D98990212088DC857
:1012B300990212088DF4990212088DFF99021208FF
:1012C3008D1D9A0212088DDF9A0212088DE99A0287
:1012D30012088D249B0212088D3A9B0212088D8FEF
:1012E3009B0212088DA39B0212088DB19C02120867
:1012F3008DC49C0212088DD99C0212088D7B9D021D
:1013030012088DFE9D0212088DBC9E0212088DC725
:101313009E0212088DF39F0212088D0FA00212087D
:101323008D61A00212088DA0A00212088DB5A00243
:1013330012088D17A10212088DA6A10212088DF1C1
:10134300A10212088D42A40212088DC0A402120841
:101353008D35A50212088D57A70212088D6FA702BB
:1013630012088D72A70212088D7EA70212088D92B1
:10137300A70212088D9AA70212088DCDA7021208A0
:101383008D7DA80212088DF3A80212088D66A902AA
:1013930012088D1AAA0212088DCFAA0212088DEE26
:1013A300AA0212088D8EAB0212088D9AAB021208A4
:1013B3008DC5AB0212088DC8AB0212088D32AC0288
:1013C30012088D5AAD0212088D32AE0212088DBD7D
:1013D300AE0212088DD6AF0212088D93B002120826
:1013E3008DCCB00212088DFDB00212088DBBB10284
:1013F30012088DEBB10212088DC6B20212088D5F7E
:10140300B30212088DEAB30212088D9BB4021208CC
:101413008D1EB50212088D50B50212088D91B502CA
:1014230012088D33F50212088D98F50212088DA269
:10143300D70212088D24F60212088D3AF802120818
:101443008D1DFA0212088D87FD0212088DC2FD025E
:1014530012088DE4FD0212088D47FE0212088D7BEF
:10146300FE0212088D9EFE0212088DCBFE021208A8
:101473008D27FF0212088D00800312088D7E8003E2
:1014830012088DB4800312088DD8E20212088D93DE
:10149300820312088DAF820312088DF482031208AF
:1014A3008D82830312088DDB830312088D08850365
:1014B30012088D1A860312088D77860312088DE3AE
:1014C300860312088D44870312088D85870312084B
:1014D3008D32880312088D44890312088D6F8903A6
:1014E30012088DBA890312088D018A0312088D939D
:1014F3008A0312088D4E8B0312088D459C03120834
:101503008D919C0312088DFF9C0312088D209D036F
:1015130012088DD09D0312088DD99D0312088D2CBE
:101523009E0312088D559E0312088DBC9E0312085C
:101533008D4D9F0312088D8F9F0312088DD99F0332
:1015430012088D38A00312088D64A00312088DF5CC
:10155300A00312088D34A10312088D73A10312088E
:101563008DA8A10312088DBAA10312088DCCA10383
:1015730012088DEBA10312088DF4A10312088DAAA2
:10158300A20312088DEAA20312088DCBDA03120814
:101593008DE5DC0312088DB0CA0312088DE6CA0379
:1015A30012088D2FCB0312088D7FCC0312088D17E1
:1015B300670012088D56680012088D9268001208A1
:1015C3008D516A0012088D7A6A0012088D0D6D0024
:1015D30012088D516D0012088DDA6E0012088D729B
:1015E3006F0012088DDA6F0012088D7B70001208ED
:1015F3008DBD700012088DFD700012088D88720079
:1016030012088DF8730012088D1D760012088D4B99
:10161300760012088D72760012088D7B7600120810
:101623008D02770012088D207A0012088D37DE03B1
:1016330012088D4DDE0312088DE9BA0312088DFCE2
:10164300BA0312088D99BB0312088DD4BB03120889
:101653008DEFBB0312088D14BC0312088D59BC0314
:1016630012088D8ABC0312088DBBBC0312088D417E
:10167300BE0312088D9EDB0312088DDBDB03120809
:101683008D1DDC0312088D2DDC0312088D37DC035E
:1016930012088D52B00312088D3BB10312088D1945
:1016A300B20312088D9CB20312088D97B30312087C
:1016B3008D51E40212088DA6E40212088D8FE50213
:1016C30012088D28E60212088D72E60212088DD4E4
:1016D300E60212088DE8E60212088DCAE802120833
:1016E3008D45E90212088D6FE90212088D48EB025D
:1016F30012088D63EB0212088DB2EB0212088DC83B
:10170300EB0212088DD5EB0212088D09EC021208C8
:101713008D22EC0212088DC2EC0212088D1CED0220
:1017230012088D6AED0212088D7DEE0212088DEE0D
:10173300F00212088D23F10212088DB1F102120892
:101743008D12F20212088D17F20212088D53F20263
:1017530012088DB5F20212088D85F30212088DAAC4
:10176300F30212088DB4F30212088DB7F3021208C4
:101773008D26F40212088D41F40212088D54F402EE
:1017830012088D80F40212088DBBF40212088DBE7C
:10179300F40212088DFAF40212088D73FF02120884
:1017A3008D8BFF0212088D01950312088D5095034E
:1017B30012088DF2960312088DAE980312088DF667
:1017C300980312088DDE990312088D0F9B031208EC
:1017D3008D319B0312088D8D9B0312088D119C0381
:1017E30012088D34E10112088D5FE10112088D4268
:1017F300E20112088DC7E20112088D30E3011208DD
:101803008D7CE30112088DFBE30112088D8DE40149
:1018130012088D19E50112088D5BE50112088DA4EC
:10182300E90112088D24EB0112088DF4EB01120873
:101833008D1BEC0112088D7CEE0112088D08EF015F
:1018430012088D22F00112088D01F10112088D8317
:10185300F10112088D1BF20112088DD5F201120855
:101863008D47F30112088DE3F30112088D53F40140
:1018730012088D0CF70112088DE3F70112088D5041
:10188300F80112088DCDF90112088D97FA0112089B
:101893008DDEFB0112088DF1FC0112088D8AFD011A
:1018A30012088D50FE0112088D5BBE0312088DAF26
:1018B300BE0312088D07BF0312088D52BF0312081F
:1018C3008DB4BF0312088D4DC00312088DB5C0033C
:1018D30012088DC1C00312088DEDCE0312088D1EB0
:1018E300CF0312088DD8CF0312088D3ED003120800
:1018F3008D61CD0312088DEADD0312088DFBDD0334
:1019030012088DC7D00312088DD5D00312088D5746
:10191300DE0312088D4FDC0312088D5FDC0312080F
:101923008D7ADC0312088DDBDC0312088DC9D90321
:1019330012088D4EDA0312088DB2DA0312088DAB4A
:10194300D70312088DCDD70312088D37D803120899
:101953008D42D80312088D86D80312088D7FD203D7
:1019630012088D8DD20312088DB2D20312088DCFC7
:10197300D20312088DECD20312088D11D30312087F
:101983008D45D30312088DDFB30312088DEDB30326
:1019930012088D67B40312088D4BB50312088D042A
:1019A300B70312088D15DE0312088DF2C503120862
:1019B3008D40C60312088DDDC60312088D88C70348
:1019C30012088DA0C70312088D1CC80312088D329C
:1019D300C80312088D45C80312088D13A303120808
:1019E3008D68A30312088D64A50312088D96A503C1
:1019F30012088DB8A50312088DD1A50312088DEA2C
:101A0300A50312088DF4A60312088D8FA7031208ED
:101A13008D04D40312088D28D40312088D41D403F6
:101A230012088D74D40312088DA5D40312088DD324
:101A3300D40312088D35D50312088D44D50312083B
:101A43008D4ED50312088D5BD50312088DFCC003A0
:101A530012088D22C10312088D5FC10312088D6E17
:101A6300C10312088D8DC10312088DF5C10312083D
:101A73008DFEC10312088D5DC20312088D81C2035E
:101A830012088D40C30312088D4DC30312088D5EE7
:101A9300C30312088DC1FF0212088DDEFF02120874
:101AA3008D06A80312088D64A90312088D71A9037A
:101AB30012088D84A90312088DA3A90312088DB9F6
:101AC300A90312088DCDA90312088D42AA03120897
:101AD3008DA7AA0312088D57AB0312088D2CAC03F4
:101AE30012088D3CAC0312088D4BAC0312088D65B4
:101AF3007F0012088D897F0012088DB17F001208C4
:101B03008DD97F0012088D8CC30312088DB3C303D4
:101B130012088DD4C30312088D39C40312088D53E0
:101B2300C80312088D6CC80312088D78C803120805
:101B33008D8CC80312088DAAC80312088DB4C8037C
:101B430012088DBEC80312088DD1C80312088D2454
:101B5300C90312088D5DC90312088D8CC9031208CD
:101B63008DDAC90312088D29CA0312088D44CA03EA
:101B730012088D4ECA0312088D5FCA0312088DA581
:101B8300CA0312088DA4FF0112088DC58B03120826
:101B93008DEF8B0312088D0B8C0312088D1E8C03A3
:101BA30012088D348C0312088D918C0312088DC496
:101BB3008C0312088D00910312088D2692031208DC
:101BC3008D59920312088DA5920312088DD19303A8
:101BD30012088DF9930312088D0E940312088D1EBB
:101BE300940312088D62940312088DC394031208A0
:101BF3008DD3940312088D65D50312088D80D50308
:101C030012088DA9D50312088DC3D50312088DE8D8
:101C1300D50312088D07D60312088D1FD6031208A9
:101C23008D4DD60312088D67D60312088D79DD0317
:101C330012088D69B70312088D70B70312088D7CE3
:101C4300B80312088DACB80312088DD2B80312087A
:101C53008DF5B80312088D17B90312088D51B90316
:101C630012088DB7B90312088DF0B90312088D3C21
:101C7300BA0312088D69BA0312088D89BA031208D0
:101C83008DBDD80312088DD5D80312088DC3D9038F
:101C930012088DC6D90312088D98D60312088D0A2F
:101CA300D70312088D48D70312088D89D70312086A
:101CB3008D84AC0312088DA3AC0312088DF2AC0320
:101CC30012088D0EAD0312088D3FAD0312088D4F20
:101CD300AD0312088D5CAD0312088D69AD031208C4
:101CE3008D55AE0312088D93AE0312088D9DAE037E
:101CF30012088DADAF0312088DB8AF0312088DCA59
:101D0300AF0312088DD3AF0312088DDDAF031208A2
:101D13008DA17A0012088DE67E0012088DF47E00F4
:101D230012088DBDDD0312088D6BD60212088DBF1C
:101D3300D50212088D05D40212088DB5D1021208FE
:101D43008D3CD10212088DE3D00212088D73D002AC
:101D530012088D4AD00212088D2ACE0212088DF67F
:101D6300CD0212088DC3CD0212088DA7CD02120831
:101D73008DC0CC0212088D78CC0212088DC3CA0222
:101D830012088D43CA0212088D40CA0212088D41FF
:101D9300C90212088D0FC90212088D4CC80212081D
:101DA3008D77C60212088D08C60212088D35E2022D
:101DB30012088DE8E00212088D93DE0212088D29C5
:101DC300DE0212088DE1DD0212088DDAC502120867
:101DD3008DD7C50212088DC4C50212088D53DD02CA
:101DE30012088D6FC50212088D5EC50212088D5050
:101DF300C40212088D1AC40212088D46DD021208AD
:101E03008D20810312088DC8C30212088D69C30295
:101E130012088D38C30212088D00C00212088DC04B
:101E2300BF0212088DB4BF0212088D14BF0212083C
:101E33008D54BE0212088DD6BB0212088D67B902FB
:101E430012088D25B90212088DF9B70212088DAE5A
:101E5300B70212088DEDB60212088D30B6021208D1
:101E63008DC6B50212088D00B60212088D40DA0243
:101E730012088DD5F50200000080FBE473000136E3
:101E83003601010001020100010301000104010602
:101E93000605020000070100340801000F090401D0
:101EA300010D0100FF0E08000017020000190100D8
:101EB300FF1A0100011B0100FE1C0100081D0200A6
:101EC300001F010001200100012102000023010085
:101ED3000F24020000260100012701000828020048
:101EE300FF2A0100072B0102402C0100002D0100F5
:101EF300012E0100012F0100FF30010B1C310800EE
:101F0300003A0100083B01000F2F0100000302719A
:101F13000230016002110270020102020202028019
:101F230002100261023A004100630273027202620C
:101F330002430200021302380000020002040212EC
:101F4300020002000200020002040204023700370A
:101F5300003C024402000239000002000265020054
:101F6300023502810200020502820283020002039B
:101F73000071003001600011007000310220035035
:101F830004800010006100000014006300730072FD
:101F9300006200430000001300060000000000047C
:101FA30000120000000000000000000400040037DD
:101FB3000037003C02440000000000000000006500
:101FC30000000035008100000005000000830000D0
:101FD3000003047104020460041104700402040287
:101FE3000401040204100461040004140463047370
:101FF300047204620443040004130406040004008E
:1020030004040412040004000400040004510464E2
:10201300000004000400044404000400040004005D
:10202300046504000435048104640005040004838A
:10203300040004010371030103010301030103010C
:102043000322030203010310030003000300030040
:1020530003000300030003420300032403060300F9
:1020630003000304031203250323032503230304AB
:1020730003040300030003000344030003000323DA
:1020830003000365032100350381030003050300F7
:1020930003000300030101710101010101110101A9
:1020A300013101010101018001100161013B0014B3
:1020B3000063017301720162014301000113010610
:1020C300013D01350004011201000100010001007E
:1020D3000104010401330133013C0144013201369F
:1020E30000000100016501000135008101000105C7
:1020F3000182018301000136000100060000000F88
:102103000000000000000000000000000003FFFFCB
:1021130000000403FFFF0000FFFF0FF4010005C4EC
:10212300040320000100030B000000000000000076
:1021330003010F00006D181300311801006D180220
:1021430000FB17030001180400071805000D18060B
:10215300001918FFFF0000014D0E06770E08710EDF
:102163000B8F0E10C90D02530E05650E07590E0C89
:102173002F0E0D410EFF000003EAF5E5D5D5C5B5D9
:10218300A5959585857575656555554545353525FC
:10219300251515056D129D127312791297128B1264
:1021A3008512A312A912AF12BB127F12671261121A
:1021B30000160F00000B150B020002220F32000065
:1021C300065D136F13751337127B1331123D1271B2
:1021D300116B11A711AD11A1115911BD13DB13E13E
:1021E30013C313CF13C913303016181920231A1C25
:1021F3001E300C0E020B040B0A0708000F00383CBC
:102203003E363B3B352B432C303017181921301BFE
:102213001D1F30000119161816161523030000039D
:102223004948424D1817250502B1138113871393AB
:10223300138D139112B512D513C112C712020402E2
:102243000101010109027D1183117711B31100000E
:102253000000000089119B1100BE040A0E00150046
:1022630004007F00E8030C002800000000000903BD
:1022730008100C0A03080900040001FF1E1E0C05C8
:10228300040F08C082C0838A828B83E0D2E7F012F6
:10229300176502333AC082C083790012275212565F
:1022A300A3C082C083900334124429D083D082C355
:1022B300E09CA3E09D500C125D77FAA3E01222C9C3
:1022C30060010902333AFBEA75F00BA4FAA8F07532
:1022D300F00BEBA428FB900336E02AF8A3E03B883D
:1022E30082F583E0540F2274F712041D8908122724
:1022F300521227F8ACF075F00BE9A42CF9900336D1
:10230300E028FEA3E039FF740165086006740265E6
:102313000870208A828B831227E412371A740265AD
:1023230008701B1226A312282B70138E828F83E44E
:10233300F0800BEA2403FCEB1227C61227D2EEFA35
:10234300EFFB120B4D02367774F412041D12669ED6
:1023530079008E828F83E06076890A890B8065E538
:102363000A75F00BA4FAA8F075F00BE50B1222D650
:102373007046E50A75F00BA4F8AAF075F00BE50BAF
:1023830012280A8E828F83E08508828509831228AA
:10239300EC850882850983A312371AEE2403FCEF28
:1023A3001227CF1234F812511DAA08AB09120B4D94
:1023B3007901900334124B32E50A2401F50AE50B47
:1023C3003400F50B1226ABE50A9AE50B9B4090020D
:1023D30038C474F512041DEAFEEBFF740B120B2EC6
:1023E3001234FD750A01EC4D602BEC1266BAED1246
:1023F30056A31237127901120B59E5084509606F8C
:10240300850882850983A31266A87902AA08AB0905
:10241300120B59805AE5084509602B1256A7123D45
:10242300711234F9122815700CEEFAEFFB120B5FE0
:10243300E9F50A80CBEE2403FA12274D70317903B4
:10244300EEFAEFFB80CA8E828F83A3E064FE7003F3
:10245300A3E0F4700BEE24030A0A0A12274D700C52
:10246300EEFAEFFB120B5FE9F50A8003750A00A988
:102473000A7F0302067B74F712041D90033412369D
:1024830087EA4B602FEA75F00BA4FAA8F075F00BFE
:10249300EBA428FBEAFEEBFF1215A39003361236DA
:1024A300879003361249776012EEFCEFFD79001234
:1024B30015078007900336E4F0A3F0023677900304
:1024C300341240E1C3EE98EF9922C082C083EC4DF1
:1024D3006005121CAB80097C087D0079001215078A
:1024E30002333A74F612041D7900EA4B601878003F
:1024F30088081259EAEB125D7360047901780808C1
:10250300E8C3940840EA02372374F712041D74F3F6
:1025130012096CECFEEDFF851882851983E4F00443
:10252300120B2EEAF0A3EB124EA37403120B2EAC84
:1025330082AD83EEFAEFFB120B71EEFAEFFB120B97
:102543007702367274F712041D74F312096CECFEF1
:10255300EDFF851882851983E4F0EAFCEBFD740333
:10256300120B2E1228E57401120B2E12370E8E82D7
:102573008F8312371A74FE68700374FF69600479DD
:10258300018002790002367274F712041DEAFEEB31
:10259300FF1225E970141225F48E828F83E0F4F87C
:1025A3008A828B83E058F0120B4DA90802367774A8
:1025B300F712041DEAFEEBFF7508008E828F83E09D
:1025C30060221225E9701D1225F48A828B83E08F25
:1025D300838E82F8E058700CE0F88A828B83E0489F
:1025E300F0120B4D80C4120B53E9F5087401650812
:1025F300221266B31227FC12273EFAA3E039FB220C
:1026030074F412041D8A088B097C007D001226A332
:102613001227D21227631266A579008508828509DD
:1026230083A3E064FE7003A3E0F460717E007F0087
:102633008062EEFAEF1222C96057EEFAEFFBEA75F9
:10264300F00BA4FAA8F075F00BEBA428FB9003366B
:10265300E02AF50AA3E03BF50B850882850983A3ED
:10266300124DF1850A82850B83A3E06A7003A3E010
:102673006B701EE50A2403FAE50B12274E700AE578
:102683000A2403FCE50B1227CF12275779011256B0
:10269300B91230421226ABEE9AEF9B40950238C432
:1026A300EA24030A0A0AEB22900334125290C3224B
:1026B30074F312041D8A088B098A828B83A3126622
:1026C300A81227521266A5750C001226A312274ED4
:1026D30070547E007F008049122730FAA3E0398AC4
:1026E30082F583E0540F6036122730F50AA3E039F0
:1026F300F50BE50A2403FCE50B1227D93400FB1282
:102703001CA5E964017017850A82850B83A3125304
:1027130051A312371A122757750C011256B91230EA
:10272300421224C140B2A90C7F0502067BEEF8EFEA
:10273300F9E875F00BA4F812273E22AAF075F00B06
:10274300E9A42AF9900336E02822EF122825221261
:1027530066B9EB221227631256B4EEF0A3EFF02210
:10276300E5081266BAE5092274F512041DEAFEEBC8
:10277300FF8E828F83A31266A87C007D00EE240364
:102783000A0A0AEF1227D2EEFAEFFB120B53E9F50E
:102793000A7401650A70291266B31227F8AAF07544
:1027A300F00BE912280A850882F5831227E4122820
:1027B30015700DE5082403FCE5091227C61227D27C
:1027C3000224723400FDEE2403FAEF221227D934D7
:1027D30000FB120B71223400FDE5082403FAE5091E
:1027E30022A31227E9221227ED22E0F8A3E0F98EB3
:1027F300828F83A3221227FC223400F5831240E543
:10280300E875F00BA4F822122744F508A3E039F584
:102813000922E8F0A3E9F0E5082403FAE509122800
:10282300252212282B6401223400FB120B77E922A4
:1028330074F312041D74E612096C12669E750C0182
:10284300750800750900750A00750B0085188285E7
:102853001983E4F0EE2403FCEF3400FD7403120B40
:102863002E1228E5E964017023740B120B2E123724
:10287300127401120B2E124DF57003A3E06960511F
:10288300851882851983858208858309740D120B47
:102893002EE41228EC740E120B2E12371A740D123A
:1028A3000B2EAA82AB83120B95E96401700B740D96
:1028B300120B2E85820A85830B780A1208C5AC0891
:1028C300AD09EEFAEFFB120B6574021208F2E9F59B
:1028D3000CEEFAEFFB120B8FA90C741A1208F2021A
:1028E300272B122BB8120B9B221236821240E122A5
:1028F300C082C0837800790080031229E31226ABDB
:10290300E89AE99B5029E8FAE9FBEA75F00BA4FA87
:10291300ACF075F00BEBA42CFB900336E02AFCA380
:10292300E03B8C82F583E0540F70CF79008002790D
:102933000102333AC082C083902261124137EC75A1
:10294300F012A4FCA8F075F012EDA428FD79FF7A2B
:10295300697B0812150702333A74F712041DE9FE66
:10296300EAFF7A007B00780079008028E8FCE9FD23
:10297300EC75F012A4FC85F00875F012EDA425089F
:10298300122DF8C39E400AE0FCEFC39C4003122FB4
:10299300171229E3122DEC40D3023677C082C0838D
:1029A3007800790080031229E31229D7501F122DD2
:1029B300FCF470F2E875F012A4F8AAF075F012E9CD
:1029C300A42AF9746928FA740839FB80047A007B15
:1029D3000002333A902261122EADC3E89AE99B229A
:1029E300E8240108E93400F92274F012041D74F399
:1029F30012096C8A0A8B0B8C0C8D0D8908EC450D22
:102A03006016AA0CAB0D120BE98A0E8B0FAE0EAF3C
:102A13000FEE4F6003022AAA120BBF8A0E8B0FA878
:102A23000EA90FE8FEE9FFE849607C90226F122BA4
:102A33000C60227403650860067404650870167AD6
:102A4300047903120BB990226F122B2340077A00EB
:102A53007B00022B0990226D122B0C601B74016505
:102A630008600674026508700F7A027901120BB9C7
:102A730090226D122B2350D68518828519837401F9
:102A8300F0120B2E12511DAC0CAD0D7403120B2E54
:102A9300122BB1740B120B2E123505123AFAE412F3
:102AA30051051210B18004EE4F604A780074FF257F
:102AB30008C39404500278048E828F8312511D8EB2
:102AC300828F83A3A3A3A3E508F0E88E828F83A359
:102AD300A3A3A3A31251251202CC122EC48E828F5C
:102AE30083A3A3A3A3A3A3A3F0122EBB120B0B12C6
:102AF300569D120B17122B114005900DC5E4F012D1
:102B03000F8BEEFAEFFB0240EB12523F49227A049D
:102B13007900120BB9902261125D59EA98EB992260
:102B2300122B3C758322758261E493C398F8A3E466
:102B33009399F9C3EA98EB9922E493F8740193F912
:102B43002274F212041D74F312096C8A088B09ECC7
:102B5300FEEDFF750A00EEFAEFFB120BE98A0C8B10
:102B63000DA80CA90DE849603E88828983E06508B9
:102B73007004A3E06509602F88828983A3A3A3A3BC
:102B8300E0C39405502112554B851882851983742F
:102B930001F0120B2E12554FEEFCEFFD7403120BD6
:102BA3002E122BB1750A01A90A740D024BE9122BDF
:102BB300B8120BA722AA82AB83120B7185188285E8
:102BC3001983AA82AB832274F612041D122C0660A9
:102BD3000FA3A3A3A3E014C39404500479018002B8
:102BE300790002372374F612041D122C06600FA31A
:102BF300A3A3A3E014C394025004790180027900D3
:102C0300023723120BE38A828B83E5824583227486
:102C1300F612041D122C06600BA3A3A3A3E07004F9
:102C2300790180027900023723C082C083EAFCEB7A
:102C3300FD7A007B00023337C082C0837C007D00B5
:102C430002333774F412041D74F312096CEAFEEBB9
:102C5300FF8C0A8D0BC3EC94F8ED94FF4007EE4F05
:102C63007003022CFF750800750900802E851882F9
:102C73008519837401F012306A120B2E12307860BA
:102C8300137403120B2EAC82AD83EEFAEFFB121C0E
:102C9300A5E97049E5082401122E98902261E412F7
:102CA3005247E50898E509995052E50875F012A4D2
:102CB300F8AAF075F012E509A42AF9125D8C60D424
:102CC300EE4F70A974FF650A700474FF650B60C44E
:102CD30012305A650A7004A3E0650B70B7E50875F6
:102CE300F012A4F508A8F075F012E509A428F50977
:102CF30074692508FA74083509FB80047A007B009F
:102D03000238BF74F412041D74F312096C750800C1
:102D1300120BE98A0A8B0BAE0AAF0BEE4F602A85C2
:102D23001882851983740112367CF8A3E0F9740BB9
:102D3300120B2E12379D120B897C127D0079FFEE48
:102D4300FAEFFB121507750801122B115009900DAC
:102D5300C57401F0120F8BA9080238BF74F712046F
:102D63001DE9FE74FE6A700374FF6B7800790070CE
:102D73000580521229E3122DEC504AE8FCE9FDECE0
:102D830075F012A4FCAFF075F012EDA42F122DF81C
:102D9300F460E0E8FCE9FDEC75F012A4FC75F012B8
:102DA300EDA42FFD74692CF58274083DF583E06A68
:102DB3007003A3E06B70BC8009122DFC14C3940450
:102DC30040171229E31229D75018EE70EC122DFC8C
:102DD30064016005E0640370E912304BFAA3E0FB81
:102DE30080047AFE7BFF02367790226112413BC357
:102DF300E89CE99D22122F4C22E8FAE9FBEA75F0E0
:102E030012A4FAACF075F012EBA42CFB746D2AF546
:102E13008274083BF583E022120BFB02333AC08233
:102E2300C083790180F274F012041D8A0A8B0B7A35
:102E3300047901120BB98A0C8B0DEA450D603EEA49
:102E4300C333FAEB33FB1215A38A088B09AE08AF21
:102E530009EE4F60237AFE7BFF120C0174FE6A7049
:102E63000374FF6B601B850882850983123687E52F
:102E7300082402122E9880E1750C0080047E007FE6
:102E830000850A82850B83E50CF0EEFAEFFB024026
:102E9300F0E5082407F508E5093400F50922902236
:102EA3006112413BC3EA9CEB9D22E493FA740193C4
:102EB300FB221214FB7403221256AEE4F090804BF3
:102EC30022E88E828F83A3A3A3A3A3A3A3A3122E7B
:102ED300E67401122EE6A3F0EE24101256B1E4F0CC
:102EE300A3F022123B06A3A3A322C082C0837A00CD
:102EF3007B00800419122F17122EA15010122F36A7
:102F0300C3940550F0E970EC122F2080047A007B03
:102F13000002333AEA24010AEB3400FB22EA75F09B
:102F230012A4FA75F012EBA428FB74692AFA740848
:102F33003BFB22EAFCEBFDEC75F012A4FCA8F07558
:102F4300F012EDA428122F4C22FD746D2CF582741F
:102F5300083DF583E02274F712041D74F312096C23
:102F63007E007F00022FFEE50875F017A4F8A9F094
:102F7300125FEDFAA3E0FBEEF8EFF9E875F012A4A7
:102F8300F8ACF075F012E9A42C1230596A7003A35F
:102F9300E06B603FE50875F017A4F8AAF0EA125F4A
:102FA300ECF8A3E0F97401120B2EE0687003A3E0C0
:102FB300696020E50875F017A4F8EAF974E528FCC0
:102FC300740939FD7403120B2EAA82AB83121CA55C
:102FD300E96014E50875F017A4F8A9F074E328FA7A
:102FE300740939FB1210BD0508902274E493F8E5C7
:102FF30008C3985003022F6A123042902261126371
:10300300335039EEF8EFF912304BF47003A3E0F4C8
:1030130060E68518828519837401F0EEF8EFF9E80C
:1030230075F012A4F875F012E9A42AF912306A12A5
:103033000B2E12307860C175080080AD023672EE37
:1030430024010EEF3400FF22E875F012A4F8AAF071
:1030530075F012E9A42AF912305E22746928F58208
:10306300740839F583E022746B28F58274083912E9
:1030730040DF740B22E8F0A3E91237A5120BA1E994
:1030830022C082C083900341745FF0A3740EF002E8
:10309300333A74F712041DEAFEEBFF900377E06402
:1030A30008601BE0640460168E828F83E05403641F
:1030B3000170481234F8123BF0E06406703D8E82D2
:1030C3008F83A3A3E064FE7003A3E0F4602D8E82DC
:1030D3008F83A3A312370E900368E0687003A3E005
:1030E30069700BEE2415F582EF125D736008120F01
:1030F30019E9F5088008120F1F80F67508C2EEFA69
:10310300EFFB1215A90225AD74F412041D8A088B76
:10311300098A828B83E0F8A3E0FAE82AFAE4340010
:10312300FB1215A38A0A8B0BAE0AAF0BEE4F60633B
:10313300850882850983E0FC7D0079001215078EDE
:10314300828F83A3A31266A8120F5B8E828F83A341
:10315300A3A3A3123687850882850983E0F8EE28A6
:10316300F8EF3400123716850882850983A3E0C07F
:10317300E0EE240D1256A0D0E0F0120F6DEE240EF7
:103183001256A0E9124D52E0C0E0EE24111256A0EF
:10319300D0E0F0EEFAEFFB0238C474F412041D74AD
:1031A300EB12096C8A088B098C0A8D0BE9FE9003DC
:1031B30077E064046005E06408700479C2802EA39C
:1031C3007808120AEFEE90037E123378120AEF7436
:1031D30005120B2EE9F07404120B2E7401F0740720
:1031E300120B2EE4F090037774021232D574150299
:1031F30038C174F612041D74EB12096CEAFEEBFF7E
:1032030012497460030232997A077B001215A39066
:10321300033912368712497460788E828F83120BBA
:103223000B90033A123BF3120B1712656CC0E012BA
:1032330032A5D0E0F0EE2405FAEF3400FB8A088BC8
:10324300098A82F583E0C0E01232A0D0E01238BBD5
:10325300E0C0E01232A0A3D0E01236FB120B0B85C4
:103263001882851983120B1788828983E0C0E07462
:1032730005120B2ED0E0F0850882850983E0C0E0BB
:103283007404120B2ED0E0F07407120B2E1232D4FA
:10329300800679108002790174150237201232A555
:1032A300A322900339E0FAA3E0F5838A82A3A3A3C0
:1032B300A322C082C083124974600D900339125255
:1032C3007E900339E4F0A3F0120E8912105D0233ED
:1032D3003AE41237A5121CDB22C082C08390033864
:1032E300E0700312182B120C43804CC082C08390F1
:1032F3000338E0900DC47004E4F0802D7401F09065
:103303000338E0F460237C41E0C394415002E0FCC5
:10331300ECF8E0C398F0EC75F0E8A4CCA8F075F0F5
:1033230003A428FD7A801241437AC47B0D794112AC
:103333001CC38003120BEFD083D08202088A74F47B
:1033430012041D74EB12096C8A088B098C0A8D0B0D
:103353009003777401123378120AEF7405120B2E5F
:10336300E9F07404120B2E7403F07407120B2E127F
:1033730032D40231F012370678082274F712041D92
:103383007C01120C5502367774F212041D74FC1280
:10339300096CE9851882851983F0EAFEEBFF8C0A34
:1033A300900375124429120E7D8A088B09EA450998
:1033B300700579CA0234F38A828B83A3A3A3A3A3E0
:1033C300A3A3E064FE7003A3E0F4700579C30234A1
:1033D300F3900375124DF11210C38508828509839A
:1033E300A3A3A3A3A3A3A3A3A3A3E004900388126B
:1033F30036567402120B2E7402F014120B2EAA828C
:10340300AB83120FC78A0C8B0DAE0CAF0DEE4F7052
:10341300030234EA1234F8123D657406F0A3A8825D
:10342300A9839003621252BB1240BEF0EE24131222
:1034330056A074011250FD7440F0A3E4124D4BA347
:10344300A312350512371AEE24111256A0E50AF01D
:10345300EEFAEFFB120C1FE9FE60030234EC90035B
:10346300777409F0122E94AA08FB794B121CC385BA
:10347300088285098312364812371A90036AE0F8E6
:10348300851882851983E068600CE090036A12371F
:10349300A179E1121CC3900E0812370E900E0AE0B8
:1034A300687003A3E069601A90033B12371A900E09
:1034B3000A124DF1120F85900E0A1244297A011255
:1034C30041437A007B049003C2E0F912165D900E2B
:1034D3000A1234FD74027808120A6DAC08AD09FAB9
:1034E3007B0412414580027E10900599E4F0EEF9C9
:1034F3007404024BE9EE1256AF22E0F508A3E0F59F
:103503000922123509221227EDA32274F512041D94
:1035130074E212096C851882851983ECF0A3EDF02F
:10352300EAFEEBFF89087429120B2EE0F509742CCF
:10353300120B2EE0F50A900377E064046005E06463
:1035430008700579C2023640742A120B2EE064FE1D
:103553007003A3E0F4700579C302364090037774D7
:10356300031237A17950121CC3742A120B2EAA829C
:10357300AB83794B121CC385188285198312364F8E
:1035830012371AE50890036AF0742A120B2E1236CA
:103593004812371AE50990036212365674CE55095C
:1035A3004480C0E07412120B2ED0E0F07401250A9F
:1035B300900388F0740F120B2E7402F0742A120B0E
:1035C3002E12370E7407120B2EE8F0A3E912368D74
:1035D3007410120B2E12371A7405120B2EE508F015
:1035E300741B120B2EE4F090037D740FF07A7D7B35
:1035F300037954121CC390037C740FF07A7C7B0311
:103603007947121CC390037CE0C3940F50237405C5
:10361300120B2EE0C0E07402120B2ED0E0F0740403
:10362300120B2E7401F004120B2EAA82AB83121C10
:10363300E77405120B2EAA82AB83121CC9741E12E7
:1036430008F20224741240E190036B221240E190CD
:10365300037522F0EEFCEFFD7A897B03121CAB228B
:1036630074F712041DEB90037FF0120E6B80057448
:103673000D1208F27F0102067B123682A3E02212AA
:1036830036FBA322EAF0A3EBF022123701F8A3E002
:10369300F92274F712041D74F812096CEAFEEBFFA9
:1036A3007900900377E06408704485188285198354
:1036B30074FDF0A374FFF0120F557402120B2E1257
:1036C30036877405120B2EE4123682E0C0E07404D0
:1036D300120B2ED0E01236F6C0E07406120B2ED079
:1036E300E0F07407120B2EE41237A1120FA974082D
:1036F3000236741236FBE022F08E828F8322123759
:1037030006E022F0851882851983221240E122E027
:10371300F8A3E0F91256AEE8F0A3E9F0221208F29A
:103723007F0202067BC082C083900349740FF0A31B
:10373300740DF09003EF7403F0A37410F090034D35
:103743007445F0A3740DF090034F740FF0A3740D40
:10375300F0900351744BF0A3740DF002333A74F4F8
:1037630012041D74F912096C8A088B098C0A8D0BDB
:103773008518828519837808120AEF7404120B2EB8
:10378300E9F07405120B2EE4F07406120B2EE4120A
:1037930037A1120C3174070238C1E8F0A3E91237DC
:1037A300A522123706AA82AB832274F412041D8A5F
:1037B300088B098A828B831256BCEE4F7003023842
:1037C300B990031212497760158A828B83A3A3E011
:1037D300F9EEFAEFFB900313123BF3121E7E8E8277
:1037E3008F83A3A3A3A3A3A3A3A3A3E064027074DF
:1037F3008E828F83A3A3A3A3A3A3E0540270030227
:10380300388B850882850983A3A3E064E960798EF8
:10381300828F83A3A3A3A3A3A3A3A3A3A3E070144F
:10382300900E1DE0048E828F83A3A3A3A3A3A3A35F
:10383300A3A3A3F08E828F83A3A3A3A3A3A3A3A372
:10384300A3A3E0141238BBA3A3A37404F0900E1E29
:103853001250F7E8F0A3E91261D08B0BEA450B7025
:1038630003125BAE8E828F83A3A3A3A3A3A3A3A3FD
:10387300A3E0640260128E828F83A3A3A3A3A3A3F6
:10388300A3A3A3E06406702E8E828F83A3A3A3A3B6
:10389300A3A3E0A2E0501F850882850983A3A3E0C8
:1038A300F9EEFAEFFB121D658E828F83A3A3A3A308
:1038B300A3A3E054FEF08009123B0222740D120808
:1038C300F27F0402067B74EC12041D74DD12096C92
:1038D300EAFEEBFF8C088D097437120B2E780C125D
:1038E3000AD1750A007405120B2EAC82AD83121D2A
:1038F300B97412120B2EE070087415120B2EE060CF
:10390300207405120B2EE0A2E6501E8E828F83A335
:10391300A3A3A3A3A3A3A3A3124DF1120FDFE960F3
:10392300087903121C93023AE87405120B2EE05433
:103933000C64047005750B018003750B00E0A2E5B0
:103943005035750A01E50BA2E0402C120F5B8A107B
:103953008B11A810A9111234F8E0687003A3E06971
:1039630060157405120B2E1266AF124DED121D7108
:10397300E96004790480AC7405120B2EE0A2E650D2
:10398300227406120B2EE0540370187405120B2ECA
:10399300E0540C640C600CE0540C64086005751072
:1039A3000180037510007405120B2EE05403F874A4
:1039B3000268700C1266AF124DED121489023AE8D8
:1039C300740168703AE510A2E05003123AF07405EE
:1039D300120B2EA882A9837403120B2EE8F0A3E91D
:1039E3001240D5851882851983123AFAE0C0E07433
:1039F30002120B2ED0E01237A1121E55023AE8E84C
:103A03006003023AE890035FE0640170108E828FD6
:103A130083A3A3A3A3A3A3E07003023976742212A2
:103A23000B2E74021240D5741A120B2E12371AE59C
:103A330010A2E050087405120B2E123AF0E50BA207
:103A4300E0506AEE240FF582EF125D73C0E0741745
:103A5300120B2ED0E0F09003141249777003023A50
:103A6300E8120F5B8A128B13A812A913741A120B94
:103A73002EE0687003A3E069706B780C1208BD78C0
:103A83000A1208C978081208C5A910740C120B2E63
:103A9300AC82AD837421120B2EAA82AB83900314E4
:103AA300123BF0121E7E74071208F28038780C1253
:103AB30008BD780A1208C978081208C59003751260
:103AC3000704EE2412F582EF125AA17423120B2E6F
:103AD300AC82AD83740E120B2EAA82AB83121D59D6
:103AE30074091208F274231208F202619B1266AF82
:103AF30012528C121DB322E8F0A3E9123B022212E8
:103B03003B0622F08E828F83A3A3A3A3A3A32274D5
:103B1300F712041D12171D02367774F712041D12D3
:103B2300172F023677C082C08312172902333A74E3
:103B3300F712041D12173502367774F712041D7439
:103B430009120B2EE0F50878081208C91217417400
:103B530001023674C082C08312174D02333AC08209
:103B6300C08312175302333A74F712041D12175904
:103B730002367774F712041DEAFEEBFF890874011D
:103B8300650870147900120D8790227FE493FC7905
:103B930000EEFAEFFB120CFD02367774F412041DEB
:103BA30074F912096CE9FE8A088B098C0A8D0B746F
:103BB30013120B2E124DF19005E51249776027EE93
:103BC300851882851983F07401120B2E7808120A66
:103BD300EFEAF8EBF97405120B2E12379D9005E509
:103BE300123BF0121E7E023798FB90034BE0F8A3C2
:103BF300E0F58388822274F712041D900DC7E0F963
:103C03007E00800B125D5F540D64017001190E126A
:103C13003DF35003E970ED02367774F712041D90FB
:103C23000DC8E0F97E00800B125D5F548D648170D6
:103C330001190E123DF35003E970ED02367774F269
:103C430012041D890BE975F006A4240CF508E5F0B0
:103C5300122E9C8A0CE508250CFAE5093400FB12A8
:103C630015A38A0C8B0DAE0CAF0DEE4F6027AC087D
:103C7300AD0979001215071234F8E50BF0EE2508AB
:103C8300F8EF3509F98E828F83A3A3A3A3A3A3A37C
:103C9300A3A312371AEEFAEFFB024BEC74F61204ED
:103CA3001DEAFEEBFF120CD9900DC6E0F8E9C398AC
:103CB3004009900345124DF1120CDFEE2402F8EF98
:103CC3001254019003471252BB900347E004F0EEF5
:103CD300FAEFFB120CE5850882850983E00258B7E9
:103CE300C082C0837900900345800109124DF18A97
:103CF300828B83E582458370F202333A74F71204B0
:103D03001DEAFEEBFFEE4F605690034512497760C4
:103D13004E888289837A007B00EE65827003EF65AB
:103D230083600FAA82AB83123D65E5824583602FD2
:103D330080E7900345123D71687002EF698E828FB0
:103D430083700812370E90034580031261AD12375A
:103D53001AEEFAEFFB121E25EEFAEFFB1215A9027B
:103D63003677123D69221240E58882898322124008
:103D7300E1EE22C082C08390034580048882898358
:103D8300124977600B88828983124429EC4D70ECC9
:103D93008A828B83E4F0A3F0E849600688828983F2
:103DA300800390034512368702333A74F712041DD9
:103DB30090034580048A828B83123DEE4B60257EFF
:103DC3000080010E123DF350ECEE75F006A4FCAD3D
:103DD300F0EA2CFCEB3DFDEC2410F582ED123E43A2
:103DE30070E180047A007B00023677125290EA2257
:103DF300123E4CEEC3982274F712041D7D0080011D
:103E03000D123E48EDC3985034ED75F006A4FEA89C
:103E1300F0E8FFEA2EFEEB3FFFEE2410F582EF12EF
:103E23003E4370DCED75F006A4FEE8FFEA2EFAEBE4
:103E33003FFBEA2411F582EB125D734CF0023677F7
:103E4300125D7F6922123E4C221266B9EB3400F5F3
:103E530083E0F82274F612041D120DFF7A007B0032
:103E63008025EAF8EBF9E875F006A4F8ACF075F0F4
:103E730006E9A42C12526512657AA3E412535BF08F
:103E8300A31265801266F7902269122B1B40D37A26
:103E9300007B00801C8A088B0974037808120A6D62
:103EA300124D19A374FEF0A30412513BA3E412664E
:103EB300F7902273123EF640DC7A007B00801D8A65
:103EC300088B0974037808120A6D740B1259EB748A
:103ED3000D12623274FEF0A3041266F79022791277
:103EE3003EF640DB90227DE493900353F0123F00B3
:103EF300023723E493F8C3EA98EB9400227CE87D2D
:103F0300037A107B009003C2E0F91216572274F073
:103F130012041D74F512096C8A088B09890A8C0B2B
:103F2300E9A2E050147508FC7509FFA2E15005D21F
:103F3300E4023FD3D2E3023FD3124BD87003A3E092
:103F430069700579000240A0AC0A7902AA08AB099E
:103F5300120DDBE960EDE50AF50C780C1208C9795E
:103F6300027CFE7DFFAA08AB091249531208F2E94D
:103F7300600302409EE50AC2E5F50A9003B5E070CE
:103F830051E50AA2E6404B7403120B2EAC82AD83BB
:103F9300AA08AB09120B7DE970321242748A0C8BAA
:103FA3000DA80CA90DE8FEE9FFE8496025EE2402FF
:103FB3000A0AEF12282B601AEE2402FCEF3400FDEC
:103FC3007403120B2EAA82AB83121CABE50AD2E553
:103FD300F50A900348E0F50C900368E0F50EA3E0C2
:103FE300F50F780E1208C57D017C00900348E0F9B7
:103FF300AA0EAB0F120D9374021208F2E9F89003A4
:1040030048E004F0E8600302409EE50AA2E550049C
:10401300740E80027406C0E07401120B2ED0E012FD
:1040230056CD8A0E8B0FAE0EAF0FEE4F6069124066
:10403300BE1240D5888289837401F07478550AA32F
:104043001266BFE50C1266BFA3E508F0E50912404E
:10405300ADE4F0E50AA2E5500F7403120B2EAC8217
:10406300AD83E824061240A48E828F83A3A374FD3C
:10407300F0A374FFF0E50B6015902280E493F8E55C
:104083000BC3985009EE24131256A0E50BF0EEFA79
:10409300EFFB120C1F80067910800279C7740B8026
:1040A30049FAE93400FB121CAB2288828983A3A35B
:1040B300A3A31240B922125434A322EE241712569A
:1040C300B17401F0120F55EE241A1256B1EAF0A39F
:1040D300EB22F01266B334001240DF22F583124064
:1040E300E522E0F8A3E0F922740D1208F27F08023A
:1040F300067B74F612041D7A007B10125BBB60080A
:104103009003D47401F08029900684E06401900E3A
:104113001B7006E0FC79018004E0FC79037A007BE4
:1041230000120CFD9022671241377A007B10124176
:104133004502372312413B22E493FC740193FD2291
:104143007B009003C2E0F91216512274EC12041D95
:104153008A088B098C0C8D0D890E7414120B2E1288
:104163004B327416120B2EE0F510A3E0F511120F6B
:10417300DFE960077AFF7BFF024271900E1AE06469
:104183000260030242647900AA08AB09120DE1A997
:104193000E120DD58A128B13AE12AF13EE4F7003AE
:1041A30002424C8E828F83A3A3A3A3A3E064018E58
:1041B300828F83A3A37069124DF18E828F83A3A391
:1041C300A3A3A3A3E05418604390227EE4938E82BA
:1041D3008F83A3A3A3A3F0EA650C7003EB650D60C3
:1041E30014EA650A7003EB650B600AEA6510700355
:1041F300EB6511701F78101208C5AC0AAD0BAA0C41
:10420300AB0D1210DB74021208F2800890036712E0
:104213005BA5A3F074FE6A700374FF6B601D804E90
:10422300A3A3A3E0640360298E828F83A3A3A3A324
:10423300A3E0640470057AFE0241798E828F83A322
:10424300A3A3A3A3E0640270089003B4E064027024
:10425300101242748B0BEA450B6006AA08AB098067
:104263000DAA08AB09900349123BF0121E7E0261AE
:104273009B90037512495912109F2274F712041D63
:10428300EAFEEBFF120BD1E9700AEEFAEFFB120B19
:10429300DDE96006EEFAEFFB80047AFE7BFF02366F
:1042A3007774F012041D8A0A8B0B8C0E8D0F89090B
:1042B300750800120FDFE97900600302441BAA0AA4
:1042C300AB0B120DE1A909120DD58A0C8B0DAE0CA7
:1042D300AF0DEE4F60198E828F83A3A3A3A3A3E038
:1042E300640270559003B4E064027003024419AA97
:1042F3000AAB0B90034F123BF0121E7E120BE38AA4
:104303000C8B0DA80CA90DE849700302441988828F
:104313008983A3A3A3A3A3E0A2E0400302441975E6
:104323000C01A2E150687901AC0AAD0BAA0EAB0FE8
:10433300120D2DE970640244198E828F83A3A3A307
:10434300A3A3E064037005750C0280528E828F83F1
:10435300A3A3A3A3A3E0640160030244199003751C
:104363001244298E828F8312477E8A0C8B0DA80CF0
:10437300A90DE84960D1902277E493FA8882898372
:10438300E0C39A50C2A3E0600302441980B9888253
:104393008983A3A3A3A3A3D2E1F0EE4F603A8E8255
:1043A3008F83A3A3A3A3A3A3E05418602B750801D1
:1043B3008E828F83A3A3120704750CFE750DFF78FD
:1043C3000C1208C57900AC0AAD0BAA0EAB0F120D87
:1043D300F374041208F2803E900368E0650E7004E3
:1043E300A3E0650F701490227FE493FCA909AA0A45
:1043F300AB0B120CFD750801801CA90CAC0AAD0BAC
:10440300AA0EAB0F120D2DE9700C750801A909AAAC
:104413000AAB0B120D87A9080240F0E50C2415F531
:1044230082E50D1256B41251112274EA12041D745E
:10443300F012096C8A0C8B0D8C088D097426120BF3
:104443002EE0F514A3E0F5157512069003F5124955
:10445300776023900375124429AA08AB091210C987
:104463008A108B11EA4511600D8A828B83A3E07059
:10447300057900024766E50C241DF50EE50D3400B1
:10448300F50F850E82124963F51388828983A3A3EE
:10449300A3E0FA88828983A3A3A3A3E0F9EA240013
:1044A300FEE439FFAA08AB09120D8D850E82850F34
:1044B300831247A1E029F50BE50AA2E55003751223
:1044C3000E7487550A70177418550A6418600FE53F
:1044D3000C2417F582E50D125D73651260077901EF
:1044E300121C93808C530A78C3EE94F8EF94FF5018
:1044F3001D7900EEFAEFFB12477060128882898300
:10450300A3A3A3A3A3A3E0541860030244747808ED
:104513001208C57D001247941208F2E9F874036883
:104523007003024474E860030245DF7418550A708F
:1045330003024694E50AD2E0F50AA2E45004D2E16C
:10454300F50AA90A124DEA124770605388828983DB
:10455300A3A3A3A3A3A3E05418604488828983A3DD
:10456300A3A3A3A3E064017036E510451160309066
:1045730003751244298882898312477E8A0E8B0F22
:10458300A80EA90FE849601788828983A3E0600F0A
:10459300851082851183A31258C25003024474E527
:1045A3000AF50E780E1208C91247871208F2E9704D
:1045B3002B7C007D0085148285158374FFF0A3F0A6
:1045C300850C82850D83A3A3A3A3A3A3A3A3E06068
:1045D3000312441EA90B124DEA1217478514828554
:1045E3001583E0F47003A3E0F460399003B4E0644E
:1045F300027003024474124B23E0FAA3E0123BEC73
:10460300121E7EEA65087003EB65096003024474B9
:10461300EEFAEF123BEC121E7E851482851583EAB7
:10462300F0A3EBF078081208C57D01124794120835
:10463300F2A90AEEFAEFFB120DE18A088B09A8082A
:10464300A909900368E0687003A3E0696003024767
:1046530057EEFAEFFB120BE38A088B09A808A909A6
:10466300E849606E88828983A3A3A3A3E064016001
:104673000D88828983A3A3A3A3E0640270548518E1
:1046830082851983AC82AD83EEFAEFFB120B7D803A
:1046930055900361E0600FE50AF50E780E1208C924
:1046A3001247871208F2E50AF50E780E1208C97947
:1046B300027CFE7DFFEEFAEFFB1249531208F2E98A
:1046C30060030245DF85148285158374FFF0A3021E
:1046D3004626120F55EAFCEBFD851882851983AA3D
:1046E30082AB83121CAB850C82850D83A3A3A3A38A
:1046F300A3A3A3A3E06401700F12441E7408120B5A
:104703002EAA82AB83121CAB12492D1255394430A9
:10471300F50878081208C97401120B2E85820885E2
:10472300830978081208C5740B120B2E858208853D
:10473300830978081208C5E513F50878081208C933
:104743007900EEFCEFFD124DEA120D2774061208F4
:10475300F202447412492D1256A31247A1E50BF03D
:10476300120F6D74101208F27F0E02067B120DD524
:104773008A0E8B0FA80EA90FE84922A3A312529009
:104783001210C9227901AC08AD091252851249539E
:1047930022AC0BA913125285120D937402221255E7
:1047A30041A3A3A3A32274F012041D74F012096C95
:1047B3008A0C8B0DECFAEDFB750F089003F512498B
:1047C3007760141258BB8A828B83E5824583600726
:1047D300A3E0700302492812492D3400124963F5FE
:1047E3000B88828983124936E0FBEC2400FEE43B0C
:1047F300FF88828983A3A3124936A3A3E0FBECF5C8
:1048030008E43BF50988828983A3A3A3A3A3A3A3F5
:10481300E0F50EE50AA2E45003750F10A2E5500679
:104823007408250FF50F748F550A700FE50C2417C4
:10483300F582E50D125D73650F60087901121C9313
:10484300024928530A707800E50AA2E4502212496B
:104853002D125D732408FCA3E03400FD7408120BD1
:104863002EAA82AB83121CAB7808E50AC2E4F50AD0
:10487300E50AA2E5502812492D125D7328F8A3E03A
:104883003400F9E82408FCE93400FD851882851911
:1048930083AA82AB83121CABE50AC2E5F50AAC0E10
:1048A300A90BEEFAEFFB120D99E9F8740368607532
:1048B300900368E06E7003A3E06F605EE87054E5F8
:1048C3000AF50F780F1208C91249441208F2E97069
:1048D30054780A1208C97401120B2E85820C858341
:1048E3000D780C1208C5740B120B2E85820C858370
:1048F3000D780C1208C5E50BF50A780A1208C9A948
:104903000EAC08AD09EEFAEFFB120D277406120880
:10491300F28012740468700D80B7780A1208C91205
:1049230049441208F274100240EDE50C241DF5828F
:10493300E50D22A3A3A3E0FC88828983A3A3A3A3F9
:10494300227901124B2A1256B412495912495322A1
:10495300120D51740122E0FCA3E0FDAA08AB092269
:10496300F583123D69A3E0F50A88828983A3A3E056
:10497300229003391252EC2274E812041D74F512CA
:10498300096CEAFEEBFF8C088D0989147423120B62
:104993002EE0F50F7424120B2EE0F512A3E0F513AD
:1049A3007426120B2EE0F516A3E0F5177428120BEC
:1049B3002EE0F50EA90F120D9F8A108B11740112B0
:1049C3000B2E7408F0E50EA2E450037410F0E50E0C
:1049D300A2E55004E02408F0851882851983AA8291
:1049E300AB83120FC78A0C8B0DEA450D7003024B84
:1049F3000AEA2417F582EB124B1C120F55E50C241F
:104A03001AF582E50D1256A31236877403120B2E84
:104A1300AC82AD83AA10AB11120B7DE9601D124B62
:104A2300147403120B2EA882A983E50C2418F582B3
:104A3300E50D1256A3E8F0A3E98024E50EA2E450A5
:104A43001FE5106E7003E5116F7015124B14E50C22
:104A53002418F582E50D1256A3E512F0A3E513F031
:104A6300124B23124B32850A82F5837402F0A3E5BD
:104A73000E124B3AE50FF0EE850A82850B83A3A352
:104A8300A3F0EF850A82850B83A3A3A3A3124B3A5A
:104A9300A3A3A3E508F0E509850A82850B83A3A3F5
:104AA300A3A3A3A3F0AA10AB11120D8DE9251485BE
:104AB3000A82850B83A3A3A3A3A3A3A3F075080072
:104AC300E50EA2E45011AC12AD13E50A2408FAE591
:104AD3000B1240A6750808E50EA2E55014AC16ADFE
:104AE30017E50A2508F8E50B3400F9E82408124015
:104AF300A4850C82850D83A3A3E510F0A3E511F033
:104B0300AA0CAB0D120C1F740B1208F27F100206D5
:104B13007BE50C2416F582E50D1256B47401F022E0
:104B2300124B2A1256B422E50C1266BAE50D22E0A6
:104B3300F50AA3E0F50B22F0850A82850B83A3A374
:104B43002274F212041D8A088B09ECFEEDFF890A18
:104B53007900124BD87003A3E06970047901807364
:104B6300750B01900368E065087004A3E0650960B4
:104B73001F750B00780B1208C9A90AEEFCEFFDAAFA
:104B830008AB0912101B74011208F2E9F50B8041FE
:104B93007900EEFAEFFB120DD5EA4B602B8A828B7C
:104BA30083A3A3A3A3A3A3E05418601C7508FE75F5
:104BB30009FF78081208C58A828B83A3A31207040E
:104BC3001264CF1208F280097901EEFAEFFB120C9E
:104BD300B5A90B8014120DE18A0C8B0DA80CA90D3D
:104BE300900368E068221208F27F0602067B74F4E1
:104BF30012041D75085375090B7A101261D78B0BBC
:104C0300EA450B7003123F00900353E014F0700C5D
:104C130090227DE493900353F0120DED7E007F000C
:104C2300806C850882850983A3A3A3A3E06059F45C
:104C33006056E5082404F582E509125B9F704985F7
:104C43000882850983A3A3A3A3A3E064037019794E
:104C53000285088285098312442985088285098390
:104C6300A3A3124DF1120D2D850882850983A3A3F9
:104C7300A3A3A3E06401601085088285098374FE01
:104C8300F0A304124D4BE4F0123042122E94902202
:104C93006B126333408C7E007F008039120EFB8ED3
:104CA300088F0974037808120A6D74CB2508FC7405
:104CB3000C3509FD7A397B0D120EE9EA4B70DD8E56
:104CC300088F0974037808120A6D124D1912657A58
:104CD300E4F0123042902273E493F8C3EE98EF9419
:104CE30000501B8E088F0974037808120A6D124D49
:104CF30021E82407F582E9125B9F70D680A17E002C
:104D03007F00800A124D2C600214F01230421263AD
:104D13003040F10238C4124D21888289832274CB3A
:104D23002508F8740C3509F922EEF8EFF9E875F067
:104D330006A4F8AAF075F006E9A42AF9746B28F51D
:104D430082740C39F583E022124D52A3A3A322F0FF
:104D5300850882850983A3A32274F712041D74E1D5
:104D630012096CECFEEDFF750800EE4F60728A824B
:104D73008B83E0241C125BD012497760638A828B99
:104D830083124DF1851882851983AC82AD83EA24A1
:104D93001BF582EB125AA1EA241CF582EB124DEDAE
:104DA300120F3D740B120B2E124DF57003A3E06925
:104DB300702E7402120B2EE064017024741D120B0A
:104DC3002E123BF0E064017017741D120B2E123B80
:104DD300F2A3A3E0F88E828F83E068700375080165
:104DE300A908741F023674124B2A3400F583125239
:104DF30090221227E9E0682274F412041DE970245A
:104E0300790090034D123BF0121E7E8A0A8B0BAE83
:104E13000AAF0B74FE6E700374FF6F701A90227AE0
:104E2300E4936013790190034D123BF0121E7E8AC6
:104E33000A8B0BAE0AAF0B120F8B02319674F6126C
:104E4300041D74F312096C1215138A088B09AE083A
:104E5300AF09900368E06E7003A3E06F60E9120F7F
:104E630061EA6E7002EB6F60DEEEFAEFFB120FDFAA
:104E7300E970D4EE4F60D0851882851983E4F0047D
:104E8300120B2EEEF0A3EF124EA3E970BA74FE6E6E
:104E9300700374FF6F60B0EEFAEFFB740D023720FE
:104EA3001237A5120B9522C082C083120F8B0233D7
:104EB3003A7F0A02067B74F212041DEAFEEBFF8CB2
:104EC3000A8D0B8908740E120B2EE0F50974FC6E23
:104ED300700374FF6F70057900024BEC7900120DBB
:104EE300E18A0C8B0DAE0CAF0D900368E06E70037E
:104EF300A3E06F7006E509A2E650DCA9091263BDC1
:104F0300706179007AFE7BFF1263BD705674185589
:104F1300097003024FF07800790080031229E390AF
:104F2300226B1229DA4003024FF0E8FAE9FBEA7533
:104F3300F007A4FAACF075F007EBA42CFB74592A24
:104F4300F582740B3BF583E0541870D0E875F007D5
:104F5300A4F8AAF075F007E9A42AF9745328F874A1
:104F63000B39F988828983A3A3A3A3A3A3E05418CD
:104F73006009741855097003024EDA88828983EE3A
:104F8300F0A3EFF074FE650A700474FF650B600311
:104F930012511788828983A3A3A3A3A3A3E509F0CE
:104FA300A2E0500D88828983A3A3A3A3A3A3D2E283
:104FB300F07401650888828983A3A3A3A3A370382F
:104FC300740112513BE05418602890227EE49388C8
:104FD300828983A3A3A3A31251051210C98B0DEADF
:104FE300450D6003024EDA780079008039790202B8
:104FF3004EDC900367E080D7E064017003024EDA71
:1050030088828983A3A3A3A3A3A3E0541860079072
:10501300227EE4938004900366E01240ADE508F03D
:10502300024EDA1229E3902274E493FAC3E89AE970
:1050330094004003024EDA7A007B00804BEAFCEBDB
:10504300FDEC75F007A4FCAEF075F007EDA42EFDA2
:1050530074552CF582740B3DF5831256BCE8FCE9BC
:10506300FDEC75F017A4FC85F00975F017EDA42588
:1050730009FD74E32CF58274093DF583E06E70033A
:10508300A3E06F609E122F1790226B122EA440ADE7
:10509300124137EC6A7002ED6B7088E875F017A463
:1050A300F8AAF075F017E9A42AF974E328FE740945
:1050B30039FF7C177D007900EEFAEFFB1215078E9E
:1050C300828F8312511D9003751250F7A3A3A3A3DC
:1050D300A3A3E8F0A3E91250FD7401F0EE240E122D
:1050E30056A074011251251202CCEE240D1256A0C3
:1050F300E8025022123509A3A322F0EE240F125620
:10510300B122F012510EAA0AAB0B22900375E0FCF8
:10511300A3E0FD2288828983A3A3E50AF0A3E50B1C
:10512300F022F012512A22902277E4932401F8E42A
:105133003400F97A027B00221240B9A32274ED12E3
:10514300041D8A088B09890E12526E4005790502E7
:10515300523C12178FAA08AB0912534090226912CE
:10516300523F650A7003E9650B70077AFE7BFF12F5
:105173005340902269E4125247E50A98E50B99409F
:105183000302523A12524B6012E50A75F006A4F874
:1051930075F006E50B1252961215A9E50E6018E597
:1051A3000A75F006A4F8AAF075F006E50B1252C2D0
:1051B300701A790102523CE50A75F006A4F8AAF0C8
:1051C30075F006E50B1252A3E4F0A3F0E50A75F0BF
:1051D30006A4F8AAF075F006E50B125263A3125564
:1051E3004F88828983A3AA82AB831252B18A828BAE
:1051F30083E0603F12524B603A8E108F117512009C
:1052030078101208C1E50EC333FCE433FDE50A75DB
:10521300F006A4F50AA8F075F006E50BA428F50B33
:10522300746F250AF582740C350B124DEF122EB5EF
:105233001208F27900800279070263D3122B3CE84B
:1052430022902261125D5A22E50A75F006A4F8AA9B
:10525300F075F006E50B12529EF8A3E0F9E8492237
:10526300A42A1253F788828983A322ECFEEDFF90D0
:105273002275E493F8E9C39822F58312529012152C
:10528300A922E50C1266BAE50D3400F583E0FAA312
:10529300E0FB2212529EFAA3E0FB221252A3E02269
:1052A300A42AF9746F28F582740C39F58322E50E6C
:1052B300F0900E1C1252BB22E088828983F02212E6
:1052C300541BF50CE93400F50DE50EC333FAE43352
:1052D300FB1215A3850C82850D83EAF0A3EBF08501
:1052E3000C82850D831252EC221240E5E8492274A8
:1052F300F412041DECFEEDFF740C120B2E12370E8C
:1053030088088909125340AC0AAD0BECF8EDF9900B
:1053130022691253485021E875F006A4F8AAF075E3
:10532300F006E9125263E08E828F8312535B1253AD
:105333005112371A7900800279040238C4120D63BE
:105343008A0A8B0B22122EADC3EC9AED9B221240DC
:10535300E1850882850983221254302274F61204EF
:105363001D7E007F008028EEF8EFF9E875F006A4B3
:10537300F8ACF075F006E9A42CF9746D28F5827485
:105383000C125FDE6A7003A3E06B605712304212A7
:10539300633040D312632B7002E96F704674FE6A68
:1053A300700374FF6B703C7E007F008003123042F9
:1053B300126330502E124D2C70F3EEF8EFF9E875AE
:1053C300F006A4F81253ED1254226017125409F890
:1053D300E9125401888212527C850882850983E48C
:1053E300F0A3F0EEFAEFFB02372375F006E9125350
:1053F300F522A42AF9746B28F8740C39F9223400C5
:10540300F98808890922EEF8EFF9E875F006A4F89F
:1054130075F006E912541B221253F5E8240422A363
:10542300A374FE12542D1252EC22F0A3041254342E
:1054330022F088828983A3A3A3A32274F612041DF6
:10544300EA241DF582EB125539F9604BEA241DF568
:1054530082EB125D732402FCA3E03400FD1252724E
:10546300400302552C780080298C828D83E0F50857
:10547300A3E0FFE5082400E43FF509E833FEE43345
:10548300FF74B32EF582740C3FF58312554F1255FA
:105493002F08E8C39940D28A828B83A3A3A3A3A333
:1054A300A3A3A3A3124429900368E06C7003A3E0B1
:1054B3006D700F7CB37D0C122752124DED120D57F8
:1054C3008067EA2411F582EB125D73605CFC74FF64
:1054D3002CF075080178081208C97508B375090C12
:1054E30078081208C5E9F50878081208C9EA2412F1
:1054F300F582EB125D73F50878081208C9EA2415E2
:10550300F582EB1256A3120704ECF9122752124448
:10551300268A828B83A3A3A3A3A3A3A3A3A3124D2E
:10552300F1120D6F74071208F2023723EC24020CF8
:105533000CED3400FD221256B4125541E022E0F87E
:10554300A3E0F5838882A32288828983E508F0A3F8
:10555300E509F02274EA12041D74FD12096C8A1421
:105563008B158C0E8D0F890D7419120B2E1256BCD0
:10557300741B120B2EE0F511741C120B2EE0F50CAC
:10558300741D120B2E124B32741F120B2EE0F510EA
:105593006008E50CC333240480027402C0E0740184
:1055A300120B2ED0E01256CD8A088B09EA450970FA
:1055B300030256988A828B83A3A3E514F0A3E5150F
:1055C3001261C6E50EF0A3E50FF0EA2413F582EBB2
:1055D3001256A3E50DF0EA2414F582EB1256A3E567
:1055E30011F0EA2417F582EB125D73640170401227
:1055F3000F5B8A0E8B0FA80EA90F8508828509837E
:10560300A3A3A3A3E0687003A3E0696022EE4F6045
:1056130011E508241AF582E5091256A3EEF0A3EF6B
:10562300800CE5082417F582E5091256A3E4F0126D
:1056330056A71256BC8E828F837405F0A3E51070B3
:1056430004E50C80487401250C1256C67A008028A4
:10565300850A82850B83E01256C2850A82850B83F5
:10566300A3E08E828F83F0E50A2402F50AE50B346A
:1056730000F50BA30EAF830AEAC3950C40D2120FB9
:105683005BEA1256C2120F5BEB8E828F83F0AA087D
:10569300AB09120C1F7403024768EE240CF582EF6A
:1056A3001256B4221227631256B422EE240BF5824B
:1056B300EF3400F58322900334E0FEA3E0FF228E53
:1056C300828F83F0A3AE82AF83221237A5120FC756
:1056D30022C082C083E9C333FCE433FDEA2CFAEB36
:1056E3003DFBEA24FEF582EB34FF124DEF02333A21
:1056F30074F212041D89098A0A12526E4004790059
:10570300804075080080020508E508C39509502A02
:10571300E508C333F8E433F9EE28F582EF39F5836E
:10572300C082C083120F5B8A0C8B0DD083D082E0C2
:10573300650C7004A3E0650D70CDE50A650870BEC5
:105743007901024BEC74F012041D74F312096C8A94
:10575300088B098C0A8D0B890C750D00120FDFE97C
:105763007900600302584AAA08AB09120DE1A90C9B
:10577300120DD58A0E8B0FAE0EAF0FEE4F700302D4
:1057830058488E828F83A3A3A3A3A3A3E0A2E240DE
:1057930003025848120F5BEA650A7003EB650B704E
:1057A30011780D1208C9E4F50EF50F780E1208C52D
:1057B3008044AA0AAB0B120BD7E964017068851801
:1057C300828519837404F07401120B2E12511D8506
:1057D3001882851983AA82AB83120B95E964017041
:1057E30045750D01780D1208C9E4F50EF50F780E15
:1057F3001208C5750D00780D1208C9780D1208C975
:105803007408120B2E85820E85830F780E1208C53D
:10581300902280E493F9AC0AAD0BAA08AB09120DF0
:105823006F74071208F28E828F83A3A3A3A3A3A38B
:10583300E0A2E1400D8E828F83A3A3A3A3A3A3C2FF
:10584300E2F0750D01A90D0240EB74F612041DE997
:10585300FE7900120DE1EEF9120DD58A088B09A825
:1058630008A909E8496006126701F9800279040270
:10587300372374F612041D7E0790035CE070341224
:1058830058BB8A088B09A808A909E8496025900331
:1058930061E0640188828983A3A3700B1258C288D4
:1058A3008289835001A3A3E0F91210E7E9FEEE70A9
:1058B300027E07EEF902372312510E1210C922E0BD
:1058C300FA88828983A3E0C39A2274EE12041DEA44
:1058D300FEEBFF890A8C0C8D0B7412120B2E123403
:1058E300FD1259971252755051890E750F007403AA
:1058F300780E120A6D74D1250EF582740C350FF5EE
:1059030083E0F8E50CC398502DE50B602475110076
:1059130074037810120A6D74CB2510F8740C3511CA
:10592300F988828983A3A3A3A3A3A3E50C1259A196
:10593300F07900024EB4790380F979007AFE7BFF97
:10594300125997E49365107004790280E6E50B60C1
:10595300E0890E750F007403780E120A6D74CB255F
:105963000EF8740C350FF988828983A3EEF0A3EF48
:105973001259A112513BE50C1240B574FF12658018
:10598300E50AF0900366E088828983A3A3A3A3A317
:10599300A3A3809C120DCFE9F51090227322126607
:1059A300C3A3E508F0A3E5092274F612041DECFF76
:1059B300120DCF9022731252755027890875090072
:1059C30074037808120A6D74D01259EB740C1262C6
:1059D30032E0F8EFC3985006EFF0790080067903C0
:1059E30080027904023723EA2508F5822274F4122F
:1059F300041DEAFEEBFF120DCFE9F50A90227312A4
:105A030052755019750B007403780A120A6D74CE1F
:105A1300250AF582740C350B124DEF801890034B59
:105A2300124977600CEEFAEFFB123BF3121E7E80F5
:105A3300047AFE7BFF0238C474F612041D8A828B3B
:105A430083A3A3A3A3A3E4F0F8800108902279E43D
:105A530093F9E8C399501E8808125A998C828D8352
:105A6300A3A3A3A3A3A3A3A3E06970DFECFAEDFBB5
:105A7300120F01801EE4936870198C828D83A3A397
:105A8300A3A3A3A3A3A3A37406F07A008C828D839C
:105A9300125BC402372374532508F582740D125D1B
:105AA3007FF92274F412041DEAFEEBFF8E828F83CA
:105AB300A3A3E014125BDBA3E0F9120EDD8A088BCB
:105AC30009EA45097003025B9C8E828F83A3A3E0DE
:105AD30070358A828B83A3A3A3A3A3A3A3A3A3E069
:105AE30064028A828B83A3A3A3A3A3A3A3A3A36018
:105AF300107406F07AF08508828B83125BC4025B14
:105B03009C7406F0025B9C8E828F83A3A3A3A3A342
:105B1300A3E060738E828F83A3A3A3A3E0607AEED6
:105B23002403F582EF125B9F706F900355125BA500
