:020000040000FA
:06000000020A280201B310
:03002B0002087355
:0300330002068F33
:0300430002072889
:030053000200E4C4
:03006B0002067515
:100083000201480101FF01010503010F10FEFF1EDC
:10009300131E131E131E13DA11D4111E138D1F000A
:1000A3000000005120000000000C0000000C0001C3
:1000B300FFFF010200AA050000001D066400020202
:1000C30000000002050207051E02051E020A0A03BC
:1000D300B80B02803E0102F1FF1496511800020290
:1000E30006C0E074F21203CCA2AFE433FED2AFE554
:1000F300A7FFE5A1F5085F54106006121A6275A107
:10010300EFE5085F54086008121A6875A1F7802BA1
:10011300EFA2E0C0D0E508A2E092F012094F1581EA
:1001230082F05017906198E0F89008FAE0C398A223
:10013300D265D0335002E8F075A1FEEEA2E092AF93
:100143007F0102042BC0E074F21203CCA2AFE433AC
:10015300FED2AF9061A4E0F8759B00E59158540876
:1001630060087591F7121AB0802AE591585410600F
:10017300087591EF121AB6801BE8A2E0C0D0E59192
:10018300A2E092F012094F158182F05007E0C2E01D
:10019300F0121BFA9061A3E0F8E5E9585404600EED
:1001A300121BD075E9FB906193E0A2E640F2808BCD
:1001B300C0E074F21203CCA2AFE433FED2AF90617D
:1001C300A5E0F8E5BF585404600675BFFB121C1286
:1001D30002013EC3E498F8E499F91202178026C39A
:1001E300E49AFAE49BFBE920E7E9120217E498F8A2
:1001F300E499F922C3E498F8E499F9120217E49810
:10020300F8E499F9C3E49AFAE49BFB22EB20E7CFE5
:10021300E920E7E0B90010BB0008E88AF084F8AAF7
:10022300F022E4FBC8FA22EB70227B10C833C8C962
:1002330033C9335007C39AC3DBF280069A50012AAD
:10024300DBEAC833F4C8C933F4C9FA2275F008E409
:10025300C833C8C933C933C99AC99B5004C92AC909
:100263003BD5F0ECFBC833F4C8E4C9FA220808080C
:10027300EAC0E0EBC0E086F0E7A4FA180986F0E7ED
:10028300A42AFA180986F0E7A42AFA180986F0E7DF
:10029300A42AFA1986F0E7A4FBE5F02AFA190886DE
:1002A300F0E7A42BFBE5F03AFA190886F0E7A42B54
:1002B300FBE5F03AFA18180986F0E7A4C5F02BFB22
:1002C300E43AFA1908E7C5F0C6A426F6E5F03BFBC5
:1002D300E43AFA1886F0E7A4F6E5F00826F6E43BDC
:1002E30008F6E43A08F6D0E0FBD0E0FA22E4CFC007
:1002F300E0E4CEC0E0E4CDC0E0E4CCC0E075F020A3
:10030300C3E633F608E633F608E633F608E633F6D3
:10031300181818EC33FCED33FDEE33FEEF33FFC357
:10032300EC9709ED9709EE9709EF97191919400F03
:10033300FFEC97FC09ED97FD09EE97FE191906D519
:10034300F0BEECF709EDF709EEF709EFF719191904
:10035300D0E0FCD0E0FDD0E0FED0E0FF222518C5C0
:1003630082C0E0E51934FFC583C0E0E518C3958278
:1003730024F810AF088583198582188008858319AE
:10038300858218D2AFCEF0A3E520F0A37808E60863
:10039300F0A3DEFAEFF0A3E58124FAF8E608F0A370
:1003A300E608F0A3E608F0A30808E608F0A3E608C9
:1003B300F0A315811581D0E0FED0E0F815811581F9
:1003C3001581E8C0E0EEC0E022C0D02518C582C088
:1003D300E0E51934FFC583C0E0E518C3958224F333
:1003E30010AF088583198582188008858319858253
:1003F30018D2AFC8F0A3E9F0A3EAF0A3EBF0A37916
:1004030008E709F0A3D8FAECF0A3EDF0A3EEF0A30C
:10041300EFF0A3D0E0F0A3D0E0F0A3D0E0F0A3E5A9
:1004230020F0A3E5F0F0A322851983851882E0C0AC
:10043300E0A3E0F9A3E0FAA3E0FBA37808E0F60861
:10044300A3DFFAE0FCA3E0FDA3E0FEA3E0FFA3E04B
:10045300C0E0A3E0C0E0A3E0F5D0A3E0F520A3E073
:10046300A3F5F010AF08858319858218800885836A
:1004730019858218D2AFD082D083D0E0F8D0E03291
:10048300120A8AB900030204C5E490030178C17912
:100493000C8002F0A3D8FCD9FA900EC1AA82AB83D8
:1004A300900086785F79018015E493A3AC82AD83D5
:1004B3008A828B83F0A3AA82AB838C828D83D8E953
:1004C300D9E77582277583E074031207EB7582946D
:1004D30075831E74001207EB0975F0108E1A8F1BBB
:1004E30085821F85831E851882851983E0CEA3E04C
:1004F300CF851F82851E83EBC9EAC8EDCBECCAC347
:10050300E833C8E933C9EA33CAEB33CBC3EA9EF510
:100513001DEB9FF51CB35004AB1CAA1DEC33CCEDB3
:1005230033CDD5F0DAAE1AAF1B22D083D082ECC024
:10053300E0EDC0E0E493A3FCE493A3FDED4C600D78
:10054300120605EC24FFFCED34FFFD80EFE493A3DA
:10055300FCE493A3FDED4C600D1206D3EC24FFFCE9
:10056300ED34FFFD80EFD0E0FDD0E0FCE493A3C0C9
:10057300E0E493C0E022851983851882E0A3FEE0BE
:10058300A3F5207808E0A3F608DFFAE0A3FFE0A3D1
:10059300C0E0E0A3C0E0E0A3C0E0E0A3C0E0E0A3CC
:1005A300C0E010AF088582188583198008858218FA
:1005B300858319D2AFD083D0820207F1D083D08252
:1005C300E9C0E0E493A3C386F0C5F095F0F908E42D
:1005D30093A386F0C5F095F0700BE493A3C3994001
:1005E30005E9048002A3E475F002A42582F582E5FF
:1005F300F03583F583D0E0F9E493A3C0E0E493C03E
:10060300E022C0E0C3E49396087401939618400F68
:10061300E49366700808740193661870007019A358
:10062300A3C3E49396087401939618A3A3400DD033
:10063300E0D0E0D0E0020569A3A3A3A3A3A3D0E085
:10064300227404800474028000CCC0E0EDC0E0E5B5
:1006530018C39CCCAD1950011D10AF068C188D1911
:1006630080068C188D19D2AF12076DD0E0FDD0E053
:10067300FC22C0E074F21203CCE589A2E15003121C
:100683001972758900C2C57F0102042BC0E074F2A0
:100693001203CCE58BA2E05003121972758B00C2D2
:1006A300E880E474028000CCC0E0EDC0E0E518C34C
:1006B3009CCCAD1950011D10AF068C188D19800606
:1006C3008C188D19D2AF12074BD0E0FDD0E0FC227D
:1006D300C0E0C0F088F0E493667008087401936684
:1006E300187000A8F0A3A3700BD0F0D0E0D0E0D036
:1006F300E0020569A3A3D0F0D0E022D083D082CC5E
:10070300C0E0E493A360061207AD1470FAE493A368
:1007130060061208BD1470FAD0E0FCE493A3C0E0B5
:10072300E493C0E022C0E074F21203CCA2AFE4333E
:10073300FED2AFC2C0E5D1A2E450031219E4EEA287
:10074300E092AF7F0102042BCAC0E0E493A3C58209
:10075300CCC582C583CDC583F0A3C582CCC582C574
:1007630083CDC583DAE5D0E0CA22CAC0E0E0A3C5E1
:1007730082CCC582C583CDC583F0A3C582CCC58297
:10078300C583CDC583DAE6D0E0CA2270090808081C
:10079300226016181818C6C333C608C633C608C65F
:1007A30033C608C633C6D5E0EA22C0E0E493A3D338
:1007B3009C5010E493A3C39C400AD0E0D0E0D0E067
:1007C30002071BA3A3A3D0E022C008C3E096F50849
:1007D30008A3E096420808A3E096420808A3E0961F
:1007E30045087001D3D00822C09FF59FE473D09FC2
:1007F30022D083D082C09FE493C0E0740193C0E011
:10080300740293F59F222518F58210AF08F518405E
:100813000215198008F51840021519D2AF851983FE
:10082300227404800A74038006740280027401C077
:10083300E0F404120809D0E0120A6522C0D025189A
:1008430010AF08F518500205198008F51850020575
:1008530019D2AFD0D022BB0102E722C082C0838964
:10086300828A83BB0003E08002E493D083D0822298
:10087300C0E0C0D0E8C0E0E5A8D2AFC2C7A2E7920B
:10088300AFD0E0F8D0D0D0E0326016080808C6C375
:1008930013C618C613C618C613C618C613C6D5E0A2
:1008A300EA22C3E0C696F608A3E0C696F608A3E0DC
:1008B300C696F608A3E0C696F622C0E0E493A36CBE
:1008C3007009D0E0D0E0D0E002071BA3A3D0E02260
:1008D300251810AF08F518400215198008F51840BF
:1008E300021519D2AF22E76670100809E766700A8D
:1008F3000809E76670040809E76622E066701008D5
:10090300A3E066700A08A3E066700408A3E0662209
:10091300C3E09608A3E09608A3E09608A3E096A296
:10092300D265D03322C3E096F008A3E096F008A383
:10093300E096F008A3E096F022E026F008A3E03664
:10094300F008A3E036F008A3E036F022C0E0E8C0E8
:10095300E0E58124FCF8E6A2E7D0E0F8D0E022E667
:1009630047F60809E647F60809E647F60809E647A1
:10097300F622E026F608A3E036F608A3E036F608EA
:10098300A3E036F622E627F60809E637F60809E675
:1009930037F60809E637F622E657F60809E657F66A
:1009A3000809E657F60809E657F622E056F608A3C3
:1009B300E056F608A3E056F608A3E056F622E05602
:1009C300F008A3E056F008A3E056F008A3E056F0C1
:1009D30022700422600D18C6C333C608C633C6D5B9
:1009E300E0F41822E4C396F608E496F608E496F6D3
:1009F30008E496F622C6F4C608C6F4C608C6F4C6CA
:100A030008C6F4C622C3E7960809E7960809E796DD
:100A13000809E79622C3E09608A3E09608A3E096A8
:100A230008A3E0962275D0007581407518017519E9
:100A33000300020483E0F608A3E0F608A3E0F60847
:100A4300A3E0F622600C08C6C313C618C613C6D5A6
:100A5300E0F422E6F008A3E6F008A3E6F008A3E634
:100A6300F022CAC0E0E6F0A308DAFAD0E0FA22E006
:100A7300FAA3E0FBA3E0FCA3E0FD22EAF0A3EBF082
:100A8300A3ECF0A3EDF022E5C754F84401F5C779D0
:100A930001222518F582E43519F58322C2AF75D6F4
:100AA3009F020000221207F4A9DF021207F4DEDF1F
:100AB300021207F4C0E0021207F475E1021207F410
:100AC300CAE3021207F417E5021207F4BAE50212A9
:100AD30007F409E7021207F427E7021207F4A12239
:100AE300001207F4D622001207F4FC22001207F4C6
:100AF3003623001207F44823001207F49A23001246
:100B030007F4FB23001207F48524001207F42925B8
:100B1300001207F47125001207F4AB25001207F445
:100B2300C825001207F4ED25001207F43F26001232
:100B330007F45826001207F47E26001207F4B9269C
:100B4300001207F4FD26001207F42427001207F40D
:100B53007527001207F42528001207F4DD28001278
:100B630007F4A529001207F4652A001207F4A92A3D
:100B7300001207F4CE2A001207F4112B001207F417
:100B83005E2B001207F4B62C001207F43C2D001262
:100B930007F45A2D001207F4842D001207F49E2D3A
:100BA300001207F4AD2D001207F4B82D001207F45C
:100BB300782E001207F4D12E001207F4932F00129F
:100BC30007F49B2F001207F41F30001207F465305F
:100BD300001207F4A630001207F43632001207F4AD
:100BE300EE32001207F45A33001207F48534001270
:100BF30007F4AA34001207F42035001207F4B235C3
:100C0300001207F47236001207F49136001207F44B
:100C1300A037001207F4B237001207F4223800128B
:100C230007F44C38001207F4E238001207F41B39BA
:100C3300001207F46739001207F4833A001207F42D
:100C4300CC3C001207F4D73C001207F4E23C00123C
:100C530007F4ED3C001207F4F73C001207F4023DE1
:100C6300001207F41C3D001207F4263D001207F49E
:100C7300303D001207F43B3D001207F4633D0012C0
:100C830007F4BE3D001207F4C83D001207F4EC3D23
:100C9300001207F4103E001207F46E3E001207F430
:100CA300B23E001207F4CE3E001207F4453F001295
:100CB30007F47D3F001207F4C93F001207F42640F2
:100CC300001207F4E040001207F4C442001207F4D4
:100CD3001D43001207F44D44001207F4734400123D
:100CE30007F4FC45001207F47849001207F44A4B55
:100CF300001207F4134D001207F4C04D001207F45D
:100D03002B4F001207F4CA4F001207F417500012BA
:100D130007F48150001207F49050001207F41753A0
:100D2300001207F4C954001207F43655001207F4F1
:100D33001556001207F42E57001207F4AB58001291
:100D430007F4CA58001207F41F59001207F4245A73
:100D5300001207F44C5A001207F4A45A001207F4C5
:100D6300835B001207F4C75B001207F4125C0012E6
:100D730007F47D5C001207F4BE5D001207F4225EE7
:100D8300001207F4705F001207F4D061001207F439
:100D93000162001207F4B963001207F40E64001233
:100DA30007F41265001207F4AF65001207F4086632
:100DB300001207F4BB66001207F45D67001207F424
:100DC300FD67001207F4A268001207F45E800112A7
:100DD30007F49D80011207F4E482011207F42E83C5
:100DE300011207F44984011207F4B184011207F4D4
:100DF300E684011207F45A86011207F4DD88011212
:100E030007F4068A011207F49C8A011207F4A493DB
:100E1300011207F43994011207F42097011207F421
:100E23001398011207F48198011207F4C79901126C
:100E330007F4A99A011207F48E9C011207F49F9EEE
:100E4300011207F4099F011207F4DB9F011207F453
:100E530009A0011207F4C6A0011207F49DA1011213
:100E630007F464A2011207F408A3011207F431A3E3
:100E7300011207F453A3011207F4A9A5011207F401
:100E830081A6011207F4C5A6011207F42DA70112CA
:100E930007F4E5A7011207F417A8011207F45BA8EA
:100EA300011207F491A8011207F4DDA8011207F457
:100EB30032A9011207F437A9011207F48AA9011212
:100EC30007F4AFA9011207F4BEAA011207F422AB7B
:100ED300011207F492AB011207F41EAC011207F4DE
:100EE300EBAE011207F4CFAF011207F452B10112B6
:100EF30007F488B3011207F436B4011207F4E6B419
:100F0300011207F427B7011207F4CAB7011207F455
:100F130011B8011207F4BDB9011207F4D1B90112D6
:100F230007F4DBB9011207F403BA011207F40FBA8D
:100F3300011207F42EBA011207F422BC011207F4BE
:100F43007DBC011207F4C7BC011207F4CFBD011227
:100F530007F426BE011207F475BF011207F4B9BFE7
:100F6300011207F461C0011207F444C1011207F42E
:100F7300EFC1011207F43BC3011207F439C4011294
:100F830007F4DFC4011207F46FC5011207F486C525
:100F9300011207F4BDC5011207F4C7C5011207F416
:100FA300D2C5011207F4F0C5011207F434C60112C9
:100FB30007F491C6011207F4B6C6011207F4D0C6AE
:100FC300011207F45CC7011207F479C8011207F490
:100FD300E6C8011207F4CDC9011207F4F4C90112DE
:100FE30007F468CA011207F4E3CA011207F4E7CB56
:100FF300011207F4DDCC011207F48CCD011207F4C2
:101003009FCE011207F43BCF011207F4C8CF0112A0
:1010130007F4A6D0011207F4DED0011207F436D18B
:10102300011207F4FFD1011207F420D2011207F4D1
:10103300A7D2011207F4CBD2011207F4EDD20112A9
:1010430007F436D3011207F44CD5011207F433D653
:10105300011207F4E4D6011207F41AD9011207F4B6
:101063006AD9011207F4AAD9011207F4ECD90112C3
:1010730007F448DA011207F476DA011207F49ADA70
:10108300011207F4EDDA011207F41BDB011207F476
:1010930054DB011207F4A9DB011207F40FDC011280
:1010A30007F463DD011207F486DF011207F4F3DFAF
:1010B300011207F41CE0011207F4A7E0011207F480
:1010C3000EE1011207F459E1011207F47DE1011267
:1010D30007F4A1E1011207F4FCE1011207F417E29E
:1010E300011207F4D0E2011207F4F5F0031207F43A
:1010F30034F1031207F47880021207F4BE8002125F
:1011030007F49E81021207F4A082021207F4A3835C
:10111300021207F42F85021207F48D85021207F4D9
:101123004A86021207F46887021207F4D98702126B
:1011330007F41588021207F46388021207F46D8816
:10114300021207F4B188021207F40D89021207F4A0
:10115300A889021207F4258A021207F4F48A0212FC
:1011630007F48D8B021207F4AD8B021207F4E38BA5
:10117300021207F4148C021207F4D58C021207F43E
:10118300E58C021207F4398D021207F4548D021212
:1011930007F4668D021207F46F8D021207F4C98DEE
:1011A300021207F4258E021207F4718E021207F45D
:1011B3008C8E021207F4BD8E021207F4DA8E02122D
:1011C30007F4E68E021207F45A90021207F47390A2
:1011D300021207F4DA90021207F4ED90021207F4F8
:1011E300FB90021207F4AF91021207F493920212DA
:1011F30007F49993021207F42394021207F42D942F
:10120300021207F49A94021207F4B194021207F43B
:10121300E394021207F41C95021207F44695021296
:1012230007F4A795021207F4C795021207F4E59590
:10123300021207F42B96021207F45197021207F4D5
:101243009E97021207F4CD97021207F443980212F5
:1012530007F46B98021207F4A498021207F4B298E9
:10126300021207F40A99021207F45999021207F4B9
:101273009899021207F4C899021207F4F49902121A
:1012830007F4FF99021207F41D9A021207F4DF9A7A
:10129300021207F4E99A021207F42A9B021207F4D6
:1012A3007F9B021207F4939B021207F4A19C021284
:1012B30007F4B49C021207F4C99C021207F46B9D55
:1012C300021207F4EE9D021207F4AC9E021207F419
:1012D300B79E021207F4E39F021207F4FF9F021264
:1012E30007F451A0021207F490A0021207F4A5A07C
:1012F300021207F407A1021207F496A1021207F4DF
:10130300E1A1021207F432A4021207F4B0A40212FC
:1013130007F425A5021207F447A7021207F45FA7F3
:10132300021207F462A7021207F46EA7021207F46F
:1013330082A7021207F48AA7021207F4BDA70212BA
:1013430007F46DA8021207F4E3A8021207F456A9E2
:10135300021207F40AAA021207F4BFAA021207F440
:10136300DEAA021207F484AB021207F4AFAB021237
:1013730007F4B2AB021207F41CAC021207F444AD3B
:10138300021207F41CAE021207F4A7AE021207F40E
:10139300C0AF021207F47DB0021207F4B6B0021216
:1013A30007F4E7B0021207F4A5B1021207F4D5B1AE
:1013B300021207F4B0B2021207F449B3021207F49F
:1013C300D4B3021207F485B4021207F408B502126B
:1013D30007F43AB5021207F47BB5021207F4D19968
:1013E300031207F4369A031207F4739A031207F4ED
:1013F30089D6021207F4D89C031207F4BB9E03128A
:1014030007F425A2031207F460A2031207F482A2D1
:10141300031207F4E5A2031207F419A3031207F456
:101423003CA3031207F469A3031207F4C5A3031231
:1014330007F40C8E031207F48A8E031207F4C08E8E
:10144300031207F42C8F031207F475DF021207F45B
:10145300BB90031207F40091031207F48E91031259
:1014630007F4E791031207F41493031207F4269485
:10147300031207F48394031207F4EF94031207F49F
:101483005095031207F49195031207F43E96031245
:1014930007F45097031207F47B97031207F4C697D8
:1014A300031207F40D98031207F49F98031207F42D
:1014B3005A99031207F4D4FC011207F49DFD01129B
:1014C30007F4EAFD011207F4ACFF011207F4F4FF7D
:1014D300011207F457B2031207F4A3B2031207F47D
:1014E30011B3031207F432B3031207F4E2B3031286
:1014F30007F4EBB3031207F43EB4031207F467B423
:10150300031207F4CEB4031207F45FB5031207F412
:10151300A1B5031207F4EBB5031207F44AB603129D
:1015230007F476B6031207F407B7031207F446B7B6
:10153300031207F485B7031207F4BAB7031207F4CB
:10154300CCB7031207F4DEB7031207F4FDB7031297
:1015530007F406B8031207F4BCB8031207F4FCB887
:10156300031207F405FF021207F4AAF0031207F4AB
:10157300F5DD031207F42BDE031207F474DE031206
:1015830007F4C4DF031207F4EE68001207F42D6AB0
:10159300001207F4696A001207F4286C001207F4BA
:1015A300516C001207F4E46E001207F4286F001266
:1015B30007F4B170001207F44971001207F4B17116
:1015C300001207F45272001207F49472001207F427
:1015D300D472001207F45F74001207F4CF7500127F
:1015E30007F4F477001207F42278001207F449781D
:1015F300001207F45278001207F4D978001207F4A6
:10160300F77B001207F416F2031207F42CF203120D
:1016130007F435D3031207F448D3031207F4E5D3D1
:10162300031207F420D4031207F43BD4031207F484
:1016330060D4031207F4A5D4031207F4D6D403121B
:1016430007F407D5031207F48DD6031207F4DDEE72
:10165300031207F41AEF031207F45CEF031207F403
:101663006CEF031207F40080031207F45580031292
:1016730007F44E81031207F41E82031207F4338228
:10168300031207F47D82031207F4DA82031207F4CC
:10169300ED82031207F43783031207F44B8303121B
:1016A30007F47D83031207F47B84031207F4C484D5
:1016B300031207F4D384031207F42285031207F4F9
:1016C3003885031207F44F85031207F47E8503124E
:1016D30007F49785031207F43086031207F48A860A
:1016E300031207F4D886031207F4FA86031207F4E9
:1016F3007189031207F4A689031207F4398A0312C6
:1017030007F4B18A031207F4BD8A031207F4F98AB6
:10171300031207F44F8B031207F43E8C031207F4F2
:10172300638C031207F46D8C031207F47C8C031291
:1017330007F4058D031207F4208D031207F4428D7D
:10174300031207F47D8D031207F48C8D031207F443
:10175300978D031207F4D38D031207F45DF0031280
:1017630007F475F0031207F411A4031207F460A43D
:10177300031207F402A6031207F4BEA7031207F429
:1017830006A8031207F4EEA8031207F41FAA031214
:1017930007F441AA031207F49DAA031207F421AB2D
:1017A300031207F40AE3011207F42BE3011207F40F
:1017B300A8E3011207F42DE4011207F4A9E40112CE
:1017C30007F412E5011207F45EE5011207F4DDE503
:1017D300011207F46FE6011207F4FBE6011207F4A6
:1017E3003DE7011207F486EB011207F406ED01123F
:1017F30007F4DCED011207F40BEE011207F4F6EF28
:10180300011207F476F2011207F42FF3011207F421
:101813004CF4011207F4A3F7011207F4B3F7011212
:1018230007F414F9011207F4A0F9011207F4C9FA35
:10183300011207F4BAFB011207F43CFC011207F48E
:101843004EE7021207F408E8021207F47AE80212DC
:1018530007F416E9021207F486E9021207F43FECD3
:10186300021207F416ED021207F483ED021207F4D5
:1018730000EF021207F4CAEF021207F43AF0021261
:1018830007F403F2021207F416F3021207F4AFF39C
:10189300021207F475F4021207F46EAB031207F495
:1018A300C2AB031207F40EAC031207F459AC0312D4
:1018B30007F499AC031207F4E9AC031207F45FAE23
:1018C300031207F412AF031207F455AF031207F420
:1018D3006BAF031207F4C3AF031207F411B0031283
:1018E30007F438B0031207F4A3B0031207F4A6B148
:1018F300031207F432E2031207F463E2031207F45C
:101903001DE3031207F483E3031207F4A6E00312B3
:1019130007F4EBF1031207F4FCF1031207F40CE4F0
:10192300031207F41AE4031207F436F2031207F45E
:1019330076EF031207F486EF031207F4A1EF031205
:1019430007F402F0031207F43BED031207F4C0EDB2
:10195300031207F424EE031207F429EC031207F42D
:101963004BEC031207F4B5EC031207F4C0EC0312BB
:1019730007F404ED031207F4C4E5031207F4D2E5F8
:10198300031207F4F7E5031207F414E6031207F44E
:1019930031E6031207F456E6031207F48AE603124C
:1019A30007F4ABCF031207F4B9CF031207F433D014
:1019B300031207F417D1031207F4D0D2031207F46A
:1019C300D8FF021207F453C7031207F4C0C7031268
:1019D30007F486C8031207F48FC9031207F407CB71
:1019E300031207F46BCB031207F4C0CB031207F403
:1019F300C9CB031207F4D8CB031207F4EECB0312BF
:101A030007F4E2BD031207F437BE031207F433C031
:101A1300031207F465C0031207F487C0031207F427
:101A2300A0C0031207F4B9C0031207F4C3C1031221
:101A330007F45EC2031207F449E7031207F46DE7E4
:101A4300031207F486E7031207F4B9E7031207F456
:101A5300EAE7031207F418E8031207F47AE803121B
:101A630007F489E8031207F493E8031207F4A0E8E4
:101A7300031207F4A4D6031207F4CAD6031207F419
:101A830007D7031207F416D7031207F435D7031247
:101A930007F49DD7031207F4A6D7031207F405D85A
:101AA300031207F429D8031207F4E8D8031207F442
:101AB300F5D8031207F406D9031207F482F10312CF
:101AC30007F49FF1031207F4D5C2031207F433C4DA
:101AD300031207F440C4031207F453C4031207F4B8
:101AE30072C4031207F488C4031207F49CC40312DC
:101AF30007F411C5031207F476C5031207F426C6CB
:101B0300031207F4FBC6031207F40BC7031207F40F
:101B13001AC7031207F444EE031207F468EE031224
:101B230007F490EE031207F4B8EE031207F434D966
:101B3300031207F45BD9031207F47CD9031207F4E9
:101B4300E1D9031207F49ADB031207F4B3DB0312A0
:101B530007F4BFDB031207F4D3DB031207F4F1DB53
:101B6300031207F4FBDB031207F405DC031207F48B
:101B730018DC031207F46BDC031207F4A2DC031274
:101B830007F4D1DC031207F41FDD031207F46EDD43
:101B9300031207F489DD031207F493DD031207F43C
:101BA300A4DD031207F4EADD031207F40CF00312B9
:101BB30007F4C9F5021207F4F3F5021207F40FF65E
:101BC300021207F422F6021207F438F6021207F49F
:101BD30095F6021207F4C8F6021207F404FB021288
:101BE30007F42AFC021207F45DFC021207F4A9FCB5
:101BF300021207F4D5FD021207F4FDFD021207F4E9
:101C030012FE021207F422FE021207F466FE02120B
:101C130007F4C7FE021207F4D7FE021207F4E3E942
:101C2300031207F4FEE9031207F427EA031207F489
:101C330041EA031207F466EA031207F485EA031282
:101C430007F49DEA031207F4CBEA031207F4E5EA6B
:101C5300031207F43EF1031207F4787C001207F431
:101C63007F7C001207F48B7D001207F4BB7D00120A
:101C730007F4E17D001207F4047E001207F4267EC8
:101C8300001207F4607E001207F4C67E001207F408
:101C9300FF7E001207F44B7F001207F4787F0012D7
:101CA30007F4987F001207F4AAE8031207F4C2E8C6
:101CB300031207F4DDE9031207F4E0E9031207F462
:101CC30016EB031207F488EB031207F4C6EB0312B7
:101CD30007F407EC031207F4F7CB031207F416CC4F
:101CE300031207F465CC031207F481CC031207F443
:101CF300B2CC031207F4BFCC031207F4CCCC03120B
:101D030007F4B8CD031207F4F6CD031207F406CF98
:101D1300031207F411CF031207F423CF031207F4BE
:101D23002CCF031207F436CF031207F425B903129D
:101D330007F46ABD031207F478BD031207F4BEF17A
:101D4300031207F4DDD5021207F423D4021207F4B9
:101D5300D3D1021207F45AD1021207F401D10212AD
:101D630007F491D0021207F468D0021207F448CEA8
:101D7300021207F414CE021207F4E1CD021207F4A3
:101D8300C5CD021207F4DECC021207F496CC021280
:101D930007F4E1CA021207F461CA021207F45ECA29
:101DA300021207F45BC9021207F429C9021207F4ED
:101DB30066C8021207F491C6021207F422C6021281
:101DC30007F4F4C5021207F459DF021207F4F9DE2F
:101DD300021207F4B1DE021207F4FFDD021207F468
:101DE30071DD021207F4F1C5021207F4DEC5021217
:101DF30007F489C5021207F464DD021207F478C5FB
:101E0300021207F46AC4021207F434C4021207F47C
:101E1300E2C3021207F45EDA021207F49F90031280
:101E230007F483C3021207F452C3021207F41AC061
:101E3300021207F4DABF021207F4CEBF021207F44C
:101E43002EBF021207F46EBE021207F4F0BB021299
:101E530007F481B9021207F43FB9021207F413B869
:101E6300021207F4C8B7021207F404B7021207F408
:101E7300D7B6021207F41AB6021207F4B0B502126B
:101E830007F4EAB5021207F4C0D7021207F4C29AA4
:101E93000300000080FBE4730001363601010001FA
:101EA300020100010301000104010606050200000E
:101EB300070100340801000F090401010D0100FFAF
:101EC3000E08000017020000190100FF1A010001AB
:101ED3001B0100FE1C0100081D0200001F01000180
:101EE30020010001210200002301000F2402000051
:101EF3002601000127010008280200FF2A0100072C
:101F03002B0102402C0100002D0100012E010001D4
:101F13002F0100FF30010B1C310800003A010008BB
:101F23003B01000F2F010000030271023001600228
:101F33001102700201020202020280021002610217
:101F43003A0041006302730272026202430200021A
:101F5300130238000002000204021202000200020F
:101F63000002000204020402370037003C0244026C
:101F730000023900000200026502000235028102FC
:101F83000002050282028302000203007100300195
:101F93006000110070003102200350048000100023
:101FA30061000000140063007300720062004300CC
:101FB30000001300060000000000040012000000EF
:101FC30000000000000004000400370037003C025A
:101FD3004400000000000000000065000000350020
:101FE3008100000005000000830000000304710469
:101FF30002046004110470040204020401040204D4
:10200300100461040004140463047304720462047E
:10201300430400041304060400040004040412042B
:1020230000040004000400045104640000040004DC
:1020330000044404000400040004000465040004D4
:1020430035048104640005040004830400040103CF
:1020530071030103010301030103010322030203CB
:102063000103100300030003000300030003000344
:1020730000034203000324030603000300030403D5
:10208300120325032303250323030403040300038B
:102093000003000344030003000323030003650359
:1020A300210035038103000305030003000300033C
:1020B300010171010101010111010101310101015D
:1020C30001018001100161013B00140063017301F0
:1020D3007201620143010001130106013D01350054
:1020E30004011201000100010001000104010401C7
:1020F300330133013C014401320136000001000188
:1021030065010001350081010001050182018301A0
:10211300000136000100060000000F00000000006F
:10212300000000000000000003FFFF00000403FFA5
:10213300FF0000FFFF0FF4010005C40403200001AA
:1021430000030B000000000000000003010F00006B
:1021530058181300F817010058180200C21703009B
:10216300C8170400CE170500D4170600E017FFFFB9
:10217300000001140E06440E083E0E0B500E109084
:102183000D021A0E05320E07200E0CF60D0D080E69
:10219300FF000003EAF5E5D5D5C5B5A59595858579
:1021A300757565655555454535352525151505342D
:1021B3001264123A1240125E1252124C126A1270D8
:1021C300127612821246122E12281200160F0000E7
:1021D3000B150B020002220F320000061E133013F0
:1021E3003613FE113C13F8110412381132116E111B
:1021F300741168112011781396139C137E138A139C
:102203008413303016181920231A1C1E300C0E02AA
:102213000B040B0A0708000F00383C3E363B3B35E6
:102223002B432C303017181921301B1D1F30000190
:1022330019161816161523030000034948424D18B2
:10224300172505026C134213481354134E135812E7
:102253007C12901388128E120204020101010109FB
:102263000244114A113E117A11000000000000508F
:1022730011621100BE040A0E00150004007F00E87D
:10228300030C002800000000000308100C0A0308D8
:102293000900040001FF1E1E0C05040F100874F64C
:1022A30012036074FF1208D3851882851983E4F042
:1022B300858208858309780812082C750801750939
:1022C30000780812082C1222F5740412083F7401D6
:1022D3000238DA74F61203608C088D097808120844
:1022E3002C75080B750900780812082C1222F502C8
:1022F30038D812231E1215FA2274F61203608C08C2
:102303008D09780812082C75080B750900780812D6
:10231300082C12231E1216000238D8EA75F00BA4FB
:10232300FAA8F075F00BEBA428FBEAFCEBFD7A238B
:102333007B0022C082C0838A828B83E0D2E7F012C3
:1023430017260237FEC082C08379001228C41258B0
:102353007AC082C0839003341245F8D083D082C3FD
:10236300E09CA3E09D500C125F4EFAA3E012237988
:102373006001090237FEFBEA75F00BA4FAA8F075B9
:10238300F00BEBA428FB900336E02AF8A3E03B888C
:1023930082F583E0540F2274F71203608908122830
:1023A300C412296AACF075F00BE9A42CF99003363A
:1023B300E028FEA3E039FF74016508600674026536
:1023C3000870208A828B831229561238D2740265D0
:1023D30008701B12281512299D70138E828F83E4B7
:1023E300F0800BEA2403FCEB122938122944EEFA9D
:1023F300EFFB120AF002383674F4120360126875A8
:1024030079008E828F83E06076890A890B8065E587
:102413000A75F00BA4FAA8F075F00BE50B122386EE
:102423007046E50A75F00BA4F8AAF075F00BE50BFE
:1024330012297C8E828F83E0850882850983122A84
:102443005E850882850983A31238D2EE2403FCEF4C
:102453001229411238051252F4AA08AB09120AF0E4
:102463007901900334124D01E50A2401F50AE50BC5
:102473003400F50B12281DE50A9AE50B9B409002E8
:102483003A7E74F5120360EAFEEBFF740B120A95B1
:1024930012380A750A01EC4D602BEC126891ED12AB
:1024A300587A1238CA7901120AFCE5084509606FA7
:1024B300850882850983A312687F7902AA08AB097C
:1024C300120AFC805AE5084509602B12587E123F18
:1024D30040123806122987700CEEFAEFFB120B023A
:1024E300E9F50A80CBEE2403FA1228BF7031790391
:1024F300EEFAEFFB80CA8E828F83A3E064FE700343
:10250300A3E0F4700BEE24030A0A0A1228BF700C2E
:10251300EEFAEFFB120B02E9F50A8003750A00A934
:102523000A7F0302057974F71203609003341238AB
:1025330046EA4B602FEA75F00BA4FAA8F075F00B8E
:10254300EBA428FBEAFEEBFF12157C90033612384E
:1025530046900336124B466012EEFCEFFD790012F3
:1025630014E08007900336E4F0A3F002383674F6E3
:10257300120360E4F508F509780812082C90033477
:102583001245F8EC75F00BA4FCA8F075F00BEDA464
:1025930028FD7A237B001215F4740212083FE9FE2A
:1025A3006003120B1A025A8D74F71203607E007FC8
:1025B30000800AEEFAEFFB120ADE123443122633CE
:1025C30040F102383674F71203607E007F008012F8
:1025D3001228A2FCA3E039FDEEFAEFFB120AEA127D
:1025E300344312263340E902383674F71203607E0F
:1025F300007F008033EEF8EFF9E875F00BA4F8AA3A
:10260300F075F00BE9A42AF990033612500F888273
:102613008983E0A2E7500EC2E7F0AC82AD83EEFA05
:10262300EFFB120AE412344312263340C802383651
:102633009003341242B0C3EE98EF9922C082C08354
:10264300EC4D6005121CD280097C087D00790012D4
:1026530014E00237FE74F61203607900EA4B601847
:1026630078008808125BC1EB125F4A600479017835
:102673000808E8C3940840EA0238DD74F7120360DF
:1026830074F31208D3ECFEEDFF851882851983E4F9
:10269300F004120A95EAF0A3EB12507A7403120ABB
:1026A30095AC82AD83EEFAEFFB120B2CEEFAEFFB47
:1026B300120B3202383174F712036074F31208D329
:1026C300ECFEEDFF851882851983E4F0EAFCEBFD4F
:1026D3007403120A95122A577401120A951238C606
:1026E3008E828F831238D274FE68700374FF696020
:1026F3000479018002790002383174F7120360EA29
:10270300FEEBFF12275B70141227668E828F83E025
:10271300F4F88A828B83E058F0120AF0A908023891
:102723003674F7120360EAFEEBFF7508008E828FA2
:1027330083E0602212275B701D1227668A828B83D7
:10274300E08F838E82F8E058700CE0F88A828B83E6
:10275300E048F0120AF080C4120AF6E9F5087401A1
:1027630065082212688A12296E1228B0FAA3E0398A
:10277300FB2274F41203608A088B097C007D00122B
:1027830028151229441228D512687C7900850882FD
:10279300850983A3E064FE7003A3E0F460717E0007
:1027A3007F008062EEFAEF1223796057EEFAEFFBB7
:1027B300EA75F00BA4FAA8F075F00BEBA428FB90D4
:1027C3000336E02AF50AA3E03BF50B850882850969
:1027D30083A3124FC0850A82850B83A3E06A70032B
:1027E300A3E06B701EE50A2403FAE50B1228C07000
:1027F3000AE50A2403FCE50B1229411228C97901D1
:1028030012589012344312281DEE9AEF9B40950202
:102813003A7EEA24030A0A0AEB229003341254672D
:10282300C32274F31203608A088B098A828B83A301
:1028330012687F1228C412687C750C0012281512C6
:1028430028C070547E007F0080491228A2FAA3E0BA
:10285300398A82F583E0540F60361228A2F50AA361
:10286300E039F50BE50A2403FCE50B12294B340090
:10287300FB121CCCE964017017850A82850B83A3C4
:10288300125528A31238D21228C9750C0112589078
:1028930012344312263340B2A90C7F05020579EEA8
:1028A300F8EFF9E875F00BA4F81228B022AAF07536
:1028B300F00BE9A42AF9900336E02822EF122997B6
:1028C30022126890EB221228D512588BEEF0A3EF58
:1028D300F022E508126891E5092274F5120360EA13
:1028E300FEEBFF8E828F83A312687F7C007D00EE58
:1028F30024030A0A0AEF122944EEFAEFFB120AF63E
:10290300E9F50A7401650A702912688A12296AAA0C
:10291300F075F00BE912297C850882F5831229569C
:10292300122987700DE5082403FCE50912293812E2
:1029330029440225223400FDEE2403FAEF22122952
:102943004B3400FB120B2C223400FDE5082403FA60
:10295300E50922A312295B2212295F22E0F8A3E0F2
:10296300F98E828F83A32212296E223400F58312FB
:1029730042B4E875F00BA4F8221228B6F508A3E0D8
:1029830039F50922E8F0A3E9F0E5082403FAE5099B
:102993001229972212299D6401223400FB120B3263
:1029A300E92274F312036074E61208D31268757592
:1029B3000C01750800750900750A00750B00851870
:1029C30082851983E4F0EE2403FCEF3400FD7403E5
:1029D300120A95122A57E964017023740B120A959F
:1029E3001238CA7401120A95124FC47003A3E06926
:1029F3006051851882851983858208858309740D42
:102A0300120A95E4122A5E740E120A951238D274D1
:102A13000D120A95AA82AB83120B50E96401700B65
:102A2300740D120A9585820A85830B780A12082C85
:102A3300AC08AD09EEFAEFFB120B08740212083F63
:102A4300E9F50CEEFAEFFB120B4AA90C741A120803
:102A53003F02289D122D2A120B5622123841124290
:102A6300B022C082C083780079008003122B5512F4
:102A7300281DE89AE99B5029E8FAE9FBEA75F00B6F
:102A8300A4FAACF075F00BEBA42CFB900336E02A10
:102A9300FCA3E03B8C82F583E0540F70CF79008078
:102AA3000279010237FEC082C08390227C12430662
:102AB300EC75F012A4FCA8F075F012EDA428FD79D2
:102AC300FF7A697B091214E00237FE74F712036080
:102AD300E9FEEAFF7A007B00780079008028E8FCB1
:102AE300E9FDEC75F012A4FC85F00875F012EDA475
:102AF3002508122F6AC39E400AE0FCEFC39C4003E3
:102B0300123318122B55122F5E40D3023836C0826F
:102B1300C083780079008003122B55122B49501F74
:102B2300122F6EF470F2E875F012A4F8AAF075F0A3
:102B330012E9A42AF9746928FA740939FB80047A22
:102B4300007B000237FE90227C1231F0C3E89AE941
:102B53009B22E8240108E93400F92274F01203608F
:102B630074F31208D38A0A8B0B8C0C8D0D8908EC35
:102B7300450D6016AA0CAB0D120BA48A0E8B0FAE7B
:102B83000EAF0FEE4F6003022C1C120B7A8A0E8BD2
:102B93000FA80EA90FE8FEE9FFE849607C90228A9E
:102BA300122C7E6022740365086006740465087045
:102BB300167A047903120B7490228A122C9540071B
:102BC3007A007B00022C7B902288122C7E601B747F
:102BD300016508600674026508700F7A02790112B4
:102BE3000B74902288122C9550D6851882851983F0
:102BF3007401F0120A951252F4AC0CAD0D74031269
:102C03000A95122D23740B120A95123812123CB432
:102C1300E41252DC1210788004EE4F604A7800749C
:102C2300FF2508C39404500278048E828F831252C6
:102C3300F48E828F83A3A3A3A3E508F0E88E828F8B
:102C430083A3A3A3A3A31252FC12020F12320D8E6D
:102C5300828F83A3A3A3A3A3A3A3F0123204120A14
:102C630072125874120A7E122C834005900EC5E42A
:102C7300F0120F52EEFAEFFB0242BA125416492237
:102C83007A047900120B7490227C125F30EA98EB7D
:102C93009922122CAE75832275827CE493C398F833
:102CA300A3E49399F9C3EA98EB9922E493F87401A6
:102CB30093F92274F212036074F31208D38A088B17
:102CC30009ECFEEDFF750A00EEFAEFFB120BA48A86
:102CD3000C8B0DA80CA90DE849603E88828983E01E
:102CE30065087004A3E06509602F88828983A3A324
:102CF300A3A3E0C394055021125722851882851996
:102D0300837401F0120A95125726EEFCEFFD74034B
:102D1300120A95122D23750A01A90A740D024DB8E2
:102D2300122D2A120B6222AA82AB83120B2C851856
:102D330082851983AA82AB832274F6120360122D53
:102D430078600FA3A3A3A3E014C3940450047901F0
:102D5300800279000238DD74F6120360122D786068
:102D63000FA3A3A3A3E014C3940250047901800228
:102D730079000238DD120B9E8A828B83E5824583BC
:102D83002274F6120360122D78600BA3A3A3A3E0B1
:102D930070047901800279000238DDC082C083EAC1
:102DA300FCEBFD7A007B000237FBC082C0837C0012
:102DB3007D000237FB74F412036074F31208D3EA44
:102DC300FEEBFF8C0A8D0BC3EC94F8ED94FF4007E8
:102DD300EE4F7003022E71750800750900802E8571
:102DE30018828519837401F012346B120A95123418
:102DF3007960137403120A95AC82AD83EEFAEFFB8C
:102E0300121CCCE97049E508240112300A90227C97
:102E1300E412541EE50898E509995052E50875F047
:102E230012A4F8AAF075F012E509A42AF9125F6357
:102E330060D4EE4F70A974FF650A700474FF650BCC
:102E430060C412345B650A7004A3E0650B70B7E5D8
:102E53000875F012A4F508A8F075F012E509A42886
:102E6300F50974692508FA74093509FB80047A00A9
:102E73007B00023A7974F412036074F31208D37579
:102E83000800120BA48A0A8B0BAE0AAF0BEE4F603D
:102E93002A851882851983740112383BF8A3E0F957
:102EA300740B120A95123957120B447C127D007968
:102EB300FFEEFAEFFB1214E0750801122C835009A0
:102EC300900EC57401F0120F52A908023A7974F7F3
:102ED300120360E9FE74FE6A700374FF6B78007975
:102EE3000070058052122B55122F5E504AE8FCE900
:102EF300FDEC75F012A4FCAFF075F012EDA42F12E7
:102F03002F6AF460E0E8FCE9FDEC75F012A4FC75AF
:102F1300F012EDA42FFD74692CF58274093DF5833D
:102F2300E06A7003A3E06B70BC8009122F6E14C3B8
:102F330094044017122B55122B495018EE70EC12C3
:102F43002F6E64016005E0640370E912344CFAA348
:102F5300E0FB80047AFE7BFF02383690227C12432A
:102F63000AC3E89CE99D2212334D22E8FAE9FBEA01
:102F730075F012A4FAACF075F012EBA42CFB746D8F
:102F83002AF58274093BF583E022120BB60237FE61
:102F9300C082C083790180F274F01203608A0A8BC5
:102FA3000B7A047901120B748A0C8B0DEA450D60C0
:102FB3003EEAC333FAEB33FB12157C8A088B09AE66
:102FC30008AF09EE4F60237AFE7BFF120BBC74FE41
:102FD3006A700374FF6B601B85088285098312384E
:102FE30046E508240212300A80E1750C0080047E55
:102FF300007F00850A82850B83E50CF0EEFAEFFB78
:103003000242BFE5082407F508E5093400F5092263
:1030130090227C12430AC3EA9CEB9D2274F61203AE
:1030230060E4F508F509780812082C90227CE493F3
:10303300F508740193F509740378081209D4123062
:10304300561215F4740212083FE9FE6003120BCE08
:10305300025A8DE5082402FCE5093400FD7A227B3F
:10306300002274F612036074FE1208D38518828559
:103073001983E4F0A31238B8858208858309780898
:1030830012082C750802750900780812082C7C00B8
:103093007D007A227B001215FA740412083F740231
:1030A3000238DA74F112036074DF1208D3851882D0
:1030B300851983858208858309780812082C750889
:1030C30002750900780812082C7C007D007A227BA7
:1030D30000121600740412083FE960030231DE9007
:1030E300227C1231F01238C0C3EA98EB99500302E4
:1030F30031DE7508000231D3740F120A9585820AF6
:1031030085830B780A12082C750A08750B00780A58
:1031130012082C85080A7403780A1209D4E50A24D4
:1031230002FCE50B12305D121600740412083FE92D
:1031330060030231D17411120A95E0F47003A3E025
:10314300F470030231D17402120A957401F0741100
:10315300120A951238C6740D120A951238D27402E7
:10316300120A95AA82AB83120B5CE9606190037526
:103173001245F8740F120A95124FC0121078E50821
:1031830075F012A4F8A9F0746928FE740939FF7464
:103193000F120A95A982AA83890C8A0D750E0078ED
:1031A3000C1208287C081231F812083F125301123E
:1031B300020F12320D123204120A72125874120ADA
:1031C3007E122C834005900EC5E4F0120F520508C1
:1031D30085080A125F2450030230FB851882851983
:1031E30083E0F9742112083F7F07020579E493FA1B
:1031F300740193FB227D00EEFAEFFB1214D47403E7
:1032030022125885E4F090803722E88E828F83A3C0
:10321300A3A3A3A3A3A3A312322F740112322FA338
:10322300F0EE2410125888E4F0A3F022123CC0A35D
:10323300A3A32274F412036074FE1208D3851882C8
:10324300851983E4F0A3F0FE8067EEF8EFF9E875E3
:10325300F012A4F8AAF075F012E9A42AF974692807
:10326300F50A740939F50B780A12082C75080875E4
:103273000900780812082C8E088F09740378081245
:1032830009D41230561215FA740412083F850A82C3
:10329300850B83A3A3A3A3E0F4600F85188285198C
:1032A30083E02401F0A3E03400F0EE24010EEF34B8
:1032B30000FF90227C12650A40908518828519834D
:1032C300858208858309780812082C750802750918
:1032D30000780812082C7C007D007A227B001215EE
:1032E300FA740412083F7402023A7BC082C0837AE4
:1032F300007B00800419123318123013501012335C
:1033030037C3940550F0E970EC12332180047A003E
:103313007B000237FEEA24010AEB3400FB22EA7544
:10332300F012A4FA75F012EBA428FB74692AFA745C
:10333300093BFB22EAFCEBFDEC75F012A4FCA8F0C0
:1033430075F012EDA42812334D22FD746D2CF58215
:1033530074093DF583E02274F712036074F31208D5
:10336300D37E007F000233FFE50875F017A4F8A9A8
:10337300F01261C4FAA3E0FBEEF8EFF9E875F0127E
:10338300A4F8ACF075F012E9A42C12345A6A700355
:10339300A3E06B603FE50875F017A4F8AAF0EA1202
:1033A30061C3F8A3E0F97401120A95E0687003A3FE
:1033B300E0696020E50875F017A4F8EAF974E528D8
:1033C300FC740A39FD7403120A95AA82AB83121C9A
:1033D300CCE96014E50875F017A4F8A9F074E328A4
:1033E300FA740A39FB121084050890228EE493F8CC
:1033F300E508C398500302336B12344390227C12C6
:10340300650A5039EEF8EFF912344CF47003A3E077
:10341300F460E68518828519837401F0EEF8EFF9FC
:10342300E875F012A4F875F012E9A42AF912346BC6
:10343300120A9512347960C175080080AD023831E3
:10344300EE24010EEF3400FF22E875F012A4F8AA6F
:10345300F075F012E9A42AF912345F22746928F591
:1034630082740939F583E022746B28F58274093973
:103473001242AE740B22E8F0A3E912395F120B5C1F
:10348300E922C082C08390033D742CF0A3740EF034
:1034930090033F7426F0A3740EF09003437446F038
:1034A300A3740CF00237FE74F7120360EAFEEBFF1D
:1034B300900377E06408601BE0640460168E828FDB
:1034C30083E0540364017048123805123DB5E0648B
:1034D30006703D8E828F83A3A3E064FE7003A3E096
:1034E300F4602D8E828F83A3A31238C6900368E005
:1034F300687003A3E069700BEE2415F582EF125F89
:103503004A6008120EDAE9F5088008120EE080F628
:103513007508C2EEFAEFFB12158202271F74F4122C
:1035230003608A088B098A828B83E0F8A3E0FAE8B8
:103533002AFAE43400FB12157C8A0A8B0BAE0AAF1D
:103543000BEE4F6063850882850983E0FC7D00797B
:10355300001214E08E828F83A3A312687F120F1CC4
:103563008E828F83A3A3A3A312384685088285097D
:1035730083E0F8EE28F8EF34001238CE8508828510
:103583000983A3E0C0E0EE240D125877D0E0F012D7
:103593000F2EEE240E125877E9124F21E0C0E0EE11
:1035A3002411125877D0E0F0EEFAEFFB023A7E7462
:1035B300F612036074EB1208D3EAFEEBFF124B43DF
:1035C30060030236567A077B0012157C900339128A
:1035D3003846124B4360788E828F83120A729003AF
:1035E3003A123DB8120A7E126743C0E0123662D027
:1035F300E0F0EE2405FAEF3400FB8A088B098A8297
:10360300F583E0C0E012365DD0E0123A75E0C0E029
:1036130012365DA3D0E01238B2120A728518828581
:103623001983120A7E88828983E0C0E07405120A36
:1036330095D0E0F0850882850983E0C0E074041228
:103643000A95D0E0F07407120A951237988006792C
:10365300108002790174150238DA123662A32290BF
:103663000339E0FAA3E0F5838A82A3A3A3A322C0CC
:1036730082C083124B43600D90033912545590035B
:1036830039E4F0A3F0120E4A1210240237FE74F04C
:1036930012036074EB1208D3ECFEEDFF8908742566
:1036A300120A95780C120A387429120A95E0F974F3
:1036B3002A120A95E0FC742B120A95E0FD740F6937
:1036C3007005740F6C6012900F0AE0640270057944
:1036D300C1023793E9C39C40F6900378780C120A31
:1036E30056E50890037EF0E990037CF0ECA3F0ED3F
:1036F30090037FF074FF6A700374FF6B701D900F6B
:1037030015E0F47003A3E0F470051214EC800C9040
:103713000F1512381BE8F0A3E98007900375EAF050
:10372300A3EBF0EE4F6017EEFAEFFB1210E4E9643F
:1037330001700BEEFCEFFD7A897B03121CD2900320
:1037430068E4F0A3F090036BF0A3F0900388F0908B
:103753000F0AE06402700890037C740FF0A3F090EA
:1037630003777405F014120A95E4F0900378120AB3
:1037730072851882851983120A7E90037EE0C0E069
:103783007405120A95D0E0F07407120A951237985F
:1037930074150242BCE412395F121CFC22C082C0C1
:1037A30083900338E070031217F2120C16804CC09A
:1037B30082C083900338E0900EC47004E4F0802D3F
:1037C3007401F0900338E0F460237C41E0C394413A
:1037D3005002E0FCECF8E0C398F0EC75F0E8A4CC00
:1037E300A8F075F003A428FD7A801243127AC47BF3
:1037F3000E7941121CEA8003120BAAD083D08202F5
:1038030007F1EE12588622E0F508A3E0F50922122B
:1038130038162212295FA3221242B0900375227434
:10382300F7120360EB90037FF0120E388005740DDE
:1038330012083F7F01020579123841A3E0221238B2
:10384300B2A322EAF0A3EBF02274F712036074F838
:103853001208D3EAFEEBFF7900900377E064087067
:103863004485188285198374FDF0A374FFF0120F49
:10387300167402120A951238467405120A95E41258
:103883003841E0C0E07404120A95D0E01238ADC0AC
:10389300E07406120A95D0E0F07407120A95E41258
:1038A300395B120F7074080238331238B2E022F019
:1038B3008E828F8322F08518828519832285188250
:1038C3008519831242B022E0F8A3E0F9125885E883
:1038D300F0A3E9F022740412083F7F02020579C0C5
:1038E30082C08390034974D6F0A3740CF09003EF65
:1038F30074CAF0A3740FF090034D740CF0A3740D0D
:10390300F090034F74D6F0A3740CF090035174122B
:10391300F0A3740DF00237FE74F412036074F9120D
:1039230008D38A088B098C0A8D0B85188285198325
:103933007808120A567404120A95E9F07405120AFB
:1039430095E4F07406120A95E412395B120BFE74C7
:1039530007023A7BE8F0A3E912395F221238B8AACA
:1039630082AB832274F41203608A088B098A828BE8
:1039730083125893EE4F7003023A73900312124B63
:103983004660158A828B83A3A3E0F9EEFAEFFB90DE
:103993000313123DB8121E998E828F83A3A3A3A390
:1039A300A3A3A3A3A3E0640270748E828F83A3A353
:1039B300A3A3A3A3E054027003023A4585088285BA
:1039C3000983A3A3E064E960798E828F83A3A3A311
:1039D300A3A3A3A3A3A3A3E07014900F0DE0048EED
:1039E300828F83A3A3A3A3A3A3A3A3A3A3F08E82E2
:1039F3008F83A3A3A3A3A3A3A3A3A3A3E014123A14
:103A030075A3A3A37404F0900F0E1252CEE8F0A393
:103A1300E91263A78B0BEA450B7003125D858E8257
:103A23008F83A3A3A3A3A3A3A3A3A3E0640260120E
:103A33008E828F83A3A3A3A3A3A3A3A3A3E064065C
:103A4300702E8E828F83A3A3A3A3A3A3E0A2E0502F
:103A53001F850882850983A3A3E0F9EEFAEFFB1221
:103A63001D7A8E828F83A3A3A3A3A3A3E054FEF0A6
:103A73008009123CBC22740D12083F7F04020579B1
:103A830074EC12036074DD1208D3EAFEEBFF8C08BA
:103A93008D097437120A95780C120A38750A007466
:103AA30005120A95AC82AD83120ABA7412120A95F2
:103AB300E070087415120A95E060207405120A95E7
:103AC300E0A2E6501E8E828F83A3A3A3A3A3A3A386
:103AD300A3A3124FC0120FA6E960087903121CBA00
:103AE300023CA27405120A95E0540C640470057537
:103AF3000B018003750B00E0A2E55035750A01E563
:103B03000BA2E0402C120F1C8A108B11A810A911D4
:103B1300123805E0687003A3E06960157405120AA2
:103B230095126886124FBC121D86E96004790480E1
:103B3300AC7405120A95E0A2E650227406120A95A7
:103B4300E0540370187405120A95E0540C640C6079
:103B53000CE0540C640860057510018003751000B7
:103B63007405120A95E05403F8740268700C126825
:103B730086124FBC120ACC023CA2740168703AE56B
:103B830010A2E05003123CAA7405120A95A882A958
:103B9300837403120A95E8F0A3E91242A4851882FC
:103BA300851983123CB4E0C0E07402120A95D0E098
:103BB30012395B121E6A023CA2E86003023CA29027
:103BC300035FE0640170108E828F83A3A3A3A3A37A
:103BD300A3E07003023B307422120A95740212426E
:103BE300A4741A120A951238D2E510A2E050087490
:103BF30005120A95123CAAE50BA2E0506AEE240FC7
:103C0300F582EF125F4AC0E07417120A95D0E0F014
:103C1300900314124B467003023CA2120F1C8A122B
:103C23008B13A812A913741A120A95E0687003A3E0
:103C3300E069706B780C120824780A12083078084F
:103C430012082CA910740C120A95AC82AD8374214E
:103C5300120A95AA82AB83900314123DB5121E99E2
:103C6300740712083F8038780C120824780A120867
:103C730030780812082C900375120648EE2412F5CA
:103C830082EF125C787423120A95AC82AD83740EB2
:103C9300120A95AA82AB83121D6E740912083F742F
:103CA3002312083F026372126886125463120AC019
:103CB30022E8F0A3E9123CBC22123CC022F08E821F
:103CC3008F83A3A3A3A3A3A32274F71203601216E3
:103CD300DE02383674F71203601216E402383674C3
:103CE300F71203601216F0023836C082C083121630
:103CF300EA0237FE74F71203601216F602383674BE
:103D0300F71203607409120A95E0F508780812089F
:103D1300301217027401023833C082C08312170EA7
:103D23000237FEC082C0831217140237FE74F712E3
:103D3300036012171A02383674F7120360EAFEEBB7
:103D4300FF89087401650870147900120D4E9022E2
:103D530099E493FC7900EEFAEFFB120CC4023836B7
:103D630074F412036074F91208D3E9FE8A088B090C
:103D73008C0A8D0B7413120A95124FC09005DD1235
:103D83004B466027EE851882851983F07401120A69
:103D9300957808120A56EAF8EBF97405120A951297
:103DA30039579005DD123DB5121E99023952FB9029
:103DB300034BE0F8A3E0F583888222C082C083121C
:103DC300174A0237FE74F7120360900EC7E0F97EBC
:103DD30000800B125F36540D64017001190E123FFF
:103DE300C25003E970ED02383674F7120360900E87
:103DF300C8E0F97E00800B125F36548D6481700138
:103E0300190E123FC25003E970ED02383674F212F4
:103E13000360890BE975F006A4240CF508E5F0129C
:103E2300300E8A0CE508250CFAE5093400FB12155F
:103E33007C8A0C8B0DAE0CAF0DEE4F6027AC08AD3A
:103E43000979001214E0123805E50BF0EE2508F8A5
:103E5300EF3509F98E828F83A3A3A3A3A3A3A3A3FF
:103E6300A31238D2EEFAEFFB024DBB74F6120360D5
:103E7300EAFEEBFF120CA0900EC6E0F8E9C39840EF
:103E830009900345124FC0120CA6EE2402F8EF125C
:103E930055D8900347125492900347E004F0EEFA8A
:103EA300EFFB120CAC850882850983E0025A8EC0B1
:103EB30082C0837900900345800109124FC08A8232
:103EC3008B83E582458370F20237FE74F712036039
:103ED300EAFEEBFFEE4F6056900345124B46604EF1
:103EE300888289837A007B00EE65827003EF6583A5
:103EF300600FAA82AB83123F34E5824583602F8033
:103F0300E7900345123F40687002EF698E828F830A
:103F130070081238C690034580031263841238D2A6
:103F2300EEFAEFFB121E3AEEFAEFFB12158202389D
:103F330036123F38221242B488828983221242B059
:103F4300EE22C082C0839003458004888289831255
:103F53004B46600B888289831245F8EC4D70EC8ADE
:103F6300828B83E4F0A3F0E849600688828983802A
:103F7300039003451238460237FE74F7120360902C
:103F8300034580048A828B83123FBD4B60257E00EC
:103F930080010E123FC250ECEE75F006A4FCADF0AA
:103FA300EA2CFCEB3DFDEC2410F582ED124012707F
:103FB300E180047A007B00023836125467EA221249
:103FC300401BEEC3982274F71203607D0080010D3D
:103FD300124017EDC3985034ED75F006A4FEA8F017
:103FE300E8FFEA2EFEEB3FFFEE2410F582EF1240CE
:103FF3001270DCED75F006A4FEE8FFEA2EFAEB3F43
:10400300FBEA2411F582EB125F4A4CF002383612B8
:104013005F56692212401B22126890EB3400F5832D
:10402300E0F82274F6120360120DC67A007B00805A
:1040330025EAF8EBF9E875F006A4F8ACF075F0069C
:10404300E9A42C12543C126751A3E4125532F0A395
:104053001267571268CE902284122C8D40D37A00B7
:104063007B00801C8A088B09740378081209D41218
:104073004EE8A374FEF0A304125312A3E41268CE15
:1040830090228D1240C540DC7A007B00801D8A0897
:104093008B09740378081209D4740B125BC2740E73
:1040A30012640974FEF0A3041268CE9022931240A6
:1040B300C540DB902297E493900353F01240CF0264
:1040C30038DDE493F8C3EA98EB9400227CE87D039F
:1040D3007A107B009003C2E0F91216302274F012BA
:1040E300036074F51208D38A088B09890A8C0BE9DB
:1040F300A2E050147508FC7509FFA2E15005D2E453
:104103000241A2D2E30241A2124DA77003A3E069C8
:104113007005790002426FAC0A7902AA08AB091252
:104123000DA2E960EDE50AF50C780C12083079026E
:104133007CFE7DFFAA08AB09124B2212083FE960FF
:104143000302426DE50AC2E5F50A9003B5E070513A
:10415300E50AA2E6404B7403120A95AC82AD83AA2A
:1041630008AB09120B38E970321244438A0C8B0DE9
:10417300A80CA90DE8FEE9FFE8496025EE24020A30
:104183000AEF12299D601AEE2402FCEF3400FD743D
:1041930003120A95AA82AB83121CD2E50AD2E5F573
:1041A3000A900348E0F50C900368E0F50EA3E0F5F0
:1041B3000F780E12082C7D017C00900348E0F9AAC9
:1041C3000EAB0F120D5A740212083FE9F890034820
:1041D300E004F0E8600302426DE50AA2E5500474CE
:1041E3000E80027406C0E07401120A95D0E01258E2
:1041F300A48A0E8B0FAE0EAF0FEE4F606912428D85
:104203001242A4888289837401F07478550AA31238
:104213006896E50C126896A3E508F0E50912427C5E
:10422300E4F0E50AA2E5500F7403120A95AC82ADDF
:1042330083E824061242738E828F83A3A374FDF056
:10424300A374FFF0E50B601590229AE493F8E50B55
:10425300C3985009EE2413125877E50BF0EEFAEFEA
:10426300FB120BF280067910800279C7740B804928
:10427300FAE93400FB121CD22288828983A3A3A308
:10428300A31242882212560BA322EE241712588837
:104293007401F0120F16EE241A125888EAF0A3EBF9
:1042A30022F012688A34001242AE22F5831242B41D
:1042B30022E0F8A3E0F922740D12083F7F080205FB
:1042C3007974F61203607A007B10125D9260089095
:1042D30003D47401F0802990067EE06401900F0BF3
:1042E3007006E0FC79018004E0FC79037A007B002E
:1042F300120CC49022821243067A007B10124314DC
:104303000238DD12430A22E493FC740193FD227BFD
:10431300009003C2E0F912162A2274EC1203608A99
:10432300088B098C0C8D0D890E7414120A95124D8D
:10433300017416120A95E0F510A3E0F511120FA609
:10434300E960077AFF7BFF024440900F0AE06402B2
:1043530060030244337900AA08AB09120DA8A90E21
:10436300120D9C8A128B13AE12AF13EE4F70030221
:10437300441B8E828F83A3A3A3A3A3E064018E8235
:104383008F83A3A37069124FC08E828F83A3A3A3CD
:10439300A3A3A3E054186043902298E4938E828FE2
:1043A30083A3A3A3A3F0EA650C7003EB650D60146C
:1043B300EA650A7003EB650B600AEA65107003EBAC
:1043C3006511701F781012082CAC0AAD0BAA0CAB48
:1043D3000D1210A2740212083F8008900367125D49
:1043E3007CA3F074FE6A700374FF6B601D804EA3A0
:1043F300A3A3E0640360298E828F83A3A3A3A3A353
:10440300E0640470057AFE0243488E828F83A3A37F
:10441300A3A3A3E0640270089003B4E064027010E5
:104423001244438B0BEA450B6006AA08AB09800DC7
:10443300AA08AB09900349123DB5121E9902637293
:10444300900375124B281210662274F7120360EA68
:10445300FEEBFF120B8CE9700AEEFAEFFB120B98DE
:10446300E96006EEFAEFFB80047AFE7BFF02383642
:1044730074F01203608A0A8B0B8C0E8D0F890975F9
:104483000800120FA6E9790060030245EAAA0AAB05
:104493000B120DA8A909120D9C8A0C8B0DAE0CAF43
:1044A3000DEE4F60198E828F83A3A3A3A3A3E064B1
:1044B3000270559003B4E0640270030245E8AA0A4F
:1044C300AB0B90034F123DB5121E99120B9E8A0C33
:1044D3008B0DA80CA90DE84970030245E888828971
:1044E30083A3A3A3A3A3E0A2E040030245E8750CC2
:1044F30001A2E150687901AC0AAD0BAA0EAB0F1211
:104503000CF4E970640245E88E828F83A3A3A3A30E
:10451300A3E064037005750C0280528E828F83A31F
:10452300A3A3A3A3E0640160030245E8900375120B
:1045330045F88E828F8312494D8A0C8B0DA80CA9E6
:104543000DE84960D1902291E493FA88828983E04F
:10455300C39A50C2A3E060030245E880B988828908
:1045630083A3A3A3A3A3D2E1F0EE4F603A8E828F7D
:1045730083A3A3A3A3A3A3E05418602B7508018E00
:10458300828F83A3A3120648750CFE750DFF780C6A
:1045930012082C7900AC0AAD0BAA0EAB0F120DBAA0
:1045A300740412083F803E900368E0650E7004A314
:1045B300E0650F7014902299E493FCA909AA0AAB51
:1045C3000B120CC4750801801CA90CAC0AAD0BAA14
:1045D3000EAB0F120CF4E9700C750801A909AA0AB5
:1045E300AB0B120D4EA9080242BFE50C2415F58250
:1045F300E50D12588B1252E82274EA12036074F02C
:104603001208D38A0C8B0D8C088D097426120A9517
:10461300E0F514A3E0F5157512069003F5124B4669
:1046230060239003751245F8AA08AB091210908A0B
:10463300108B11EA4511600D8A828B83A3E070050C
:104643007900024935E50C241DF50EE50D3400F51E
:104653000F850E82124B32F51388828983A3A3A39D
:10466300E0FA88828983A3A3A3A3E0F9EA2400FEE6
:10467300E439FFAA08AB09120D54850E82850F8316
:10468300124970E029F50BE50AA2E5500375120EF5
:104693007487550A70177418550A6418600FE50C6F
:1046A3002417F582E50D125F4A651260077901123E
:1046B3001CBA808C530A78C3EE94F8EF94FF501D14
:1046C3007900EEFAEFFB12493F601288828983A3D7
:1046D300A3A3A3A3A3E054186003024643780812DC
:1046E300082C7D0012496312083FE9F874036870CF
:1046F30003024643E860030247AE7418550A700389
:10470300024863E50AD2E0F50AA2E45004D2E1F5D7
:104713000AA90A124FB912493F605388828983A3B9
:10472300A3A3A3A3A3E05418604488828983A3A30B
:10473300A3A3A3E064017036E51045116030900334
:10474300751245F88882898312494D8A0E8B0FA80A
:104753000EA90FE849601788828983A3E0600F855B
:104763001082851183A3125A995003024643E50A26
:10477300F50E780E12083012495612083FE9702BD5
:104783007C007D0085148285158374FFF0A3F0857A
:104793000C82850D83A3A3A3A3A3A3A3A3E0600318
:1047A3001245EDA90B124FB912170885148285150E
:1047B30083E0F47003A3E0F460399003B4E064028F
:1047C3007003024643124CF2E0FAA3E0123DB11229
:1047D3001E99EA65087003EB65096003024643EE20
:1047E300FAEF123DB1121E99851482851583EAF002
:1047F300A3EBF0780812082C7D0112496312083FDD
:10480300A90AEEFAEFFB120DA88A088B09A808A9DA
:1048130009900368E0687003A3E069600302492616
:10482300EEFAEFFB120B9E8A088B09A808A909E888
:1048330049606E88828983A3A3A3A3E06401600D0A
:1048430088828983A3A3A3A3E0640270548518829A
:10485300851983AC82AD83EEFAEFFB120B388055DA
:10486300900361E0600FE50AF50E780E120830122E
:10487300495612083FE50AF50E780E120830790200
:104883007CFE7DFFEEFAEFFB124B2212083FE9603C
:10489300030247AE85148285158374FFF0A3024794
:1048A300F5120F16EAFCEBFD851882851983AA829F
:1048B300AB83121CD2850C82850D83A3A3A3A3A370
:1048C300A3A3A3E06401700F1245ED7408120A95C7
:1048D300AA82AB83121CD2124AFC1257104430F541
:1048E3000878081208307401120A958582088583B6
:1048F30009780812082C740B120A9585820885839F
:1049030009780812082CE513F5087808120830799D
:1049130000EEFCEFFD124FB9120CEE740612083FC5
:10492300024643124AFC12587A124970E50BF01200
:104933000F2E741012083F7F0E020579120D9C8A08
:104943000E8B0FA80EA90FE84922A3A312546712D6
:104953001090227901AC08AD0912545C124B22224B
:10496300AC0BA91312545C120D5A7402221257187D
:10497300A3A3A3A32274F012036074F01208D38AD2
:104983000C8B0DECFAEDFB750F089003F5124B46FB
:104993006014125A928A828B83E58245836007A34F
:1049A300E07003024AF7124AFC3400124B32F50B53
:1049B30088828983124B05E0FBEC2400FEE43BFF75
:1049C30088828983A3A3124B05A3A3E0FBECF5081C
:1049D300E43BF50988828983A3A3A3A3A3A3A3E04C
:1049E300F50EE50AA2E45003750F10A2E550067414
:1049F30008250FF50F748F550A700FE50C2417F572
:104A030082E50D125F4A650F60087901121CBA0234
:104A13004AF7530A707800E50AA2E45022124AFCCE
:104A2300125F4A2408FCA3E03400FD7408120A95BF
:104A3300AA82AB83121CD27808E50AC2E4F50AE520
:104A43000AA2E55028124AFC125F4A28F8A3E03470
:104A530000F9E82408FCE93400FD851882851983F0
:104A6300AA82AB83121CD2E50AC2E5F50AAC0EA9F1
:104A73000BEEFAEFFB120D60E9F8740368607590B2
:104A83000368E06E7003A3E06F605EE87054E50AAC
:104A9300F50F780F120830124B1312083FE97054C8
:104AA300780A1208307401120A9585820C85830DE9
:104AB300780C12082C740B120A9585820C85830DD1
:104AC300780C12082CE50BF50A780A120830A90EA7
:104AD300AC08AD09EEFAEFFB120CEE740612083FB8
:104AE3008012740468700D80B7780A120830124B74
:104AF3001312083F74100242BCE50C241DF582E535
:104B03000D22A3A3A3E0FC88828983A3A3A3A322EA
:104B13007901124CF912588B124B28124B22221294
:104B23000D18740122E0FCA3E0FDAA08AB0922F5ED
:104B330083123F38A3E0F50A88828983A3A3E02286
:104B43009003391254C32274E812036074F51208F7
:104B5300D3EAFEEBFF8C088D0989147423120A959E
:104B6300E0F50F7424120A95E0F512A3E0F513742F
:104B730026120A95E0F516A3E0F5177428120A9594
:104B8300E0F50EA90F120D668A108B117401120A3B
:104B9300957408F0E50EA2E450037410F0E50EA23C
:104BA300E55004E02408F0851882851983AA82ABB6
:104BB30083120F8E8A0C8B0DEA450D7003024CD9BC
:104BC300EA2417F582EB124CEB120F16E50C241AAC
:104BD300F582E50D12587A1238467403120A95AC21
:104BE30082AD83AA10AB11120B38E9601D124CE39E
:104BF3007403120A95A882A983E50C2418F582E5AB
:104C03000D12587AE8F0A3E98024E50EA2E4501FC0
:104C1300E5106E7003E5116F7015124CE3E50C247B
:104C230018F582E50D12587AE512F0A3E513F01298
:104C33004CF2124D01850A82F5837402F0A3E50E4E
:104C4300124D09E50FF0EE850A82850B83A3A3A31A
:104C5300F0EF850A82850B83A3A3A3A3124D09A3B7
:104C6300A3A3E508F0E509850A82850B83A3A3A323
:104C7300A3A3A3F0AA10AB11120D54E92514850ABE
:104C830082850B83A3A3A3A3A3A3A3F0750800E5C5
:104C93000EA2E45011AC12AD13E50A2408FAE50B99
:104CA300124275750808E50EA2E55014AC16AD174F
:104CB300E50A2508F8E50B3400F9E82408124273E5
:104CC300850C82850D83A3A3E510F0A3E511F0AA5B
:104CD3000CAB0D120BF2740B12083F7F1002057917
:104CE300E50C2416F582E50D12588B7401F022129F
:104CF3004CF912588B22E50C126891E50D22E0F570
:104D03000AA3E0F50B22F0850A82850B83A3A32275
:104D130074F21203608A088B09ECFEEDFF890A79AD
:104D230000124DA77003A3E06970047901807375C5
:104D33000B01900368E065087004A3E06509601F38
:104D4300750B00780B120830A90AEEFCEFFDAA08D8
:104D5300AB09120FE2740112083FE9F50B804179A8
:104D630000EEFAEFFB120D9CEA4B602B8A828B83D9
:104D7300A3A3A3A3A3A3E05418601C7508FE75099D
:104D8300FF780812082C8A828B83A3A31206481289
:104D930066A612083F80097901EEFAEFFB120C7642
:104DA300A90B8014120DA88A0C8B0DA80CA90D90C9
:104DB3000368E0682212083F7F0602057974F41243
:104DC300036075085375090C7A101263AE8B0BEAF6
:104DD300450B70031240CF900353E014F0700C9016
:104DE3002297E493900353F0120DB47E007F00806A
:104DF3006C850882850983A3A3A3A3E06059F460AB
:104E030056E5082404F582E509125D7670498508A4
:104E130082850983A3A3A3A3A3E064037019790282
:104E23008508828509831245F8850882850983A34D
:104E3300A3124FC0120CF4850882850983A3A3A390
:104E4300A3A3E06401601085088285098374FEF0E2
:104E5300A304124F1AE4F012344312300690228650
:104E630012650A408C7E007F008039120EBC8E08CA
:104E73008F09740378081209D474CB2508FC740DC8
:104E83003509FD7A007B0D120EAAEA4B70DD8E0800
:104E93008F09740378081209D4124EE8126751E49B
:104EA300F012344390228DE493F8C3EE98EF94000C
:104EB300501B8E088F09740378081209D4124EF020
:104EC300E82407F582E9125D7670D680A17E007F23
:104ED30000800A124EFB600214F01234431265077D
:104EE30040F1023A7E124EF0888289832274CB25E8
:104EF30008F8740D3509F922EEF8EFF9E875F006B4
:104F0300A4F8AAF075F006E9A42AF9746B28F582CF
:104F1300740D39F583E022124F21A3A3A322F08558
:104F23000882850983A3A32274F712036074E11234
:104F330008D3ECFEEDFF750800EE4F60728A828B9A
:104F430083E0241C125DA7124B4660638A828B8325
:104F5300124FC0851882851983AC82AD83EA241B66
:104F6300F582EB125C78EA241CF582EB124FBC123B
:104F73000EFE740B120A95124FC47003A3E06970FE
:104F83002E7402120A95E064017024741D120A95AE
:104F9300123DB5E064017017741D120A95123DB7F6
:104FA300A3A3E0F88E828F83E0687003750801A9DC
:104FB30008741F023833124CF93400F58312546716
:104FC3002212295BE0682274F4120360E9702479E9
:104FD3000090034D123DB5121E998A0A8B0BAE0A3F
:104FE300AF0B74FE6E700374FF6F701A902294E41B
:104FF300936013790190034D123DB5121E998A0AED
:105003008B0BAE0AAF0B120F520235ABE028F8A39D
:10501300E039F92274F612036074F31208D3121400
:10502300EC8A088B09AE08AF09900368E06E700341
:10503300A3E06F60E9120F22EA6E7002EB6F60DE8D
:10504300EEFAEFFB120FA6E970D4EE4F60D085188D
:1050530082851983E4F004120A95EEF0A3EF12504F
:105063007AE970BA74FE6E700374FF6F60B0EEFA83
:10507300EFFB740D0238DA12395F120B5022C08233
:10508300C083120F520237FE7F0A02057974F212AF
:105093000360EAFEEBFF8C0A8D0B8908740E120A7B
:1050A30095E0F50974FC6E700374FF6F7005790069
:1050B300024DBB7900120DA88A0C8B0DAE0CAF0DFF
:1050C300900368E06E7003A3E06F7006E509A2E643
:1050D30050DCA909126594706179007AFE7BFF1296
:1050E300659470567418550970030251C778007996
:1050F300008003122B55902286122B4C4003025141
:10510300C7E8FAE9FBEA75F007A4FAACF075F00713
:10511300EBA42CFB74592AF582740C3BF583E05401
:105123001870D0E875F007A4F8AAF075F007E9A4A1
:105133002AF9745328F8740C39F988828983A3A354
:10514300A3A3A3A3E05418600974185509700302BC
:1051530050B188828983EEF0A3EFF074FE650A7084
:105163000474FF650B60031252EE88828983A3A344
:10517300A3A3A3A3E509F0A2E0500D88828983A32A
:10518300A3A3A3A3A3D2E2F0740165088882898351
:10519300A3A3A3A3A370387401125312E05418609D
:1051A30028902298E49388828983A3A3A3A312520D
:1051B300DC1210908B0DEA450D60030250B17800AC
:1051C3007900803979020250B3900367E080D7E019
:1051D300640170030250B188828983A3A3A3A3A3AC
:1051E300A3E054186007902298E493800490036628
:1051F300E012427CE508F00250B1122B5590228E4A
:10520300E493FAC3E89AE9940040030250B17A00A8
:105213007B00804BEAFCEBFDEC75F007A4FCAEF0E1
:1052230075F007EDA42EFD74552CF582740C3DF535
:1052330083125893E8FCE9FDEC75F017A4FC85F0A4
:105243000975F017EDA42509FD74E32CF582740AA2
:105253003DF583E06E7003A3E06F609E12331890F8
:10526300228612301640AD124306EC6A7002ED6BD3
:105273007088E875F017A4F8AAF075F017E9A42A66
:10528300F974E328FE740A39FF7C177D007900EE78
:10529300FAEFFB1214E08E828F831252F49003759F
:1052A3001252CEA3A3A3A3A3A3E8F0A3E91252D45B
:1052B3007401F0EE240E12587774011252FC12029C
:1052C3000FEE240D125877E80251F9123816A3A3F2
:1052D30022F0EE240F12588822F01252E5AA0AABEC
:1052E3000B22900375E0FCA3E0FD2288828983A34F
:1052F300A3E50AF0A3E50BF022F01253012290225A
:1053030091E4932401F8E43400F97A027B00221239
:105313004288A32274ED1203608A088B09890E1256
:10532300544540057905025413121750AA08AB09D6
:10533300125517902284125416650A7003E9650BFF
:1053430070077AFE7BFF125517902284E412541ED5
:10535300E50A98E50B994003025411125422601296
:10536300E50A75F006A4F875F006E50B12546D1204
:105373001582E50E6018E50A75F006A4F8AAF07523
:10538300F006E50B125499701A7901025413E50AD9
:1053930075F006A4F8AAF075F006E50B12547AE44A
:1053A300F0A3F0E50A75F006A4F8AAF075F006E597
:1053B3000B12543AA312572688828983A3AA82AB7D
:1053C300831254888A828B83E0603F125422603AAE
:1053D3008E108F117512007810120828E50EC33352
:1053E300FCE433FDE50A75F006A4F50AA8F075F0B0
:1053F30006E50BA428F50B746F250AF582740D35A9
:105403000B124FBE1231FE12083F7900800279075A
:105413000265AA122CAEE82290227C125F3122E5AB
:105423000A75F006A4F8AAF075F006E50B12547598
:10543300F8A3E0F9E84922A42A1255CE8882898389
:10544300A322ECFEEDFF90228FE493F8E9C39822A8
:10545300F58312546712158222E50C126891E50D4B
:105463003400F583E0FAA3E0FB22125475FAA3E0BB
:10547300FB2212547AE022A42AF9746F28F582746D
:105483000D39F58322E50EF0900F0C12549222E0B1
:1054930088828983F0221255F2F50CE93400F50D68
:1054A300E50EC333FAE433FB12157C850C82850DBC
:1054B30083EAF0A3EBF0850C82850D831254C3229B
:1054C3001242B4E8492274F4120360ECFEEDFF7457
:1054D3000C120A951238C688088909125517AC0AA6
:1054E300AD0BECF8EDF990228412551F5021E875AD
:1054F300F006A4F8AAF075F006E912543AE08E8299
:105503008F831255321255281238D27900800279CE
:1055130004023A7E120D2A8A0A8B0B221231F0C33F
:10552300EC9AED9B221242B08508828509832212F0
:1055330056072274F61203607E007F008028EEF87F
:10554300EFF9E875F006A4F8ACF075F006E9A42CC1
:10555300F9746D28F582740D1261B56A7003A3E0C6
:105563006B605712344312650740D3126502700211
:10557300E96F704674FE6A700374FF6B703C7E00C3
:105583007F008003123443126507502E124EFB70C6
:10559300F3EEF8EFF9E875F006A4F81255C41255C6
:1055A300F960171255E0F8E91255D888821254535E
:1055B300850882850983E4F0A3F0EEFAEFFB023855
:1055C300DD75F006E91255CC22A42AF9746B28F88C
:1055D300740D39F9223400F98808890922EEF8EFAD
:1055E300F9E875F006A4F875F006E91255F22212EF
:1055F30055CCE8240422A3A374FE1256041254C308
:1056030022F0A30412560B22F088828983A3A3A35A
:10561300A32274F6120360EA241DF582EB125710DD
:10562300F9604BEA241DF582EB125F4A2402FCA3C6
:10563300E03400FD125449400302570378008029E7
:105643008C828D83E0F508A3E0FFE5082400E43FA6
:10565300F509E833FEE433FF74B32EF582740D3F8E
:10566300F58312572612570608E8C39940D28A8257
:105673008B83A3A3A3A3A3A3A3A3A31245F890037C
:1056830068E06C7003A3E06D700F7CB37D0D12288E
:10569300C4124FBC120D1E8067EA2411F582EB126F
:1056A3005F4A605CFC74FF2CF075080178081208EF
:1056B300307508B375090D780812082CE9F50878D8
:1056C30008120830EA2412F582EB125F4AF50878D3
:1056D30008120830EA2415F582EB12587A120648AC
:1056E300ECF91228C41245F58A828B83A3A3A3A3E2
:1056F300A3A3A3A3A3124FC0120D36740712083F2E
:105703000238DDEC24020C0CED3400FD2212588B20
:10571300125718E022E0F8A3E0F5838882A32288D9
:10572300828983E508F0A3E509F02274EA12036095
:1057330074FD1208D38A148B158C0E8D0F890D748A
:1057430019120A95125893741B120A95E0F51174F5
:105753001C120A95E0F50C741D120A95124D017482
:105763001F120A95E0F5106008E50CC3332404808A
:10577300027402C0E07401120A95D0E01258A48AA0
:10578300088B09EA4509700302586F8A828B83A349
:10579300A3E514F0A3E51512639DE50EF0A3E50F51
:1057A300F0EA2413F582EB12587AE50DF0EA24149B
:1057B300F582EB12587AE511F0EA2417F582EB1221
:1057C3005F4A64017040120F1C8A0E8B0FA80EA94A
:1057D3000F850882850983A3A3A3A3E0687003A3AD
:1057E300E0696022EE4F6011E508241AF582E509AD
:1057F30012587AEEF0A3EF800CE5082417F582E542
:105803000912587AE4F012587E1258938E828F83CD
:105813007405F0A3E5107004E50C80487401250CB1
:1058230012589D7A008028850A82850B83E01258DE
:1058330099850A82850B83A3E08E828F83F0E50A24
:105843002402F50AE50B3400F50BA30EAF830AEA35
:10585300C3950C40D2120F1CEA125899120F1CEB7D
:105863008E828F83F0AA08AB09120BF274030249EC
:1058730037EE240CF582EF12588B221228D51258DA
:105883008B22EE240BF582EF3400F5832290033450
:10589300E0FEA3E0FF228E828F83F0A3AE82AF836C
:1058A3002212395F120F8E22C082C083E9C333FCF8
:1058B300E433FDEA2CFAEB3DFBEA24FEF582EB34FC
:1058C300FF124FBE0237FE74F212036089098A0A7F
:1058D3001254454004790080407508008002050891
:1058E300E508C39509502AE508C333F8E433F9EE14
:1058F30028F582EF39F583C082C083120F1C8A0C0E
:105903008B0DD083D082E0650C7004A3E0650D702D
:10591300CDE50A650870BE7901024DBB74F0120330
:105923006074F31208D38A088B098C0A8D0B890CD7
:10593300750D00120FA6E979006003025A21AA0827
:10594300AB09120DA8A90C120D9C8A0E8B0FAE0E7B
:10595300AF0FEE4F7003025A1F8E828F83A3A3A350
:10596300A3A3A3E0A2E24003025A1F120F1CEA659D
:105973000A7003EB650B7011780D120830E4F50E15
:10598300F50F780E12082C8044AA0AAB0B120B9267
:10599300E9640170688518828519837404F07401C1
:1059A300120A951252F4851882851983AA82AB8351
:1059B300120B50E964017045750D01780D12083022
:1059C300E4F50EF50F780E12082C750D00780D1204
:1059D3000830780D1208307408120A9585820E85F6
:1059E300830F780E12082C90229AE493F9AC0AAD37
:1059F3000BAA08AB09120D36740712083F8E828F6B
:105A030083A3A3A3A3A3A3E0A2E1400D8E828F836C
:105A1300A3A3A3A3A3A3C2E2F0750D01A90D0242A0
:105A2300BA74F6120360E9FE7900120DA8EEF912BA
:105A33000D9C8A088B09A808A909E8496006126821
:105A4300D8F9800279040238DD74F61203607E0708
:105A530090035CE07034125A928A088B09A808A953
:105A630009E8496025900361E0640188828983A382
:105A7300A3700B125A99888289835001A3A3E0F97A
:105A83001210AEE9FEEE70027E07EEF90238DD1267
:105A930052E512109022E0FA88828983A3E0C39A28
:105AA3002274EE120360EAFEEBFF890A8C0C8D0B65
:105AB3007412120A9512380A125B6E12544C50512A
:105AC300890E750F007403780E1209D474D1250E54
:105AD300F582740D350FF583E0F8E50CC398502D6E
:105AE300E50B6024751100740378101209D474CB8C
:105AF3002510F8740D3511F988828983A3A3A3A314
:105B0300A3A3E50C125B78F0790002508B79038034
:105B1300F979007AFE7BFF125B6EE49365107004E3
:105B2300790280E6E50B60E0890E750F0074037857
