:020000040000FA
:06000000020A660201C5C0
:030013000201E8FF
:03002B000208C701
:0300330002071EA3
:03003B0002023D81
:030053000200F6B2
:03006B0002070485
:1000830002015A0101FF050301321032103210320E
:1000930010EE0EE80E3210E91B00000000871B0073
:1000A3000000000C0000000C0001FFFF00000B002B
:1000B3000B000B0001030000000000000200010020
:1000C300010101006605000000B705E80364006450
:1000D30000B801020200000002050207051E020526
:1000E3001E0A03B80B020102F1FF02965118000227
:1000F300020612C0E074F212048AA2AFE433FED205
:10010300AFE5A7FFE5A1F5085F5410600612167A64
:1001130075A1EFE5085F5408600812168075A1F712
:10012300802BEFA2E0C0D0E508A2E092F01209B361
:10013300158182F05017906198E0F890078BE0C327
:1001430098A2D265D0335002E8F075A1FEEEA2E08A
:1001530092AF7F010204E9C0E074F212048AA2AFF5
:10016300E433FED2AF9061A4E0F8759B00E59158AB
:10017300540860087591F71216C8802AE5915854FF
:100183001060087591EF1216CE801BE8A2E0C0D074
:10019300E591A2E092F01209B3158182F05007E0D5
:1001A300C2E0F01218129061A3E0F8E5E958540494
:1001B300600E1217E875E9FB906193E0A2E640F246
:1001C300808BC0E074F212048AA2AFE433FED2AF94
:1001D3009061A5E0F8E5BF585404600675BFFB12B3
:1001E300182A020150C0E0C0D0E8C0E0E9C0E0C076
:1001F30082C083E5C1C0E09006F7E0F8747628F585
:100203008274063400F583D0E0F09006F6E0F8A39C
:10021300E0687006E5959006F9F09006F7E004F0C3
:10022300C394804002E4F0A374C6F0D083D082D09C
:10023300E0F9D0E0F8D0D0D0E032C0E074F112049D
:100243008A90077AE0F8A3E0687015539AFBA374C9
:1002530001F07ADC7B05121350438640C287802C61
:100263005386BFD287C2E990077AE0F50874012567
:1002730008F074FA2508F58274063400F583E0F576
:10028300C190077AE0C394804002E4F07F02020445
:10029300E9C3E498F8E499F91202D58026C3E49AF5
:1002A300FAE49BFBE920E7E91202D5E498F8E49924
:1002B300F922C3E498F8E499F91202D5E498F8E432
:1002C30099F9C3E49AFAE49BFB22EB20E7CFE920F8
:1002D300E7E0B90010BB0008E88AF084F8AAF0222E
:1002E300E4FBC8FA22EB70227B10C833C8C933C9B8
:1002F300335007C39AC3DBF280069A50012ADBEA24
:10030300C833F4C8C933F4C9FA2275F008E4C83312
:10031300C8C933C933C99AC99B5004C92AC93BD533
:10032300F0ECFBC833F4C8E4C9FA22080808EAC0B1
:10033300E0EBC0E086F0E7A4FA180986F0E7A42A08
:10034300FA180986F0E7A42AFA180986F0E7A42A1E
:10035300FA1986F0E7A4FBE5F02AFA190886F0E714
:10036300A42BFBE5F03AFA190886F0E7A42BFBE58A
:10037300F03AFA18180986F0E7A4C5F02BFBE43A23
:10038300FA1908E7C5F0C6A426F6E5F03BFBE43A04
:10039300FA1886F0E7A4F6E5F00826F6E43B08F63B
:1003A300E43A08F6D0E0FBD0E0FA22E4CFC0E0E480
:1003B300CEC0E0E4CDC0E0E4CCC0E075F020C3E6FD
:1003C30033F608E633F608E633F608E633F618188C
:1003D30018EC33FCED33FDEE33FEEF33FFC3EC9744
:1003E30009ED9709EE9709EF97191919400FFFECDB
:1003F30097FC09ED97FD09EE97FE191906D5F0BE96
:10040300ECF709EDF709EEF709EFF7191919D0E041
:10041300FCD0E0FDD0E0FED0E0FF222518C582C06D
:10042300E0E51934FFC583C0E0E518C3958224F8DD
:1004330010AF088583198582188008858319858202
:1004430018D2AFCEF0A3E520F0A37808E608F0A316
:10045300DEFAEFF0A3E58124FAF8E608F0A3E60854
:10046300F0A3E608F0A30808E608F0A3E608F0A363
:1004730015811581D0E0FED0E0F815811581158135
:10048300E8C0E0EEC0E022C0D02518C582C0E0E598
:100493001934FFC583C0E0E518C3958224F310AF78
:1004A300088583198582188008858319858218D267
:1004B300AFC8F0A3E9F0A3EAF0A3EBF0A37908E750
:1004C30009F0A3D8FAECF0A3EDF0A3EEF0A3EFF05C
:1004D300A3D0E0F0A3D0E0F0A3D0E0F0A3E520F0B8
:1004E300A3E5F0F0A322851983851882E0C0E0A379
:1004F300E0F9A3E0FAA3E0FBA37808E0F608A3DFA2
:10050300FAE0FCA3E0FDA3E0FEA3E0FFA3E0C0E06C
:10051300A3E0C0E0A3E0F5D0A3E0F520A3E0A3F5BA
:10052300F010AF08858319858218800885831985A3
:100533008218D2AFD082D083D0E0F8D0E032120A52
:10054300C8B90003020583E490030178E2790980C6
:1005530002F0A3D8FCD9FA900BE2AA82AB839000F5
:1005630086787179018015E493A3AC82AD838A8286
:100573008B83F0A3AA82AB838C828D83D8E9D9E7DE
:100583007582E57583E0740212083F75828E758368
:100593001A740012083FE8030875F0108E1A8F1BB7
:1005A30085821F85831E851882851983E0CEA3E08B
:1005B300CF851F82851E83EBC9EAC8EDCBECCAC386
:1005C300E833C8E933C9EA33CAEB33CBC3EA9EF550
:1005D3001DEB9FF51CB35004AB1CAA1DEC33CCEDF3
:1005E30033CDD5F0DAAE1AAF1B22D083D082ECC064
:1005F300E0EDC0E0E493A3FCE493A3FDED4C600DB8
:100603001206C5EC24FFFCED34FFFD80EFE493A359
:10061300FCE493A3FDED4C600D120793EC24FFFC67
:10062300ED34FFFD80EFD0E0FDD0E0FCE493A3C008
:10063300E0E493C0E022851983851882E0A3FEE0FD
:10064300A3F5207808E0A3F608DFFAE0A3FFE0A310
:10065300C0E0E0A3C0E0E0A3C0E0E0A3C0E0E0A30B
:10066300C0E010AF08858218858319800885821839
:10067300858319D2AFD083D082020845D083D0823C
:10068300E9C0E0E493A3C386F0C5F095F0F908E46C
:1006930093A386F0C5F095F0700BE493A3C3994040
:1006A30005E9048002A3E475F002A42582F582E53E
:1006B300F03583F583D0E0F9E493A3C0E0E493C07D
:1006C300E022C0E0C3E49396087401939618400FA8
:1006D300E49366700808740193661870007019A398
:1006E300A3C3E49396087401939618A3A3400DD073
:1006F300E0D0E0D0E0020629A3A3A3A3A3A3D0E004
:1007030022C0E074F212048AE589A2E150031215B3
:1007130096758900C2C57F010204E9C0E074F21234
:10072300048AE58BA2E05003121596758B00C2E88C
:1007330080E47404800474028000CCC0E0EDC0E067
:10074300E518C39CCCAD1950011D10AF068C188D54
:100753001980068C188D19D2AF1207E0D0E0FDD0B6
:10076300E0FC2274028000CCC0E0EDC0E0E518C3D9
:100773009CCCAD1950011D10AF068C188D19800645
:100783008C188D19D2AF1207BED0E0FDD0E0FC2249
:10079300C0E0C0F088F0E4936670080874019366C3
:1007A300187000A8F0A3A3700BD0F0D0E0D0E0D075
:1007B300E0020629A3A3D0F0D0E022CAC0E0E4936C
:1007C300A3C582CCC582C583CDC583F0A3C582CC26
:1007D300C582C583CDC583DAE5D0E0CA22CAC0E0AD
:1007E300E0A3C582CCC582C583CDC583F0A3C582F2
:1007F300CCC582C583CDC583DAE6D0E0CA227009B1
:10080300080808226016181818C6C333C608C6336A
:10081300C608C633C608C633C6D5E0EA22C008C335
:10082300E096F50808A3E096420808A3E09642087C
:1008330008A3E09645087001D3D00822C09FF59F16
:10084300E473D09F22D083D082C09FE493C0E0742E
:100853000193C0E0740293F59F227404800A740329
:100863008006740280027401C0E0F404120878D098
:10087300E0120AA3222518F58210AF08F5184002EA
:1008830015198008F51840021519D2AF851983226E
:10089300BB0102E722C082C08389828A83BB000333
:1008A300E08002E493D083D08222C0D0251810AF19
:1008B30008F518500205198008F51850020519D2D9
:1008C300AFD0D022C0E0C0D0E8C0E0E5A8D2AFC22C
:1008D300C7A2E792AFD0E0F8D0D0D0E032601608DC
:1008E3000808C6C313C618C613C618C613C618C647
:1008F30013C6D5E0EA22C3E0C696F608A3E0C6967F
:10090300F608A3E0C696F608A3E0C696F6222518D5
:1009130010AF08F518400215198008F518400215A4
:1009230019D2AF22E066701008A3E066700A08A32C
:10093300E066700408A3E06622C3E09608A3E0968D
:1009430008A3E09608A3E096A2D265D03322E76617
:1009530070100809E766700A0809E7667004080959
:10096300E76622C3E096F008A3E096F008A3E096BA
:10097300F008A3E096F022E026F008A3E036F008A2
:10098300A3E036F008A3E036F022E627F60809E6EE
:1009930037F60809E637F60809E637F62270042227
:1009A300600D18C6C333C608C633C6D5E0F4182293
:1009B300C0E0E8C0E0E58124FCF8E6A2E7D0E0F877
:1009C300D0E022E657F60809E657F60809E657F697
:1009D3000809E657F622E056F608A3E056F608A300
:1009E300E056F608A3E056F622E056F008A3E056D8
:1009F300F008A3E056F008A3E056F022E647F60815
:100A030009E647F60809E647F60809E647F622E04D
:100A130026F608A3E036F608A3E036F608A3E03688
:100A2300F622E4C396F608E496F608E496F608E49C
:100A330096F622C6F4C608C6F4C608C6F4C608C6A7
:100A4300F4C622C3E7960809E7960809E79608095A
:100A5300E79622C3E09608A3E09608A3E09608A3CE
:100A6300E0962275D0007581407518017519030051
:100A7300020541E0F608A3E0F608A3E0F608A3E0C8
:100A8300F622600C08C6C313C618C613C6D5E0F415
:100A930022E6F008A3E6F008A3E6F008A3E6F022B6
:100AA300CAC0E0E6F0A308DAFAD0E0FA22E0FAA33B
:100AB300E0FBA3E0FCA3E0FD22EAF0A3EBF0A3EC50
:100AC300F0A3EDF022E5C754F84401F5C7790122FC
:100AD3002518F582E43519F58322C2AF75D69F0236
:100AE300000022120848C6A9011208480EAA0112E2
:100AF30008487DAA01120848CCAC011208481FAE71
:100B030001120848C2AE01120848FAAF01120848A0
:100B130018B00112084849B0011208485BB001122D
:100B23000848ADB0011208480EB10112084898B147
:100B3300011208483CB20112084890B20112084859
:100B4300A9B201120848CFB2011208480AB3011230
:100B530008484EB30112084875B301120848C6B3DA
:100B63000112084876B4011208482EB5011208484C
:100B7300F6B501120848D3B60112084859B7011255
:100B8300084868B70112084873B7011208487CB8CF
:100B9300011208488DB80112084803B90112084828
:100BA30095B901120848EDB901120848B3BA011208
:100BB3000848E4BA0112084829BB0112084836BBA9
:100BC30001120848CABC011208482DBE0112084888
:100BD30049BF01120848B3C101120848BEC101123E
:100BE3000848C8C101120848D3C101120848DDC131
:100BF30001120848E7C101120848F2C1011208486E
:100C0300FDC1011208482EC20112084852C2011246
:100C1300084876C201120848DBC2011208481FC304
:100C2300011208483BC301120848B2C30112084825
:100C3300EAC30112084836C40112084893C40112DA
:100C4300084875C601120848FBC601120848CCC7FC
:100C530001120848DCCA0112084831CB01120848C6
:100C63005DCB01120848A9CC01120848F9CC011246
:100C730008484ECD011208484FCE01120848E7CE6E
:100C83000112084869CF0112084809D00112084827
:100C9300FB1D00120848341E001208480E200012E3
:100CA30008484D20001208489720001208483C21AC
:100CB300001208489B2100120848CF21001208485F
:100CC3003C220012084859230012084861240012EC
:100CD3000848F724001208483E2800120848E7286D
:100CE30000120848C32900120848242A00120848A1
:100CF300412B001208486B2D00120848222E0012C7
:100D030008482C2E001208485F2E00120848262F90
:100D130000120848C12F0012084826300012084864
:100D23004F3000120848713000120848A0320012F8
:100D33000848773300120848BB33001208482834A8
:100D430000120848E3340012084815350012084819
:100D53005935001208488C3500120848E135001255
:100D63000848363600120848CA36001208482C379D
:100D7300001208489437001208483D390012084809
:100D8300253A00120848673B00120848953D0012B7
:100D93000848553E0012084884400012084827417D
:100DA3000012084865410012084811430012084820
:100DB3002543001208482F430012084859430012E4
:100DC30008486543001208488443001208483B441E
:100DD300001208487A440012084884440012084864
:100DE30038450012084837460012084830470012B9
:100DF3000848CD47001208486F4800120848864843
:100E030000120848BD4800120848DB480012084891
:100E13001F49001208484449001208482A4A001290
:100E23000848964A00120848104B001208481F4C05
:100E3300001208485E4D00120848C04D00120848D1
:100E43007A4E001208489D4E00120848714F001256
:100E53000848BC4F00120848FE4F0012084855507E
:100E6300001208488C5000120848BA500012084873
:100E7300F35000120848185100120848A0510012FC
:100E83000848C35300120848225400120848B654B5
:100E930000120848225500120848765500120848E7
:100EA30018EF0212084857EF02120848C4560012FE
:100EB30008481E57001208487A5700120848C657B8
:100EC30000120848E1570012084812580012084857
:100ED3002F58001208483B5800120848AF59001217
:100EE3000848C859001208482F5A00120848425AA5
:100EF30000120848505A00120848045B00120848C0
:100F0300E85B00120848EE5C00120848745D0012AA
:100F130008487E5D00120848EB5D00120848025E37
:100F230000120848345E001208486D5E001208483B
:100F3300975E00120848F85E00120848185F001216
:100F43000848365F001208487C5F00120848A26018
:100F530000120848EF60001208481E61001208489A
:100F6300946100120848BC6100120848F561001240
:100F730008480362001208485B6200120848AA622C
:100F830000120848E9620012084819630012084871
:100F93004563001208485063001208486E6300124C
:100FA30008483064001208483A640012084875641F
:100FB300001208488B640012084894640012084821
:100FC300E96400120848FD64001208480B66001229
:100FD30008481E6600120848336600120848D566A2
:100FE300001208485867001208481668001208489B
:100FF3002168001208484769001208486369001213
:101003000848B56900120848F46900120848096ADB
:10101300001208484B6A00120848986C00120848EE
:10102300166D00120848896D00120848AB6F001254
:101033000848C36F00120848C66F00120848D26FF1
:1010430000120848E66F00120848EE6F00120848C5
:10105300217000120848D17000120848477100122D
:101063000848BA71001208486E72001208482373C8
:1010730000120848427300120848E273001208483D
:10108300EE73001208481974001208481C74001209
:101093000848867400120848AE7500120848867620
:1010A300001208481177001208482A7800120848ED
:1010B300E778001208482079001208485179001295
:1010C3000848F17900120848217A00120848FC7A8E
:1010D30000120848957B00120848207C001208483B
:1010E300D17C00120848537D00120848857D001208
:1010F3000848C67D00120848449802120848A99877
:1011030002120848E6980212084835990212084864
:101113004B9B021208482E9D0212084898A0021207
:101123000848D3A002120848F5A00212084858A1A3
:10113300021208488CA102120848AFA10212084803
:10114300DCA10212084838A202120848C5F20112B3
:10115300084843F30112084879F301120848E5F3FC
:101163000112084858F50112084874F5011208489D
:10117300B9F50112084847F601120848A0F6011212
:101183000848CDF701120848DFF8011208483CF976
:1011930001120848A8F90112084809FA011208487F
:1011A3004AFA01120848F7FA0112084809FC011229
:1011B300084834FC011208487FFC01120848C6FCA9
:1011C3000112084858FD0112084813FE011208488D
:1011D300C0AB021208480CAC021208487AAC0212E7
:1011E30008489BAC021208484BAD0212084854ADA4
:1011F30002120848A7AD02120848D0AD02120848EF
:1012030037AE02120848C8AE021208480AAF0212EB
:101213000848DE9C01120848B3AF0212084844B0E4
:101223000212084883B002120848C2B002120848EA
:10123300F7B00212084809B1021208481BB10212A2
:1012430008483AB10212084843B1021208480BB2E7
:10125300021208488AEB0212084861EF021208489A
:10126300B3DE02120848E9DE0212084829A9011276
:10127300084882E002120848BCD001120848FBD19A
:101283000112084837D201120848F6D30112084860
:101293001FD401120848B2D601120848F6D601122B
:1012A30008487FD80112084817D9011208487FD986
:1012B3000112084820DA0112084862DA01120848CC
:1012C300A2DA011208482DDC011208489DDD011243
:1012D3000848C2DF01120848F0DF0112084817E08E
:1012E3000112084820E001120848A7E0011208484B
:1012F300C5E30112084876F002120848DBCB02125C
:101303000848EECB021208488BCC02120848C6CC20
:1013130002120848E1CC0212084806CD021208481E
:101323004BCD021208487CCD02120848ADCD021203
:10133300084833CF021208485DEC021208489AECC1
:1013430002120848DCEC02120848ECEC02120848CE
:10135300F6EC0212084859C0021208485CC1021296
:101363000848B3C20212084835C3021208488BC4A6
:101373000212084846E4011208489BE40112084897
:1013830045E501120848EDE5011208484AE6011255
:1013930008485EE60112084828E801120848A3E855
:1013A30001120848CDE8011208486AEA0112084808
:1013B30085EA01120848D4EA01120848EAEA011250
:1013C3000848F7EA011208482BEB0112084841EBE1
:1013D30001120848CCEB0112084826EC0112084818
:1013E30074EC011208487EED0112084800F0011266
:1013F30008489AF001120848DCF00112084871F11C
:10140300011208488EF10112084891F101120848AF
:1014130094F10112084807F20112084822F201125E
:1014230008484EF20112084889F2011208488CF26A
:101433000112084844EE0212084850EE021208480E
:101443008AEE021208480080021208482B8002121A
:101453000848ED8002120848728102120848DB81B5
:1014630002120848278202120848A682021208487C
:10147300388302120848C483021208480684021201
:1014830008484F8802120848CF8902120848268B61
:1014930002120848B28B02120848848D02120848CF
:1014A3003E8E02120848B08E021208484C8F021278
:1014B3000848BC8F02120848F09002120848CC91E9
:1014C300021208483D9202120848BA9302120848D1
:1014D3007C9402120848939502120848329602122D
:1014E3000848EF960212084860D202120848B4D2A4
:1014F300021208480CD30212084857D302120848B4
:10150300B9D30212084852D402120848BAD40212BC
:101513000848C6D402120848FB7D001208482C7EF6
:1015230000120848E67E001208484C7F0012084863
:1015330064E102120848D57F00120848E67F0012D2
:101543000848F0E202120848FEE202120848EBFFE4
:1015530001120848AEED02120848BEED0212084817
:10156300D9ED021208483AEE0212084888EA02123C
:1015730008480DEB0212084871EB0212084873E8A1
:101583000212084895E802120848FFE802120848C8
:101593000AE9021208484EE902120848A8E40212B6
:1015A3000848B6E402120848DBE402120848F8E4EB
:1015B3000212084815E5021208483AE502120848E3
:1015C3006EE502120848D1C402120848DFC40212B1
:1015D300084859C5021208483DC602120848F6C712
:1015E3000212084854F002120848F7D902120848B8
:1015F30045DA02120848E2DA021208488DDB0212C9
:101603000848A5DB0212084821DC0212084837DC2F
:10161300021208484ADC0212084834B2021208488F
:1016230089B20212084885B402120848B7B40212FC
:101633000848D9B402120848F2B4021208480BB59C
:101643000212084815B602120848B0B6021208483A
:101653008AFE01120848AEFE01120848C7FE0112B5
:101663000848FAFE011208482BFF0112084859FFE7
:1016730001120848BBFF01120848CAFF01120848BB
:10168300D4FF01120848E1FF0112084801D50212F4
:10169300084827D50212084864D50212084873D5B2
:1016A3000212084892D502120848FAD502120848D5
:1016B30003D60212084862D60212084886D60212DE
:1016C300084845D70212084852D70212084863D780
:1016D30002120848EBEF0212084808F00212084809
:1016E30027B70212084885B80212084892B80212B6
:1016F3000848A5B802120848C4B802120848DAB864
:1017030002120848EEB80212084863B902120848E8
:10171300C8B90212084878BA021208484DBB02122F
:1017230008485DBB021208486CBB0212084815ED5D
:101733000212084839ED0212084861ED0212084806
:1017430089ED0212084891D702120848B8D702124D
:101753000848D9D7021208483ED80212084858DC74
:101763000212084871DC021208487DDC02120848A4
:1017730091DC02120848AFDC02120848B9DC0212FD
:101783000848C3DC02120848D6DC0212084829DDE7
:101793000212084860DD021208488FDD0212084871
:1017A300DDDD021208482CDE0212084847DE021271
:1017B300084851DE0212084862DE02120848A8DE19
:1017C30002120848C7EE0212084884A2021208480F
:1017D300AEA202120848CAA202120848DDA20212EF
:1017E3000848F3A20212084850A30212084883A330
:1017F30002120848BFA702120848E5A802120848C7
:1018030018A90212084864A90212084890AA0212F1
:101813000848B8AA02120848CDAA02120848DDAA4D
:101823000212084821AB0212084882AB0212084890
:1018330092AB021208482DE60212084848E602124B
:10184300084871E6021208488BE602120848B0E61F
:1018530002120848CFE602120848E7E602120848D7
:1018630015E7021208482FE702120848A7EF0212F1
:1018730008485BC80212084862C8021208486EC9C9
:10188300021208489EC902120848C4C90212084835
:10189300E7C90212084809CA0212084843CA0212D9
:1018A3000848A9CA02120848E2CA021208482ECB05
:1018B300021208485BCB021208487BCB021208488D
:1018C30085E90212084897E90212084882EA0212DF
:1018D300084885EA0212084860E702120848D2E77E
:1018E3000212084810E80212084851E80212084898
:1018F30040CF021208485CCF02120848ABCF021255
:101903000848C7CF02120848F8CF0212084808D087
:1019130002120848F4D002120848FED00212084806
:101923000BD1021208481BD2021208482FD202120E
:10193300084838D202120848A5BB02120848EABF79
:1019430002120848EFBF0212084827F002120848A3
:10195300729C01120848499C011208483C9A0112E2
:101963000848089A01120848D59901120848B999FC
:1019730001120848DF980112084897980112084895
:10198300CC96011208484C96011208484996011258
:1019930008485495011208482295011208485F949B
:1019A300011208488A92011208481B920112084842
:1019B300ED9101120848EA9101120848D7910112EA
:1019C30008486F91011208485E91011208483F9040
:1019D300011208481CA9011208482AA60112084846
:1019E3007CA30112084850A201120848A4A10112C5
:1019F3000848099001120848CC8F011208486D8FDE
:101A030001120848F59F011208483C8F011208484B
:101A1300F78B01120848E88A01120848778A0112F5
:101A23000848B09D0112084832DF021208483C8A78
:101A330001120848078A01120848FB890112084865
:101A43005B8901120848A2880112084875860112B1
:101A53000848018401120848BF83011208488A829A
:101A6300011208483F820112084871810112084897
:101A7300C880011208486480011208489E80011240
:101A83000848379D0112084854AF0200000080FB4C
:101A9300E473000136360101000102010001030174
:101AA30000010401060605020000070100340801D5
:101AB300000F090401010D0100FF0E0800001702C9
:101AC3000000190100FF1A0100011B0100FE1C01A7
:101AD30000081D0200001F01000120010001210276
:101AE30000002301000F240200002601000127014A
:101AF3000008280200FF2A0100072B0102402C01E5
:101B030000002D0100012E0100012F0100FF300113
:101B13000B1C310800003A0100083B01000F2F01A4
:101B230000000101710101010101110101013101F4
:101B3300010101018001100161013B0014006301F7
:101B430073017201620143010001130106013D01AA
:101B5300350004011201000100010001000104012C
:101B63000401330133013C01440132013600000119
:101B730000016501000135008101000105018201B9
:101B83008301000101037103010301030103010345
:101B930001032203020301031003000300030003F4
:101BA30000030003000300034203000324030603AE
:101BB3000003000304031203250323032503230364
:101BC30004030403000300030003440300030003AE
:101BD3002303000365032100350381030003050389
:101BE30000030003000303007100300160001100D3
:101BF30070003102200350048000100061000000D7
:101C030014006300730072006200430000001300BD
:101C130006000000000004001200000000000000A5
:101C2300000004000400370037003C0244000000B9
:101C33000000000000006500000035008100000086
:101C430005000000830000000302710230016002FE
:101C530011027002010202020202800210026102FA
:101C63003A004100630273027202620243020002FD
:101C730013023800000200020402120200020002F2
:101C83000002000204020402370037003C0244024F
:101C930000023900000200026502000235028102DF
:101CA30000020502820283020002360001000600E0
:101CB30000000F0000000000000000000000000012
:101CC30003FFFF00000403FFFF0000FFFF0FF40109
:101CD3000005C4040320000100030B000000000002
:101CE30000000003010F480F780F4E0F540F720FBF
:101CF300660F600F7E0F840F8A0F960F5A0F420FE5
:101D03003C0F0100B21402005E14030064140400CB
:101D13006A140500701406007C14FFFF000003EA38
:101D2300F5E5D5D5C5B5A5959585857575656555D0
:101D3300554545353525251515050A140D02DE0CC7
:101D430005F00C07E40C0CC00C0DD20CFF000000D6
:101D5300160F00000B150B020002220F32000006C3
:101D6300321044104A10120F50100C0F180F92101B
:101D7300B010B6109810A4109E100C0E020B040B9A
:101D83000A0708000F00383C3E363B3B352B432CFB
:101D930000011916181616152303000003494842BB
:101DA3004D1817250502303017181921301B1D1F38
:101DB30030303016181920231A1C1E308610561086
:101DC3005C10681062106C0F900FAA109C0FA20F8A
:101DD30002040201010101090200000000000000E9
:101DE300BE040A040015000E002800040C0A0309AF
:101DF30008FF1E1E0F040C0574F712041EE990035E
:101E0300B0F0900365E4F01218C09003B5E4F0A3BA
:101E1300F09003B1F0A3F0120E4C1218C6900334E5
:101E2300E4F0A3F0901DF793FA7902121926024AFF
:101E33009174F212041EEAFEEBFF54806069900372
:101E4300B0E0F91212008A088B09EA4509604F7C59
:101E53000080010CEC75F003A4F8A9F0743D28F59B
:101E630082741D39F583E493F4602CE493F88508B8
:101E7300828B83E06870DCAA08EC75F003A4F87425
:101E83003E28F582741D39F583E493C0E074019311
:101E9300F583D082121A93AA08AB091211F4EEFA51
:101EA300EF6480FB022001EF5420601D120D6E8A47
:101EB300088B09EA4509600A120CD2AA08AB091279
:101EC30011F4EEFAEF642080DAEEA2E0501A9003E8
:101ED3006AE0640F700B7900120C9CE96003122016
:101EE30004EE6401FAEF80BB54207003021FCF7528
:101EF3000C001234D68B09EA450970107C027D0070
:101F03007A207B009003B0E0F912131A7C00790465
:101F13007A007B00120D4A8A088B09801885088293
:101F2300850983A3A3A3A3A3A3A3A3A37401F085F8
:101F33000A08850B09E5084509606D7C007904AA48
:101F430008AB09120D4A8A0A8B0B750C01E50824AC
:101F530004F8E50912327A24FFF0A3E034FF1255A6
:101F63006D70CC850882850983A3A3A3A3A3A3A330
:101F7300A3A3A3E0640170A5850882850983A3A3B5
:101F8300A3A3A3A3E054047094850882850983A3C3
:101F9300A3A3A3A3A3A3A3A37406F07AB78508827C
:101FA3008509831221308087120D1A7C0079017A0A
:101FB300007B00120D4A8B09EA45097009E50C7094
:101FC300057A20124430EE6420021EE7EF540260CB
:101FD3000B120E46EEFAEF6402021EA6EF540460E3
:101FE300191245C71244E7790190036312484B1253
:101FF3000BE2EEFAEF6404021EA67A007B000222D3
:1020030037900C2A1228CE120CB422C082C08374DB
:10201300EA120911851882851983AA82AB83794B49
:102023001218FC7408120AD37402F07409120AD34A
:10203300AA82AB8379501218FC7413120AD3E412E8
:102043004A1A12191A74160239F474F712041E7418
:10205300E1120911EAFEEBFFEE4F6033851882852A
:102063001983AC82AD83120D927406120AD3E06019
:102073001E7417120AD3E0FD7401120AD3E0FCEEBA
:10208300FAEFFB7900120B0AE9600479A480027964
:1020930000024A8C74F612041EEAFEEBFF8E828F56
:1020A30083A3A3A3A3A3A3E05440601B124F09126D
:1020B30021FE60067AFF7BFF801A8E828F831236A1
:1020C30080FAA3E0FB8003120DB674FE6A700374FA
:1020D300FF6B6041124F09124474120E0AE98E829B
:1020E3008F836006122129E480051221297401F0EF
:1020F3007CA27D0C8E828F8312484B121920E9F546
:10210300087015EE4F60097901EEFAEFFB120D2608
:10211300A9080244A57508CDAA088E828F831221CF
:1021230030E960DF80EAE0240D123B4F22E0240C0B
:10213300123B4FE0F9120CAE2274F612041EE9FEB4
:10214300EAFF7A0F7B001211EEEA4B60198A828B49
:1021530083740CF0EEA3A3F0EF8A828B83A3F012B7
:1021630044D07900802FEEF9120D508A088B09A80C
:1021730008A909E849601C88828983A3A3A3A3A3B0
:10218300A3A3A3A37406125194E0F9120C66EEF90B
:10219300120D2C79100244A5C082C08390036AE01B
:1021A300640F7014EA4B6010900365E064086005E7
:1021B300E0640470031221BE023A1EEAFCEBFD7ACE
:1021C300017B009003B0E0F912131422C082C08394
:1021D3007900EA241DF582EB12367D24FD600B1491
:1021E300600824FD600424FD700109023A1E8E82FA
:1021F3008F83A3A3A3A3A3A3A3A3A31222022212A5
:1022030036C5FB120E0AE9228E828F83A3A3A3A3F2
:10221300A3A3A3A3A31222026402228E828F83A309
:10222300A3A3A3A3A3A3A3A3123A15900356E06801
:10223300221208AD7F0602063974F412041E74FDDF
:102243001209118A088B098A828B83A3A3E0F912EE
:102253000D508A0A8B0BAE0AAF0BEE4F70030223AD
:1022630043850882850983A3E064F1603085088291
:10227300850983A3E064CD6024850882850983A34F
:10228300E0641A6018850882850983A3E064E96025
:102293000C850882850983A3E064E1700879001244
:1022A3000D26E9706C850882850983A3E0C0E0747C
:1022B30002120AD3D0E01239F9EEF0A3EF122D2463
:1022C300851882851983AA82AB837005120BCA8095
:1022D30003120DF27402120AD3E064E970338E82A2
:1022E3008F8312234F750A01780A120869750AE968
:1022F300780A120869E508240CF582E50912281604
:10230300122D01FCA3E0FD8A828B83122D1B120880
:10231300AD8E828F83A3A3A3A3A3A3A3A3A3E064EC
:102323000270108E828F83A3A3A3A3A3A3A3A3A34B
:102333007406F0850882850983A3A3E0F9120D2CA6
:10234300120D1A900C2E1220070228D3E0F8A3E0F6
:10235300F9E8FAE9FB2274F412041EEAFEEBFF75B6
:1023630008008E828F83A3A3A3A3A3E06042750812
:10237300088E828F83A3A3A3A3A3A3A3A3123928A5
:102383008B0BEA450B601075082C8E828F83A3A3F9
:10239300A3A3A3E0D2E0F08E828F83A3A3A3A3A37E
:1023A300E0540364016003022442430811022442FF
:1023B300EE24181228E06033EE241A1228E0700F7E
:1023C30012221E7003A3E06970757508228070EEF7
:1023D300241BF582EF122447241AF582EF122D2CC9
:1023E300EE2419124F3D120C54805412220B700329
:1023F30075080112221E7003A3E0697006E508D276
:10240300E1F508E50860158E828F83A3A3E07006CB
:10241300E508D2E58004E508D2E6F5081221F16467
:10242300017006E508D2E0F5088E828F83A3A3E04E
:10243300600D12245564016006E508C2E0F508A9A1
:10244300080228D812366B12244E22E0FCA3E0FDCA
:10245300EE2212366512369DF9120DF8E922C0827A
:10246300C08379018A828B83A3A3E0C394024001D2
:10247300198A828B83A3A3A3A3E0C39402400279A6
:10248300008A828B83A3A3A3A3A3A3A3A3A3E06430
:10249300F87003A3E0F460458A828B83A3A3A3A30C
:1024A300A3A3A3A3A3E064F97003A3E0F4602E8ABB
:1024B300828B83A3A3A3A3A3A3A3A3A3E064FA7020
:1024C30003A3E0F460178A828B83A3A3A3A3A3A32C
:1024D300A3A3A3E064FB7003A3E0F4700279008A72
:1024E300828B83A3A3A3E0F8900353E0686002798F
:1024F30000023A1E74F012041E74DE120911EAFE81
:10250300EBFF8E828F83A3A3A3A3E0600E900C2C1A
:1025130012449C6006900C2C1220077403120AD3F9
:10252300AC82AD838E828F83A3A3A312451E124D6B
:1025330057E9600F7403120AD3AA82AB83120CCC3F
:10254300E9700879011218D202280BEE241B123607
:10255300707410120AD31244E77409120AD3E060AC
:1025630021741A120AD3E0FD7404120AD3E0FC8E1C
:10257300828F831248497901120B0AE960047902B8
:1025830080C37403120AD3AA82AB83120CC6E9F583
:102593000A7409120AD3E0702A90034DE060247490
:1025A30022550A6422601C7442550A644270CF7437
:1025B30020120AD3122829600A7420120AD312287F
:1025C3002270BBE9A2E650417403120AD3AA82AB7C
:1025D30083120CBAE970030225467420120AD3123F
:1025E30036806403700F7420120AD3A312448EA39F
:1025F300E0640D60147403120AD3AA82AB83120E33
:102603001CE96401700302280BEE242C1228131218
:102613002B377003A3E069701C7508007808120853
:10262300697808120869EE242E124F3D12282F12E2
:102633002D1B1208AD7409120AD3E070030226E8B9
:1026430012282F12484B120E708A088B09EA45098B
:1026530070030227857404120AD3E0F88E828F83F5
:10266300A3A3E028F8A3E03400F9E8240D12281A04
:102673008A828B83A3A3A3E068601CE88A828B838E
:10268300A3A3A3F0908049120AB085088285098329
:10269300A3A3A3A3120ABC7904E9120AD3124D34EB
:1026A3002AF8A3E034008882F583A3AA82AB8312BD
:1026B30011E28A0C8B0D8C0E8D0F850882850983A0
:1026C300A3A3A3A3780C120820400302280B908035
:1026D30041780C120A12850882850983A3A3A3A358
:1026E300780C120A94900365E064046008E06409BE
:1026F300600302280BE50AA2E540030227C3EE2488
:102703002E1228E0851882851983F0EE242F1228D3
:10271300E0C0E07401120AD3D0E0F0EE24301228B6
:10272300E0C0E07402120AD3D0E0F07414120AD3AA
:10273300E064017027740E120AD3123676EE241267
:102743001228E0687003A3E0697011740C120AD3B5
:1027530012221870077414120AD3E4F0EE24241220
:1027630028131207357404120AD3AC82AD8374079D
:10277300120AD3AA82AB83120BD074041208AD02DF
:10278300280B9003AAE0640160030226E874201278
:102793000AD31228297009E50AA2E650030226E8A3
:1027A3007410120AD3E0F47003A3E0F4605AEEFC51
:1027B300EFFD7403120AD3AA82AB83120CD88048AC
:1027C300A2E650447420120AD312485A701A741A9B
:1027D300120AD3E0640270307403120AD3AA82ABE4
:1027E300837900120DE680207420120AD312282266
:1027F3007016741A120AD3E06404700C7403120A7C
:10280300D3AA82AB83120DE07422024C06EE240B92
:10281300F582EF12366B22F582E9124500F8221297
:102823004F1BE064072212369D640622EE242A120F
:10283300366812244E24121236682274F412041ECF
:10284300EAFEEBFF8C088D09900614E0600F12225C
:102853001E7003A3E0697005120C42804F790012C9
:10286300483E120C728A828B83E58245836035A3CE
:10287300A3A3A3A3A3E05418602AE508241BF582AD
:10288300E509122816120739122F141228161207F7
:1028930039EE2418124F3D1228B1120C847404121D
:1028A30008AD800879001228B1120C4880278E8267
:1028B3008F83A3A3A3A3A3A3A3A3A312244E240B95
:1028C300F582EF1228CA223400F5831236C5FB22A3
:1028D30074031208AD7F04020639EE2417F582EF64
:1028E3001245002274F712041E74F7120911EAFE4E
:1028F300EBFF900365E06403600DE064016008E0B2
:10290300640960030229B18E828F83A3E0707E7C09
:10291300007D007A027B001218CCEE2402FAEF123B
:1029230032811236769003561244E7795312190214
:1029330079001229B6E064096003122D49851882D3
:1029430085198374011244BD9003657404F0740106
:10295300120AD3AA82AB83794A1218FC7401120AB1
:10296300D3AC82AD837A5B7B031218EA90035612D1
:102973004D4D7A03122D53900350E0A2E35004D23D
:10298300F08002C2F01244AA122004801E8E828FAD
:1029930083A3AE82AF83FC7D007A037B101218CC35
:1029A3008E828F83E0F91229B6E4F0120D027409C6
:1029B300024A8E9003631228CE120BE29003652223
:1029C300C082C08390033412449C701F900365E05F
:1029D30014600924FC600A14600C800F90033C808F
:1029E30032900338802D90033A8028E8496008909C
:1029F3000335122CFB700C8A828B83A3E0F9120B34
:102A0300D6801B900335122FB07005120E3A800E3C
:102A13009003D212449C600612448E121A93023A17
:102A23001E74F412041E74FB1209118A088B097AAE
:102A33000F7B001211EE8A0A8B0BAE0AAF0BEE4F1F
:102A43007003022B2B8E828F83124A18795012182F
:102A5300FC850882850983A3E06003022B1390039E
:102A630063E0F47003A3E0F46034900363E064FE76
:102A73007003A3E0F46027851882851983122B372E
:102A83007003A3E0696017850882850983A374EA4C
:102A9300122D317A637B03795012190280728518E3
:102AA30082851983124EFC1244E77A567B037953CD
:102AB3001218FC9003561245181244E77A597B0307
:102AC300794B1218FC7A587B0379E11218FC9003B6
:102AD3006AE0C3940F5021900358E0C0E0740212DF
:102AE3000AD3D0E0F07404120AD37401F004120A7A
:102AF300D3AA82AB83121914750A00780A120869E3
:102B0300780A120869900C50E0F9122D121208ADE0
:102B1300850882850983122B30A3F0900365740323
:102B2300F0EEFAEFFB1244D074050228D5A3E08E31
:102B3300828F8322124F00E06822123B562274F5E3
:102B430012041E74D81209118A088B098A828B8396
:102B5300A3A3A31236A27415120AD3AC82AD838A3F
:102B6300828B83A3A3A3A3A3A3A3A3122D01FAA3DD
:102B7300E0FB120D087415120AD3E0706B8508820E
:102B8300850983A3A3A3A3A3A3A3A3E0C3940B4097
:102B9300578E828F83A3A3A3A3A3A3A3A3E064025B
:102BA3007046EE240B1228E0F4703D900365E06458
:102BB30002603AE06406603590033412449C600579
:102BC300122CFB604F900365E064086005E0640429
:102BD30070167417120AD3E0F9741C120AD3AC826C
:102BE300AD8312483E120D0E742802541A9003341A
:102BF30012449C701F75080078081208697808123F
:102C03000869EE2410122813124F55123369122D3E
:102C13001B1208AD8E828F831247BA12329312367B
:102C2300767402120AD31244E7EE240D1228E0C090
:102C3300E07404120AD3D0E0122D24F508A3E0F5C2
:102C430009740F7808120A857405120AD3E508F08F
:102C53007419120AD3E0C0E07406120AD3D0E0F06C
:102C6300741B120AD3E0C0E07407120AD3D0E0F059
:102C73007416120AD3E0C0E07409120AD3D0E0F04C
:102C83007417120AD3E0C0E07408120AD3D0E0F03C
:102C9300EE24101228E0C0E0740A120AD3D0E0F048
:102CA300741A120AD3E0C0E0740B120AD3D0E0F016
:102CB3007427120AD3E0C0E0740C120AD3D0E0F0F8
:102CC300741C120AD3A982AA8389088A09750A0087
:102CD30078081208617C087D007410120AD3AA8256
:102CE300AB8312404B1208AD851882851983AA82E3
:102CF300AB83120BDC022BEB122FB6640122E0F93B
:102D03008A828B83A3A3A3A3A3A3A3A3A3E0229059
:102D13000363124D519003591228CE120DC8740249
:102D230022F0EE240B1244FD22124500FA22F07A1F
:102D3300567B037953122D3C221219027A597B03D5
:102D4300794B121902229003631228CE120E6A22C3
:102D53007B001218CC900359124D517A047B001258
:102D630018CC22F0124F602274F212041E74F8126F
:102D73000911EAFEEBFF8C0A8D0B890C85188285FD
:102D83001983AC82AD837583807582227408120720
:102D9300E0F50DEEFCEFFD851882851983AA82AB61
:102DA3008312471B7003750D019003B1803BEEFC4A
:102DB300EFFDE508240BFAE509340012471A601EFB
:102DC300850882850983A3A3E0650C7011850882B9
:102DD300850983E0650A7004A3E0650B6038E508A4
:102DE3002414F582E50912281612328BE5084509E9
:102DF3006024E50DA2E040B6850882850983E0657D
:102E03000A7004A3E0650B70D5850882850983A346
:102E1300A3E0650C70C8AA08AB097408022234C089
:102E230082C0839003B1023A1B74F712041E90030D
:102E3300B11236C58012EA2414F582EB1228161259
:102E430036A2121272EEFAEFFBEA4B70E99003B16D
:102E5300E4F0A3F0024A917F0702063974F11204E9
:102E63001EEAFEEBFF890A8C088D098E828F83E0B0
:102E73008C828D83123932AE82AF83E012410B1202
:102E8300407CC412410B122F1DE054038C828D83AE
:102E930012407AA2E2E4338C828D831240791313B9
:102EA30013541F12410B124078A2E7E4338C828D36
:102EB30083A3A3A3A3122F1D8E0C8F0D750E007871
:102EC3000C1208617C087D00E5082407124CC0122F
:102ED30008AD124D2B8E0C8F0D780C1208617C03FC
:102EE3007D00E508240F124CC01208ADE50AC39417
:102EF3000F40148E828F83A3A3A3E0C0E0122F148C
:102F0300122816D0E08006122F14125188F0022ED8
:102F13005AE5082412F582E50922A3A31239360ED5
:102F2300AF832274F412041E74F9120911EAFEEB42
:102F3300FF890890033412449C600E122FB070096D
:102F4300EEFAEFFB120E34805F900363E06E7003C2
:102F5300A3E06F70537401650860097A777B0312ED
:102F6300471B70447A007B021234DA8B0BEA450B61
:102F73007036900366120AB0851882851983120A87
:102F8300BC90036CE0C0E07404120AD3D0E0F07488
:102F930005120AD37401F07406120AD3124A1812E6
:102FA3000BA6E9609B120BAC74070228D5122FB64F
:102FB300640222124F1CA3A3A3A3A3A3E02274F5CC
:102FC30012041E8A088B098A828B83A3AE82AF8385
:102FD300E0F9120BFA8E828F83E064EB600C8508B4
:102FE30082850983A3E064E17009850882850983EA
:102FF300A3E4F0122004750A01780A12086985080F
:1030030082850983A3E0F50878081208697900121C
:103013002D121208AD120D1A02541DEAF0A3EBF0A3
:10302300023A1E74F612041E9003B4E0701B7C0077
:1030330079017A007B00120D4AEA4B600C8A828B7D
:103043008312449C6003120CA80244A5C082C0836F
:103053001234C2401079FF120D44E9F8901DEFE4D9
:1030630093C3985004790180027900023A1E74F0E8
:1030730012041E8A088B09890B750C008A828B83C4
:10308300A3A3A3A3A3A3A3A3E0F9120D508A0E8BBA
:103093000FAE0EAF0F750A01EE4F600302314F857D
:1030A3000882850983A3A3A3A3A3A3124D4D850877
:1030B30082850983A3A3A3A3A3A3A3123E4B124810
:1030C3004B120D388A0C8B0DAE0CAF0DEE4F700307
:1030D3000232728E828F83A3A3A3A3E4F0A3F0E54D
:1030E30008240B12327EE0C0E0122810D0E0F01268
:1030F3000E10EE240CF582EF124470E508240EF551
:1031030082E509123673EE240EF582EF1244E4755C
:103113000C01EE2406F8EF12327A547FF0A3E05448
:10312300FC124FB2E0540460030231D5900C32120A
:103133003E3C740778081209A08E828F83A3A3A351
:10314300A3A3A3E04508F0A3E04509F08E828F8393
:10315300A3A3A3A312328974077808120A85E5088A
:103163005407F508E50B607A8E828F83A3A3A3A38C
:10317300A3A3A3A3A3740212407D240D123B4BE02F
:10318300A2E2500B900351124518A3A31244E7E5A2
:10319300087003023247EE2406F8EF3400F9E8FA28
:1031A300E9FB8A828B83E0547FFCA3E054FCFDE5BA
:1031B3000824FFF508E434FFF509740778081209B9
:1031C300A0EC4508F8ED4509F98A828B831244E7A0
:1031D30080728E828F83A3A3A3A3A3A3E044800260
:1031E300314EE5087005750A0080598E828F83A3DE
:1031F300A3A3A3A3A3E0542060121211E8EA547F0F
:10320300245F8E828F83A3A3A3A380238E828F83C5
:10321300A3A3A3A3A3A3E05410600A1211E8EA54E2
:103223000F240A80DD8E828F83A3A3A3A37401F0EE
:10323300A3E412329374041234D18B09EA45097062
:1032430003124463E50CA2E050288E828F83A3A36C
:10325300A3A3124A7EF9EEFAEFFB120D3EE96012C8
:10326300124492600312365BEEFAEFFB1212727590
:103273000A00A90A024C091245DB22FAE5093400C7
:10328300FB8A828B8322A3A3E0F508A3E0F509223E
:1032930012329722124CDCA3A3A3A3A32274F41229
:1032A300041E74F71209117E00120D50EA4B7003CD
:1032B3000233628A828B83A3A3A3A3A3A3A3A3A39F
:1032C300E0640660030233628A828B83A3A3A3A311
:1032D300A3A3A3E0FF8A828B83123B5EE0C0E0746A
:1032E30008120AD3D0E01236961247211244E7128D
:1032F3000D62EF54086066851882851983124D4D5F
:103303007A007B00120D328B0BEA450B704F900352
:103313006312378612192C7C007D007A007B0080B3
:10332300288E828F83123680F47003A3E0F4602D1D
:1033330090036312336912484B121620E9641A6032
:103343001C7C007D00EEFAEFFB120D328A0A8B0B18
:10335300AE0AAF0BEE4F70C979001219327E01EE3F
:10336300F974090228D512336D22E0FCA3E0FD8E27
:10337300828F8322C082C083EA4B70059003B5809D
:10338300068A828B83A3A312358660258A828B8368
:10339300A3A3A3A3A3A3A3E0540860E5EC4D601586
:1033A3008A828B831236806C7003A3E06D70D280A7
:1033B300047A007B00023A1E74F212041EEAFEEB4A
:1033C300FF890A8C088D097A107B00121A28EA4BB0
:1033D300603F8A828B83A3A3A3A3A3A3A3A3A3E492
:1033E300123684A3E50A124F22A312341E8A828B5B
:1033F30083A3A3A3A3E4F0A3123690A3F0124DB6C4
:10340300EA240CF582EB123922123417A3A3F0A39A
:10341300F0022237A3F08A828B8322A3A3E508F06C
:10342300A3E509F02274F412041EEAFEEBFF8908F7
:103433008C0A8D0BEE4F6055740165087014790189
:10344300120D44E9F8901DF3E493C398500F7911DA
:10345300806A74046508702F1234C240F18E828F23
:1034630083A3A3A3A3A3A3A3A3A3E508123932A30E
:103473001254A78E828F83A3A3E4F0A3F09003B525
:1034830012449C6021800D7402650860D079C1806C
:103493002BE0F8A3124511A3A312358688828983F2
:1034A300A3A370ED80039003B5EEF0A3EF1234D124
:1034B3008B0BEA450B700312446379000228D87919
:1034C30004120D44E9F8901DFAE493C39822F01214
:1034D30034D6227A207B009003B0E0F9121326221F
:1034E300C082C083E9F879009003B5801D8A828B7E
:1034F30083A3A3A3A3A3A3A3A3A3E068600574FF6B
:10350300687001098A828B83A3A312358670DE0259
:103513003A1E74F712041EEA4B70059003B5800639
:103523008A828B83A3A312358660248A828B83A32A
:10353300A3A3A3A3A3A3A3A3E06970E4EC60148AE9
:10354300828B83E0240D124D3EA2E240D380047AA5
:10355300007B00024A91C082C0839003B580068A33
:10356300828B83A3A312358660128A828B83A3A3E3
:10357300A3A3A3A3A3A3E06970E580047A007B005F
:10358300023A1E1228CEEA4B2274F212041E8A0A51
:103593008B0B8C0C8D0D750800750900EA450B60CB
:1035A3002E9003B580068E828F83A3A31235D96034
:1035B3001EAC0CAD0DEEFAEFFB850A82850B831270
:1035C3001A93E9640170DFEEF8EFF988088909AA14
:1035D30008AB09022237E0FEA3E0FFEE4F2274F7A7
:1035E30012041E9003B51236767C007D00800DE830
:1035F300FCE9FD88828983A3A3123676E84960300B
:10360300EA687002EB6970E79003B512484BE86A09
:103613007002E96B88828983A3A3700812367690BF
:1036230003B580091236768C828D83A3A31244E7F7
:10363300024A9174F712041EEAFEEBFFEE4F601587
:10364300120D5C1236A8124492600312365BEEFA36
:10365300EFFB121272024A91EE240C1236681236F4
:10366300BD22EE241DF582EF3400F58322F582EFAF
:1036730012366B123A1522F582EF12366B12369D13
:103683002212368822124F2AA3A3A3A3221236881A
:10369300A3A32212341812369D22124F15E022E002
:1036A300FEA3E0FF228E828F83E0241C123B4F1285
:1036B30036BD8E828F831236BD221236C5FB12129F
:1036C3007222E0FAA3E022C082C083EAFCEBFDECA5
:1036D3004D700479058044EC24FBF582ED34FF1230
:1036E300449A7007123721E0F460051211F480E365
:1036F3009003B0E0C0E0123721D0E0F0901DF0E479
:1037030093F97AB77B0312121EE96401700B7A00F6
:103713007B20124467790080027904023A1EEC246C
:10372300FFF582ED34FFF5832274F412041EA2AF79
:10373300E433F508C2AF9003B71235D96038EE24ED
:10374300FBF582EF34FF12449A7A007B209003B09A
:10375300600512446A8005E0F912122AE4F50AF5BD
:103763000B780A120865EEFCEFFD7AB77B031212A1
:103773001874021208ADE508A2E092AFEEFAEFFB6F
:103783000228D8124D51851882851983AA82AB83EA
:103793002274F212041E74FC120911EAFEEBFF7587
:1037A3000AFE750BFF120D20E96005791102391726
:1037B300EE24151228E06037900C46E0C43354E041
:1037C300F8E0333354FC48C0E0EE2415122813D03C
:1037D300E01239321239288B09EA45096011750A5A
:1037E300FFEE240F1228E044041244F5D2E0F08ED9
:1037F300828F831221FC6006EE241212391FEE24FD
:10380300131228E07010901DF6E493C0E0EE241329
:10381300122813D0E0F08E828F83E0A2E750045485
:1038230003801CEE24141228E07015900342E0C0BC
:10383300E0EE2414122813D0E0F0900342E004F0E9
:10384300EE24111228E06401701690060BE0600D5F
:1038530090034DE0700A8E828F83E0700312391C4F
:103863008E828F83E064017013EE240B12367A6428
:10387300027009EE240F1228E04440F08518828577
:103883001983AC82AD83EEFAEFFB120D868A088BA7
:103893000974FE650A700374FFF470098E828F83C6
:1038A300A3A3124CCCEA450960668E828F83E0C0E5
:1038B300E07401120AD3D0E0F07402120AD3124D5D
:1038C300BA7401120AD385820C85830D780C120811
:1038D30065EE240F122813120739EE240E1228E086
:1038E300F50C780C12086990035612073974071205
:1038F3000AD3E0F9AC0AAD0B120D8074071208ADC0
:10390300E9FE74106E700BAA08AB091212728002E2
:103913007E10EEF97404022234EE2411F582EF12C4
:10392300366BE4F022A31228CE79FF120AE62212A4
:10393300393622F08E828F83A322C082C08374DE45
:103943001209118A828B83A3A3A3A3123676740E62
:10395300120AD3E8F0A3E9123A0C740C120AD31238
:103963003A05240DF582EB1228E3C0E0741A120A1B
:10397300D3D0E0F0124C19EB1236737420120AD331
:10398300123A052415F582EB1228E3C0E0740812FD
:103993000AD3D0E0F0EA241CF582EB1236737412DA
:1039A300120AD3123A052411F582EB1228E3C0E080
:1039B3007409120AD3D0E01239F974FFF0740112BA
:1039C3000AD374FFF07402120AD374FFF090804993
:1039D3001207357404120AD3AC82AD837407120A3A
:1039E300D3AA82AB83120BD074041208AD7900748E
:1039F300221208AD80251239FD22F085188285191F
:103A03008322E8F0A3E9F0EA22123418A3123A144D
:103A130022A3E0F8A3E0F92212484BD083D082021C
:103A2300084574EC12041E74EE1209118A128B13EA
:103A3300ECFEEDFF89097426120AD3124CCC7428CC
:103A4300120AD3E0F5107429120AD3123B40742BE7
:103A5300120AD3E0F50EA3E0F50F7508107A1E7B6A
:103A630000121A287402120AD31244747402120A3E
:103A7300D312449C7003023B39851882851983AAAB
:103A830082AB83795012434F12484B7402120AD30C
:103A9300123B5EA31244747410120AD31254A97415
:103AA30002120AD3E0240B123B4B7402F0120AD326
:103AB300123B5E7402F0120AD3124F0D124DBA7408
:103AC30002120AD3124860E509F07402120AD3E025
:103AD300240C123B4BE510F07402120AD3123B483C
:103AE300E512F0A3E513F07408120AD3E50CF0A372
:103AF300E50DF0740A120AD3E510F0850E82850FE6
:103B030083C082C083740D120AD3AC82AD83D08389
:103B1300D08274031207E0F97402120AD3AA82ABAB
:103B230083120D26E964017005750800800874028C
:103B3300120AD3123661A9087412024CE3E0F50CA1
:103B4300A3E0F50D22E0241C123B4F22F8A3E01260
:103B53003B56223400F98882898322124853A3A357
:103B6300A3A3A32274EE12041EEAFEEBFF8C088DBE
:103B7300098E828F83A37408124530E060088E8219
:103B83008F83A37410F01228DD60098E828F83A3C4
:103B9300E02408F0EE24151228E060088E828F835B
:103BA300A3E004F08E828F83A3A3A3A3A3A3E06067
:103BB300198E828F83A3A3A3A3A3A3A3E0C3332458
:103BC30002F88E828F83A3E028F0EE24111228E0FE
:103BD3006005750B0E8003750B008E828F83A3C067
:103BE30082C083EE240D1228E0D083D082F8E0282F
:103BF300250B8C828D83F0EE24111228E0600512D0
:103C0300405B28F0850882850983E0C394754009E9
:103C1300750800750900023D49E0FA7B00124E6801
:103C23007003023D49EEFAEFFB120D8CEA85088220
:103C3300850983124475EE2402F8EF122B3D123EE0
:103C430043123D85F0EE24040808EF122B3D124287
:103C530085A3123D85A3A3F0EE2413123D6BF0EE72
:103C63002414123D6BA3F0750A08EE24161228E003
:103C73006010EE2418124D4AE5082408124F4B75C4
:103C83000A101228DD6016EE241A124D4A850A0C1A
:103C9300E508250C124F4B7408250AF50A8E828F0E
:103CA30083A3A3A3A3A3A3E06059EE2407F510EF16
:103CB3003400F511851082F583E0C0E0123D521205
:103CC3002816D0E0123D75E0C0E0123D52122816CE
:103CD300D0E0123D75A3123D5E1208618510828506
:103CE3001183E0C333FCE433FD850A0CE508250C9E
:103CF300124CC01208AD851082851183E0C33325B1
:103D03000AF50AEE24151228E0600BC0E0123D52BA
:103D1300122816D0E0F0122810123D5E120861EE50
:103D2300240D1228E0FC7D00850B0A8E828F83A36D
:103D3300E0F8E50828F8E5093400F9E8250AFAE986
:103D4300124CC31208ADAA08AB097F0A02063985D3
:103D53000A0CE508250CF582E50922E0F50CA3E041
:103D6300F50D750E00780C22123668123D8FA3A351
:103D7300A322F0050A8E828F83A3A3A3A3A3A3A3E5
:103D8300A322A3A3124FB6A3123D8F22124289A3EB
:103D9300A32274F612041E8A828B83E0FC900353E1
:103DA300123E3C740278081209A0EC4508FCAD09E8
:103DB300EA2412123E36740678081209A0EC45086C
:103DC300FCED4509FDEA2415F582EB1228E36004B6
:103DD300780180027800E4C8F9ED49FDEA2411F581
:103DE30082EB1228E3F5088809740978081209A000
:103DF300ED4509FDEA2416123E36740B78081209C4
:103E0300A0ED4509FDEA2417123E36740C7808121A
:103E130009A0ED4509FD8A828B83A3A3A3A3A3A3D2
:103E2300123E3C740A78081209A0ECFAED4509FB2E
:103E33000244A5F582EB12366BE0F5087509002202
:103E4300E085088285098322A3E0F9850882850934
:103E5300832274EE12041E8A0A8B0BECFEEDFF75AF
:103E63000F01E9C39408500579000240488E828F00
:103E730083E9F01242AEE96003750F001242928E9D
:103E8300828F831242DCEE124C1AEF1242D1C0E051
:103E9300EE2411122813D0E01242C9C0E0EE24121E
:103EA300122813D0E01239327408124CD4A3A3A3FE
:103EB300E0601512427AEE2413F582EF1244E48E89
:103EC300828F83A3E02408F08E828F83A3A3A3A30E
:103ED300A3A3A3A3E060218E828F83A38582088599
:103EE30083091242BDEE2415F582EF1244E48508DE
:103EF30082850983E02408F08E828F83A3A3A3A382
:103F0300A3E0601A8E828F83A385820885830912BA
:103F130042A18E828F83A3A3A3A3A312406DEE2499
:103F23001912391FEE241B12391FA3124528E07002
:103F330003023FDCEE2419F8EF3400F98E828F83FD
:103F4300A3858208858309E0FAE50A2AF582E50B51
:103F53001228E38882898312406DFAE50A2AF582E2
:103F6300E50B1228E3C0E0EE241A122813D0E01266
:103F7300406D88828983E06059F8901DF9E493C30A
:103F830098500575110C8008EE24191228E0F511DC
:103F93008E828F83A3E0F8E50A28F50CE50B124027
:103FA30051120861E511C333FCE433FD7AE67B0A61
:103FB30012404B1208ADEE241B12281374E6F0A333
:103FC300740AF0E511C333F8850882850983E02874
:103FD3008006EE2418125185F08E828F83A3E0F8B9
:103FE3008E828F83E0C3985003023E6BA3E0FA8A6C
:103FF30008E50A2508F8E50B3400F9EE241DF582DF
:10400300EF1245F012407DC39AC0E0EE2417122848
:1040130013D0E01244ED602BEE2417F8EF3400F9CF
:10402300880889098882F583E024F21245D1240E99
:10403300FAA3E03400FB8882898312447412405B44
:10404300C398F0A90F023D4D1211D074032234001E
:10405300F50D750E00780C2290034EE0F9120B104B
:10406300E9F8850882850983E022F08508828509BD
:1040730083E004F022A3A3A3A3A3F08E828F83E0A3
:104083002274F412041E8A088B09EA124112F0EA20
:104093001313543F12410BA3A3A3F0EAC413131247
:1040A3004112A3A3F0EB12410412411C7409780AD4
:1040B300120A8512410212411B740A780A120A85F8
:1040C300E50A5401C0E0EC2418F582ED122816D05D
:1040D300E0124121740B780A120A85124102A312DD
:1040E300411B740C780A120A85124102A3A3A3A3ED
:1040F300A3A3A3A3F0740D7808120A85022442E552
:104103000A54018C828D8322540F8C828D83225416
:10411300038C828D83A3A322A3A3A3A3A3A3F08AC7
:104123000A8B0B22C082C08379008A828B83A3A36C
:10413300A3A3A3A3E090034D600FE070228A828BB8
:1041430083A3A3E07019098016E060138A828B832E
:10415300124842900356E06A7003A3E06B70E702D3
:104163003A1E74F012041E8A0A8B0B890C8C088D7C
:10417300091242AE1242928508828509831242DCFB
:10418300E508124C1AE5091242D1C0E0E5082411F2
:10419300F582E509122816D0E01242C9C0E0122FB9
:1041A30014122816D0E01245F87408124611601153
:1041B30012427AE50824131245EC1245F8E024086C
:1041C300F0850882850983A3A3A3A3A3A3A3A3E0E4
:1041D3006017850882850983A31242B9E50824156F
:1041E3001245EC12407D2408F0850882850983A3DB
:1041F300A3A3A3A3E06019850882850983A3AE82E4
:10420300AF831242A185088285098312407804F0A6
:10421300AA08AB09120D9EE9F50D70568508828533
:104223000983A3A3A3A3A3A31242857014E0FA8A6C
:104233000EE50A250EF8E50B1244D9E50CC39A8066
:10424300211242B9E8240EF8E91244D990034EE052
:10425300F9120B108E828F83E0F8E50CC39824F2D9
:10426300C399C0E0E5082417F582E509122816D0A2
:10427300E0F0A90D024C09E50A2408F8E50B340027
:10428300F92212428922E0850882850983A32285C7
:104293000A82850B83A3A31242F2E0F9EA22E0F833
:1042A300E50A28F582E50B124500228A828B8312E8
:1042B3004C0E120D9822AE82AF83E0F8E50A28F87F
:1042C300E50B3400F922124305A3A3A3E02212361F
:1042D3006BE81242FEA3A3E022A3A3A3A3A3A3A379
:1042E300A3A31242FE1242F2A3A3E0F9EAF822E0EA
:1042F300FA850A82850B83A3A3A322F0A3E91243C1
:104303000522F0850A82850B83A3A3A3A322C0827F
:10431300C0837AC57B0379E21218FC7AC57B03025A
:104323003A1EC082C083900356023A1BC082C083E8
:1043330074FE120911851882851983AA82AB8379C9
:104343004B12434F12484B74020239F41218FC8586
:10435300188285198322C082C083794A1218FC020D
:104363003A1E74F612041E9003CDE0FE04F0EEF93B
:10437300120D508B09EA450970EDEE60EAF902442B
:10438300A574F012041EEAFEEBFF8C088D09890A5E
:104393007410120AD3E0F50B7411120AD3E0F50C72
:1043A300120E70EA4B7013E50C7042A90AAC08AD0B
:1043B30009EEFAEFFB120E88806EE50A6021EA240B
:1043C30002F582EB1228E3850A082508F8E4340095
:1043D30013E813F070098A828B83A3A37401F0E5B9
:1043E3000C6045E50B70068A828B83E4F0740165EB
:1043F3000C7035E50B9003D47004E4F0802AE004DC
:10440300F0900C33E0F89003D4E0C398401AE4F042
:10441300900359E06E7003A3E06F700CEEFAEFFBAC
:104423007901120BF412442E024C097A017B00909D
:1044330003B0E0F912132022C082C08374016A70B2
:1044430001EB70077A011244658012900C2A124422
:1044530074EA4B60051221BE800312442E023A1EF9
:104463007A207B009003B0E0F9121224223400F585
:1044730083EAF0A3EBF022C082C083900C2C0230BD
:104483001EC082C083900C2E02301E124F1C22EEDF
:10449300240CF582EF3400F583123A15E849221211
:1044A30008AD7F02020639A2F0E43385188285192C
:1044B300831244C67952121902221244C679421257
:1044C300190222F0AA82AB8322AA08AB099003B097
:1044D300E0F91211FA223400F9E508241DF582E50A
:1044E3000912366BE8F0A3E9F022124CD8A3A3E03B
:1044F30022A3F0EE24151244FD22F582EF3400F5D9
:1045030083E02212450A223400F583E0F8A3E0F9A0
:104513008882898322E0F812451E22A3E0F98E8265
:104523008F83A3A322F0EE241812366822F0EE2420
:10453300161236682274F412041EEAFEEBFF7A00A8
:104543007B041244321245C71244E7900365740991
:10455300F0120DAA8A088B09AC08AD09EE241312D8
:10456300281312484B12471B640170487A0F1245F7
:10457300BA60418A828B8374021245D1FAA3E0FBAD
:104583008A828B83A3E0FC8A828B83A3A3E0FBEC68
:10459300850882850983A3A31244758882898312BF
:1045A300484F123E431244F4FAA3E0FB794A12192E
:1045B300021244CC0228D87B001211EE8A088B0920
:1045C300EA450922900336123A15900C2E22F0EE9A
:1045D300241DF8EF1245DB22123B56E0221245E47C
:1045E300223400F5837401F022F582E50912366B5B
:1045F300E8F0A3E9221245FC2212460022F08508C6
:1046030082850983A322124600A3A3A3A3221246F1
:1046130009A3A3E022124A22120DFE22EE2417F56B
:1046230082EF1245E4120DAAEE241A123668EAF05C
:10463300A3EBF02274F412041E74F3120911890817
:10464300EAFEEBFF7C0D7D007900851882851983D6
:10465300AA82AB831211DCEE241D122813124F0D14
:10466300A3E0F8741F58600A79011218D279000286
:104673004712E8A2E55008740C120AD37401F0E85B
:10468300A2E75008740B120AD37401F0E8A2E6748F
:104693000A5008120AD37401F08008120AD3E064A6
:1046A300017005EE24138003EE2415124D4A7402A3
:1046B300120AD3AA82AB831218EA122810124720D7
:1046C3001244E7740A120AD3E0640170331221F131
:1046D300703B120DB68A0A8B0BA80AA90BEE240BAA
:1046E3001228E0687003A3E0697022120DAAEAFCA5
:1046F300EBFD7402120AD3AA82AB8312471B600D2F
:10470300851882851983AA82AB83120BEEA90874DC
:104713000D0228D5EEFAEFFB1218E4E922E0124766
:104723002522F8A3E0F98518828519832274F612ED
:10473300041E74F31209118A088B09ECFEEDFF7C49
:104743000D7D007900851882851983AA82AB8312B7
:1047530050B2A3A3A3A3A3A3A3A3A31247BA12472D
:10476300C3F8A2E55008740B120AD37401F0E8A24F
:10477300E75008740A120AD37401F0E8A2E6EE5077
:1047830004241380022415124D4A7402120AD31210
:1047930047ACA3A3E0C0E0740C120AD3D0E0124AE2
:1047A3001A120BE8740D0244A2AA82AB831218EA10
:1047B30085088285098322E0124725E8F0A3E922D0
:1047C300F0123665124F11A3E02274F712041E741F
:1047D300E1120911EAFEEBFF8E828F8312484FA389
:1047E300A3A3E0A2E050518E828F831223518A82C9
:1047F3008B83A3A3A3A3A3A3E054FE1248678A82D7
:104803008B83124860E0F98A828B83E0241CFAA32D
:10481300E012328112484B120DA4E9701B741D1271
:104823000AD312485A7011851882851983AC82AD58
:1048330083EEFAEFFB120DEC024A8C8E828F83A378
:10484300A3A3A3A3A3A3A3A31228CE221248532254
:10485300124F15A3A3A32212369D640422E0241B46
:10486300123B4F221239FDAC82AD8322E9F8790065
:10487300740468600A740A68600574036870010947
:1048830002084574F612041E8A828B837420F0A3F7
:10489300A37401F0120B9A8A088B09AE08AF09EED4
:1048A3004F60108E828F837401F09003A3E0700336
:1048B30012461FEEFAEFFB0244A5C082C0839003A9
:1048C300B97401F0E9A2E350037403F0E9A2E150E3
:1048D30004E0D2E2F0023A1E74F612041E79007C60
:1048E300008A088B09780812067FF8FF070E490C27
:1048F300490C490C490C49054909490E4902490C1F
:1049030080097C0480050C80F67C089003B9E05C88
:104913006003098003EC6001090244A574F61204E4
:104923001E8A828B83E07012A312449C600C8A82DD
:104933008B8312484A1219CE80047A007B0002440A
:10494300A574F512041E74F31209118A088B09EC7D
:10495300FEEDFF750A12EA450970057900024A1354
:10496300900356E065087004A3E065097014120D06
:10497300AAEAFCEBFD1247177005750A018003755F
:104983000A00851882851983E4F004120AD3E50826
:10499300F0A3E509124A1A120B5EE96027740312A9
:1049A3000AD3AA82AB83120B40E964017016750A1D
:1049B300017403120AD3AC82AD83124717602175C9
:1049C3000A00801C7412650A70169003A2E0640248
:1049D300700EEEFCEFFDAA08AB09120B76E970DF4F
:1049E300EEFCEFFDAA08AB09120E76E9F8740A682B
:1049F3007005750A01801774A0687012EEFCEFFD54
:104A0300AA08AB09120E82AA08AB09120E94A90ACE
:104A1300740D02541A7402124A1E22124A222212DE
:104A230039FDAA82AB832274F712041EEAFEEBFF60
:104A33008E828F83A3A3A3A3A3A3A3A3E06015EEF6
:104A430024151228131228BE120E16E964017004ED
:104A5300790180258E828F83A3A3A3A3A3A3A3E0BD
:104A63006015EE2413122813124A7EFAA3E0FB12F8
:104A73000E16E9640160D97900801312336DA3A384
:104A8300A3A3A3A3A3A3A3E022741F1208AD7F01D2
:104A930002063974F012041E74FD1209118A088B80
:104AA30009ECFEEDFF890B7413120AD3E0F50C75C4
:104AB3000A017401120AD37404124F456048E50CCD
:104AC300601DEA2417F582EB125188124F338A8254
:104AD3008B83E0D2E7F0EA2414F582EB1239221239
:104AE3004C19EB12450674031254ABEE888289838A
:104AF300A3A3F0EF88828983A3A312341712341E71
:104B0300120B94E9F50AA90A7403024C0674EC1219
:104B1300041E74F51209118A0A8B0B890C8C0E8DF5
:104B23000F741F120AD3E0F50D7420120AD3E0F5B7
:104B330010A3E0F5117E01EE120AD3740AF0E970B6
:104B430007E50DC333240AF0124CEB7003024BED5F
:104B5300124D007409F0A3E50CC43354E0450D1263
:104B63004D12E50C702D7C008023ECC333F8E43345
:104B7300F9E51028F8E51139F988828983124BFA8F
:104B830088828983122B30F0A30EAF830CECC3957C
:104B93000D40D7E5082417F582E5091245E0120D0B
:104BA300AAE508241AF582E5091244707403120A6F
:104BB300D3AC82AD83AA0AAB0B120B46E96019E5AD
:104BC300082416F582E509124BF4120AD3A882A928
:104BD30083E50824181244E085088285098312546A
:104BE300A7AA08AB09120B94E9FEEEF9740B024C69
:104BF300E31245E4740322E08E828F83F0A3AE8236
:104C0300AF83221208AD7F080206391236C5F9EACE
:104C13002400E439FB22EA240BF5822274EE120409
:104C23001E8A0C8B0D890E8C088D097412120AD3FF
:104C3300E0F50F7413120AD3124CCC90057A124488
:104C43009C6077E50FC333F8E433F9E8240EFAE9FF
:104C53003400FB1211EE8A108B11AE10AF11EE4F20
:104C630060588E828F8374D4F0A3A3E50CF0A3E580
:104C73000D124CD4E50EF0AC08AD09EE2405FAEFA5
:104C8300124F4EEE240D122813E50FF0850A088506
:104C93000B09750A007808120861E50FC333FCE4B9
:104CA30033FDEE240EFAEF124CC31208ADEEFAEF09
:104CB300FB90057A124F0D121A93023D4DFAE50946
:104CC3003400FB1211D0740322E0F50AA3E0F50BC4
:104CD30022124CD822124CDC22123936A3A3A3226F
:104CE3001208AD7F0C020639851882851983AA82C2
:104CF300AB83120DFE8A088B09EA450922EA240BCD
:104D0300F582EB124500FEA3E0FF8E828F8322F033
:104D1300A3AE82AF83AC0EAD0FEEFAEFFB124D24C0
:104D2300221218EA124D2B22EE2408FEEF3400FF64
:104D330022E0FA8E828F83A3A3E022FEA3E0340055
:104D4300FF8E828F83E022123668124D5122E0FCDF
:104D5300A3E0FD221228CE120D922274F612041E35
:104D6300EAFEEBFF9003BA801388828983E06E70BA
:104D730003A3E06F603A88828983A3A312449C70E3
:104D8300E87A047B00121A288A088B09A808A90963
:104D9300E849601C88828983124DBA9003BA12488D
:104DA3004B88828983A3A31244749003BA1244E705
:104DB3000244A58A828B83EEF0A3EFF02274F412EF
:104DC300041E7E009003BA80070E88828983A3A302
:104DD30012449C70F4EEC333FAE433FB124E686062
:104DE3007E7F009003BA802488828983124D4DEF21
:104DF300C333FAE433FBE5082AF582E5093BF5837F
:104E0300ECF0A3EDF00F88828983A3A312449C7076
:104E1300D79003AB12222B7003A3E06978087019B3
:104E2300120865EEF50A780A1208697C777D037922
:104E3300009003AB124E73801A120865EEF50A78E0
:104E43000A1208697C777D0379009003AB12484B03
:104E5300120E2874031208ADAA08AB0912127212BB
:104E63000BAC0228D8121A288A088B09EA450922B2
:104E73001228CE120E2E22C082C08380128A828B09
:104E830083A3A31236769003BA1244E712127290E8
:104E930003BA12358670E6023A1E74F612041E90A7
:104EA30003631236A29003CE124EFC1244E77ACE6D
:104EB3007B0379501219029003CE12244AFAEFFBB6
:104EC300120E8E9003CE1236A290057C12449C6083
:104ED300257A067B001211EEEA4B601A8A828B83D5
:104EE30074D5F0A3A3E4124F2204124F3390057C30
:104EF300124F0D121A930244A5124F0022E0F8A399
:104F0300E0F9900363228E828F83124F1122124F96
:104F13001522E0F8124F1B22A3E0F58388822212A8
:104F23004F2622124F2A22F08A828B83A3A3A32225
:104F3300124F26A3EEF0A3EFF022F582EF12450005
:104F4300F922124618EA4B22FAE5093400FB12183B
:104F5300EA2212451FA3A3A3A3A3A3A322901DF197
:104F6300E4932401F8E43400F97A027B002274F715
:104F730012041E7E00800412555E0E12508240F70A
:104F83007E00EE124F9D74FEF0A304124FB2E4F0C4
:104F93000EEEC3940340EB024A9175F003A4F8A903
:104FA300F074BC28F8740339F988828983A3221228
:104FB3004FB622F0888289832274F712041E7F0081
:104FC30080010F901DEEE493F8EFC3985026EF1283
:104FD300516E6A7003A3E06B70E812550B6C70039B
:104FE300A3E06D600A74FF6C700374FF6D70D312DD
:104FF300507980047A007B00024A9174F612041EF1
:105003007CFF7DFF7AFE7BFF120E52EA4B704075E8
:1050130008008036E50875F017A4F8A9F074812814
:10502300F5827409125180600C748028F58274092A
:105033001251807013747228FE740939FF8E828FA7
:105043008312518DEEFAEFFB05081250E840C502BA
:1050530044A574F412041E8A088B09ECFEEDFF804C
:105063000B120E64EEFCEFFDAA08AB09120E52EA16
:105073004B70EE0228D8747228FA740939FB229017
:105083001DEEE493F8EEC3982274F712041EEAFEB1
:10509300EBFFEE4F60101250AC74FEF0A3041254F9
:1050A300B114F0A304F0024A917C177D0079001239
:1050B30011DC8E828F832274F712041EEAFEEBFF4B
:1050C3007508008018E50875F017A4F8A9F01255C3
:1050D300167003A3E06F600312556605081250E8CB
:1050E30040E3024A91901DEEE493F8E508C3982249
:1050F30074F612041E120E528A088B09A808A90915
:10510300E849600AE8240DFAE93400FB80047A00D8
:105113007B000244A574F412041E8A0A8B0BECFE76
:10512300EDFF750800750900802EE50975F017A4D9
:10513300F8A9F0125551601EE50912516E650A7007
:1051430004A3E0650B700375080AEEFCEFFD12542F
:105153000D60034308A00509901DEEE493F8E509EB
:10516300C3985004E50860C202244275F017A4F8FE
:10517300A9F012517922747228F582740939F583E2
:10518300E022F582EF12366BE4221228CE120C8A4B
:1051930022124FB6A3A3A3A3A3A3A3A32274F21221
:1051A300041E8A088B09ECFEEDFF740E120AD3125B
:1051B3004CCC750C007C007D0180101211E8E50CCD
:1051C300F5F0EA84ACF0750C007D0078007900807E
:1051D3000312534A1253A6400302526CE8FAE9FB46
:1051E300EA75F017A4FA85F00D75F017EBA4250DF9
:1051F3001253827003A3E0F460D712536065087002
:1052030004A3E0650960CA1253606E7003A3E06FE4
:1052130060BF125360650A7004A3E0650B60B2E8D7
:10522300FAE9FBEA75F017A4FA75F017EBA4250D5C
:10523300FB74802AF5827409125341509474016DF2
:10524300050C608DE50CC39C4087E875F017A4F846
:10525300AAF075F017E9A42AF9747228F582740983
:1052630039F58312484B02533E78007900800312CC
:10527300534A1253B34003025325E8FAE9FBEA7594
:10528300F012A4FA85F00D12539264FE7003A3E0AA
:10529300F460DC12538865087004A3E0650960CFED
:1052A3001253886E7003A3E06F60C4125388650ABB
:1052B3007004A3E0650B60B7E8FAE9FBEA75F01246
:1052C300A4FA75F012EBA4250DFB74012AF5827480
:1052D300081253415099E8FAE9FBEA75F012A4FA6F
:1052E30075F012EBA4250D12535364016081E06441
:1052F30002700302527274016D050C700302527244
:10530300E50CC39C5003025272E875F012A4F8AA8C
:10531300F075F012E9A42AF974F828F582740702EB
:105323005263E50C6011EC700E7401650C600302AE
:1053330051BE7C010251C97AFE7BFF0222373BF545
:1053430083E014C3940622E8240108E93400F92217
:10535300FB74FC2AF58274073BF583E022E8FAE943
:10536300FBEA75F017A4FA75F017EBA4250D125399
:105373007522FB74722AF58274093BF583E02212CD
:10538300537564FE22E8FAE9FBEA75F012A4FA7594
:10539300F012EBA4250DFB74F82AF58274073BF594
:1053A30083E022901DEEE493FAC3E89AE994002285
:1053B300901DE8E493FA740193FBC3E89AE99B22F6
:1053C30074F512041E8A088B09ECFEEDFF750A00C2
:1053D3008002050A901DEEE493F8E50AC39850286D
:1053E300EEFCEFFDE50A75F017A4F8A9F012540DD1
:1053F30060E0E50A75F017A4F8A9F0747228F58245
:10540300740939F5831234208010747428FA7409EE
:1054130039FB1218E4E9221208AD7F03020639743E
:10542300F012041E8A088B098C0A8D0B890C120E4C
:10543300588A0E8B0FAE0EAF0FEE4F60551250AC65
:10544300E508F0A3E5091254B11254A9E50C600A6A
:10545300EE240F122813E50C8006EE240F1254A13C
:10546300F09003D012449C601A9003AAE064017088
:1054730008EE240E1251858010EE240E12281374A8
:10548300078006EE240E1254A1122D661202CD12CD
:105493005498024C09EE240D123668E8F0221236B5
:1054A30068740122A3A3E50AF0A3E50BF0221232EC
:1054B30097A32274F512041E8A088B09ECFEEDFFF4
:1054C300750A00800F1255167003A3E06F60031274
:1054D3005566050A901DEEE493F8E50AC398502536
:1054E300E50A75F017A4F8A9F012550B65087004C6
:1054F300A3E0650970CF747C28F582740939F583BC
:10550300124DBA80CD02541D747C28F582740912A1
:10551300518022747C28F58274091251806E2274A2
:10552300F712041EEAFEEBFF7508008019E5081266
:10553300516E6E7003A3E06F700A1255517005E54A
:105543000812555F05081250E840E2024A9174744C
:1055530028FA740939FB120B40E922EE75F017A4FF
:10556300F8A9F0125079120E6422124FB6123A15AE
:10557300E84922C082C08374F81209118518828514
:105583001983AC82AD8375838075821A7408120700
:10559300E0851882851983AC82AD8312471B6401B1
:1055A300700479008002790174080239F4126929C0
:1055B300F9EA22E0F508E4F509F50AF50B22740986
:1055C3001208AD7F04020639EE2412FAEF3400FB11
:1055D30012100EE922790512101A740422E024F540
:1055E300C39412221216628A0C8B0D8C0E8D0F221D
:1055F3001210F29007C31270C57A147B0022FB12BB
:10560300560CE8F0A3E9F0EE221256148A828B833B
:10561300228A828B83E024FFF8A3E034FFF922EE91
:10562300240E12731B74012212566C1208AD7F08EC
:10563300020639125666A2E52212731EE4F0227F97
:1056430005020639E508126C64E509125666227AEA
:10565300D57B0312121874022212566022EE241014
:10566300F582EF3400F583E0221210E6740422F58C
:1056730082EF125666F822EE240DF582EF1256667B
:10568300640122E0FEA3E0FFEE4F22F582EF125603
:105693006622FAEF3400FB79E112175822F0EEFA92
:1056A300EFFB22EE240EF582EF12731E22F0A3F01D
:1056B300025DFBF582EB125666FA221208AD026216
:1056C30056C082C08374FE12091180077AD57B030A
:1056D3001257029003D51266CF70F19003D712666A
:1056E300CF60097AD77B0312570280EF9003D5E48A
:1056F300F0A3F09003DBF0A3F0A3F0740280161282
:105703001A88851882851983EAF0A3EB1278BE12F2
:105713000FFC2274111208AD025DFB74F612041E15
:10572300E9FF8F0874881267EE741D1267F3FE8E0B
:1057330008FA7B001211EEEA4B6017EA2508F8EB32
:105743003400F98A828B831271AEA3A3A3A3E4F07E
:1057530080227A027B001211EEEA4B60138F0874E9
:10576300A91267EE741D125AE5F0A3741A125AFABD
:105773007A007B00027269E9FDEAFC74062DFAECFB
:10578300A2E0501EEA75F00A84A8F0E86014740AD7
:105793002AC398FAE8C394054004740A2AFA740BDE
:1057A3002AFAEDC394134004781480027806E82A99
:1057B3002409F8E43400F97A0A7B001202CDE8F9EF
:1057C300020845C082C083900405E05402600A12B7
:1057D300193EE96004790180027900025DFBC08211
:1057E300C083900405E0540260149003DBE0700A68
:1057F3001266CC60091258065004790180027900C0
:10580300025DFB9003DEE02410125CD5A2E722C008
:1058130082C08390803AE0F89003DDE0C39850059E
:105823001211EE80047A007B00025DFBC082C0830C
:10583300120FFC7900025DFBC082C08374FE120963
:10584300118518828519831259A1600D146065248E
:10585300FE70030258DB0259659007A3E0640F60F2
:1058630018120FD2E97012851882851983126924E0
:10587300900BEC125D5C121A939007CBE0C0E085AD
:1058830018828519831263FED0E0125987F81259E2
:10589300757414125987FCA3E0FD7AD77B031212A7
:1058A3000CE5A8F8C2AF9003DD1259987920120FC6
:1058B300C00256FE120FCCE9851882851983601148
:1058C300125D5C740D125987FAA3E0FB121938803C
:1058D300E0125D5C741580BB125CDB7003025965DA
:1058E30085188285198312723FC0E012597AD0E07D
:1058F3001259872402F8125BCC2401FAA3E0340086
:10590300FB888289831259A114C394095020125C25
:10591300DBFA851882851983A3127AE5A3A3A3E092
:10592300F874D228F582741D1267F36A600F125956
:105933007AE06408702C125CDB6408702585188299
:10594300851983E0F8125CE1141259A5240AC0E01A
:10595300851882851983125975D0E01259A504025E
:105963005896851882851983AA82AB83120FFC028D
:1059730058B4A3125D6722851882851983127AF2BF
:10598300A3A3A32212598B221279AEE022E5A8F831
:10599300C2AF9003DCE004F0E8A2E792AF22EAF0A2
:1059A300A3EB12598BF8125CE6A3E022C082C083FA
:1059B3009003E01266CF6008125976121A938002A0
:1059C3007900025DFB74F712041EEAFEEBFFEE247E
:1059D3000D125625F0EE242F12568EC0E01256A655
:1059E300D0E0F0EE243012568EC0E0EE24121256B0
:1059F300A9D0E0126F75C0E0EE24131256A9D0E0CF
:105A0300F0EE242B1256A9120739EE2422FCEF34B0
:105A130000FDEE242D12568EF9126D6C1208ADE9BD
:105A23007007EEFAEFFB120F06026256C082C083C4
:105A3300120FD2E96004792080027901025DFBC074
:105A430082C083EA126C5BE0D2E00256B2C082C02D
:105A530083126C541256807011125AEF400C8A82D2
:105A63008B83A3E0F9120FC68069125AD91256919B
:105A7300A2E650128A828B83A3E0F9900BEE125DAB
:105A83005C121A93804D126C54125680700D125A88
:105A9300EF50088A828B83743080358A828B83A38C
:105AA300E0641B8A828B83700474228023A3E070DA
:105AB3000F126C5412567574B428F582741D800D40
:105AC300126C5412567574A928F582741D125AE586
:105AD300125AFA025DFBEA125AE0EB22EE240FF5AA
:105AE300822212731EE4938A828B8322EA125AE083
:105AF300EB125666A2E322F0900400E0F91211FAC9
:105B03002274F712041EE9FE1266CC602EEE702E8C
:105B13009003DE12730CE4F09003DE126924120E7C
:105B2300F49003DEE0240E12580C50031273D1904C
